Component: ARM Compiler 5.05 update 1 (build 106) Tool: armlink [4d0efa]

==============================================================================

Section Cross References

    main.o(i.SysTick_Handler) refers to irq.o(i.rt_interrupt_enter) for rt_interrupt_enter
    main.o(i.SysTick_Handler) refers to clock.o(i.rt_tick_increase) for rt_tick_increase
    main.o(i.SysTick_Handler) refers to irq.o(i.rt_interrupt_leave) for rt_interrupt_leave
    main.o(i.SysTick_Handler) refers to main.o(.data) for tick_flag
    main.o(i.flag1_thread_entry) refers to thread.o(i.rt_thread_delay) for rt_thread_delay
    main.o(i.flag1_thread_entry) refers to main.o(.data) for flag1
    main.o(i.flag2_thread_entry) refers to main.o(i.delay) for delay
    main.o(i.flag2_thread_entry) refers to main.o(.data) for flag2
    main.o(i.flag3_thread_entry) refers to main.o(i.delay) for delay
    main.o(i.flag3_thread_entry) refers to main.o(.data) for flag3
    main.o(i.main) refers to context_rvds.o(.text) for rt_hw_interrupt_disable
    main.o(i.main) refers to timer.o(i.rt_system_timer_init) for rt_system_timer_init
    main.o(i.main) refers to scheduler.o(i.rt_system_scheduler_init) for rt_system_scheduler_init
    main.o(i.main) refers to idle.o(i.rt_thread_idle_init) for rt_thread_idle_init
    main.o(i.main) refers to thread.o(i.rt_thread_init) for rt_thread_init
    main.o(i.main) refers to thread.o(i.rt_thread_startup) for rt_thread_startup
    main.o(i.main) refers to scheduler.o(i.rt_system_scheduler_start) for rt_system_scheduler_start
    main.o(i.main) refers to system_armcm3.o(.data) for SystemCoreClock
==============================================================================

Removing Unused input sections from the image.

    Removing main.o(.rev16_text), (4 bytes).
    Removing main.o(.revsh_text), (4 bytes).
    Removing main.o(.rrx_text), (6 bytes).
    Removing object.o(i.rt_object_detach), (40 bytes).
    Removing object.o(i.rt_object_is_systemobject), (18 bytes).
    Removing system_armcm3.o(.rev16_text), (4 bytes).
    Removing system_armcm3.o(.revsh_text), (4 bytes).
    Removing system_armcm3.o(.rrx_text), (6 bytes).
    Removing system_armcm3.o(i.SystemCoreClockUpdate), (16 bytes).

9 unused section(s) (total 102 bytes) removed from the image.

==============================================================================

Image Symbol Table

    Local Symbols

    Symbol Name                              Value     Ov Type        Size  Object(Section)

    RESET                                    0x00000000   Section      192  startup_armcm3.o(RESET)
    ../clib/angel/boardlib.s                 0x00000000   Number         0  boardshut.o ABSOLUTE
    ../clib/angel/boardlib.s                 0x00000000   Number         0  boardinit3.o ABSOLUTE
    ../clib/angel/boardlib.s                 0x00000000   Number         0  boardinit2.o ABSOLUTE
    ../clib/angel/boardlib.s                 0x00000000   Number         0  boardinit1.o ABSOLUTE
    ../clib/angel/handlers.s                 0x00000000   Number         0  __scatter_zi.o ABSOLUTE
    ../clib/angel/handlers.s                 0x00000000   Number         0  __scatter_copy.o ABSOLUTE
    ../clib/angel/kernel.s                   0x00000000   Number         0  rtexit.o ABSOLUTE
    ../clib/angel/kernel.s                   0x00000000   Number         0  rtexit2.o ABSOLUTE
    ../clib/angel/kernel.s                   0x00000000   Number         0  __rtentry4.o ABSOLUTE
    ../clib/angel/kernel.s                   0x00000000   Number         0  __rtentry2.o ABSOLUTE
    ../clib/angel/kernel.s                   0x00000000   Number         0  __rtentry.o ABSOLUTE
    ../clib/angel/rt.s                       0x00000000   Number         0  rt_raise.o ABSOLUTE
    ../clib/angel/scatter.s                  0x00000000   Number         0  __scatter.o ABSOLUTE
    ../clib/angel/startup.s                  0x00000000   Number         0  __main.o ABSOLUTE
    ../clib/angel/sys.s                      0x00000000   Number         0  libspace.o ABSOLUTE
    ../clib/angel/sys.s                      0x00000000   Number         0  use_no_semi.o ABSOLUTE
    ../clib/angel/sys.s                      0x00000000   Number         0  indicate_semi.o ABSOLUTE
    ../clib/angel/sys.s                      0x00000000   Number         0  sys_stackheap_outer.o ABSOLUTE
    ../clib/angel/sysapp.c                   0x00000000   Number         0  sys_exit.o ABSOLUTE
    ../clib/angel/sysapp.c                   0x00000000   Number         0  sys_command.o ABSOLUTE
    ../clib/angel/sysapp.c                   0x00000000   Number         0  sys_wrch.o ABSOLUTE
    ../clib/armsys.c                         0x00000000   Number         0  argv_veneer.o ABSOLUTE
    ../clib/armsys.c                         0x00000000   Number         0  _get_argv_nomalloc.o ABSOLUTE
    ../clib/armsys.c                         0x00000000   Number         0  no_argv.o ABSOLUTE
    ../clib/armsys.c                         0x00000000   Number         0  argv_veneer.o ABSOLUTE
    ../clib/heapalloc.c                      0x00000000   Number         0  hrguard.o ABSOLUTE
    ../clib/heapaux.c                        0x00000000   Number         0  heapauxi.o ABSOLUTE
    ../clib/libinit.s                        0x00000000   Number         0  libshutdown2.o ABSOLUTE
    ../clib/libinit.s                        0x00000000   Number         0  libshutdown.o ABSOLUTE
    ../clib/libinit.s                        0x00000000   Number         0  libinit2.o ABSOLUTE
    ../clib/libinit.s                        0x00000000   Number         0  libinit.o ABSOLUTE
    ../clib/signal.c                         0x00000000   Number         0  defsig_rtmem_outer.o ABSOLUTE
    ../clib/signal.c                         0x00000000   Number         0  defsig_abrt_inner.o ABSOLUTE
    ../clib/signal.c                         0x00000000   Number         0  defsig_other.o ABSOLUTE
    ../clib/signal.c                         0x00000000   Number         0  defsig_segv_inner.o ABSOLUTE
    ../clib/signal.c                         0x00000000   Number         0  defsig_cppl_inner.o ABSOLUTE
    ../clib/signal.c                         0x00000000   Number         0  defsig_stak_inner.o ABSOLUTE
    ../clib/signal.c                         0x00000000   Number         0  defsig_rtred_inner.o ABSOLUTE
    ../clib/signal.c                         0x00000000   Number         0  defsig_fpe_inner.o ABSOLUTE
    ../clib/signal.c                         0x00000000   Number         0  defsig_general.o ABSOLUTE
    ../clib/signal.c                         0x00000000   Number         0  __raise.o ABSOLUTE
    ../clib/signal.c                         0x00000000   Number         0  defsig_rtmem_inner.o ABSOLUTE
    ../clib/signal.c                         0x00000000   Number         0  defsig_exit.o ABSOLUTE
    ../clib/signal.c                         0x00000000   Number         0  defsig_rtmem_formal.o ABSOLUTE
    ../clib/signal.c                         0x00000000   Number         0  defsig_pvfn_inner.o ABSOLUTE
    ../clib/signal.s                         0x00000000   Number         0  defsig.o ABSOLUTE
    ../clib/stdlib.c                         0x00000000   Number         0  exit.o ABSOLUTE
    ../fplib/fpinit.s                        0x00000000   Number         0  fpinit.o ABSOLUTE
    ..\User\main.c                           0x00000000   Number         0  main.o ABSOLUTE
    ..\\User\\main.c                         0x00000000   Number         0  main.o ABSOLUTE
    ..\rtthread\3.0.3\libcpu\arm\cortex-m3\context_rvds.s 0x00000000   Number         0  context_rvds.o ABSOLUTE
    ..\rtthread\3.0.3\libcpu\arm\cortex-m3\cpuport.c 0x00000000   Number         0  cpuport.o ABSOLUTE
    ..\rtthread\3.0.3\src\clock.c            0x00000000   Number         0  clock.o ABSOLUTE
    ..\rtthread\3.0.3\src\idle.c             0x00000000   Number         0  idle.o ABSOLUTE
    ..\rtthread\3.0.3\src\irq.c              0x00000000   Number         0  irq.o ABSOLUTE
    ..\rtthread\3.0.3\src\kservice.c         0x00000000   Number         0  kservice.o ABSOLUTE
    ..\rtthread\3.0.3\src\object.c           0x00000000   Number         0  object.o ABSOLUTE
    ..\rtthread\3.0.3\src\scheduler.c        0x00000000   Number         0  scheduler.o ABSOLUTE
    ..\rtthread\3.0.3\src\thread.c           0x00000000   Number         0  thread.o ABSOLUTE
    ..\rtthread\3.0.3\src\timer.c            0x00000000   Number         0  timer.o ABSOLUTE
    RTE\Device\ARMCM3\startup_ARMCM3.s       0x00000000   Number         0  startup_armcm3.o ABSOLUTE
    RTE\Device\ARMCM3\system_ARMCM3.c        0x00000000   Number         0  system_armcm3.o ABSOLUTE
    RTE\\Device\\ARMCM3\\system_ARMCM3.c     0x00000000   Number         0  system_armcm3.o ABSOLUTE
    dc.s                                     0x00000000   Number         0  dc.o ABSOLUTE
    !!!main                                  0x000000c0   Section        8  __main.o(!!!main)
    !!!scatter                               0x000000c8   Section       52  __scatter.o(!!!scatter)
    !!handler_copy                           0x000000fc   Section       26  __scatter_copy.o(!!handler_copy)
    !!handler_zi                             0x00000118   Section       28  __scatter_zi.o(!!handler_zi)
    .ARM.Collect$$libinit$$00000000          0x00000134   Section        2  libinit.o(.ARM.Collect$$libinit$$00000000)
    .ARM.Collect$$libinit$$00000002          0x00000136   Section        0  libinit2.o(.ARM.Collect$$libinit$$00000002)
    .ARM.Collect$$libinit$$00000004          0x00000136   Section        0  libinit2.o(.ARM.Collect$$libinit$$00000004)
    .ARM.Collect$$libinit$$0000000A          0x00000136   Section        0  libinit2.o(.ARM.Collect$$libinit$$0000000A)
    .ARM.Collect$$libinit$$0000000C          0x00000136   Section        0  libinit2.o(.ARM.Collect$$libinit$$0000000C)
    .ARM.Collect$$libinit$$0000000E          0x00000136   Section        0  libinit2.o(.ARM.Collect$$libinit$$0000000E)
    .ARM.Collect$$libinit$$00000011          0x00000136   Section        0  libinit2.o(.ARM.Collect$$libinit$$00000011)
    .ARM.Collect$$libinit$$00000013          0x00000136   Section        0  libinit2.o(.ARM.Collect$$libinit$$00000013)
    .ARM.Collect$$libinit$$00000015          0x00000136   Section        0  libinit2.o(.ARM.Collect$$libinit$$00000015)
    .ARM.Collect$$libinit$$00000017          0x00000136   Section        0  libinit2.o(.ARM.Collect$$libinit$$00000017)
    .ARM.Collect$$libinit$$00000019          0x00000136   Section        0  libinit2.o(.ARM.Collect$$libinit$$00000019)
    .ARM.Collect$$libinit$$0000001B          0x00000136   Section        0  libinit2.o(.ARM.Collect$$libinit$$0000001B)
    .ARM.Collect$$libinit$$0000001D          0x00000136   Section        0  libinit2.o(.ARM.Collect$$libinit$$0000001D)
    .ARM.Collect$$libinit$$0000001F          0x00000136   Section        0  libinit2.o(.ARM.Collect$$libinit$$0000001F)
    .ARM.Collect$$libinit$$00000021          0x00000136   Section        0  libinit2.o(.ARM.Collect$$libinit$$00000021)
    .ARM.Collect$$libinit$$00000023          0x00000136   Section        0  libinit2.o(.ARM.Collect$$libinit$$00000023)
    .ARM.Collect$$libinit$$00000025          0x00000136   Section        0  libinit2.o(.ARM.Collect$$libinit$$00000025)
    .ARM.Collect$$libinit$$0000002C          0x00000136   Section        0  libinit2.o(.ARM.Collect$$libinit$$0000002C)
    .ARM.Collect$$libinit$$0000002E          0x00000136   Section        0  libinit2.o(.ARM.Collect$$libinit$$0000002E)
    .ARM.Collect$$libinit$$00000030          0x00000136   Section        0  libinit2.o(.ARM.Collect$$libinit$$00000030)
    .ARM.Collect$$libinit$$00000032          0x00000136   Section        0  libinit2.o(.ARM.Collect$$libinit$$00000032)
    .ARM.Collect$$libinit$$00000033          0x00000136   Section        2  libinit2.o(.ARM.Collect$$libinit$$00000033)
    .ARM.Collect$$libshutdown$$00000000      0x00000138   Section        2  libshutdown.o(.ARM.Collect$$libshutdown$$00000000)
    .ARM.Collect$$libshutdown$$00000003      0x0000013a   Section        0  libshutdown2.o(.ARM.Collect$$libshutdown$$00000003)
    .ARM.Collect$$libshutdown$$00000006      0x0000013a   Section        0  libshutdown2.o(.ARM.Collect$$libshutdown$$00000006)
    .ARM.Collect$$libshutdown$$00000009      0x0000013a   Section        0  libshutdown2.o(.ARM.Collect$$libshutdown$$00000009)
    .ARM.Collect$$libshutdown$$0000000B      0x0000013a   Section        0  libshutdown2.o(.ARM.Collect$$libshutdown$$0000000B)
    .ARM.Collect$$libshutdown$$0000000E      0x0000013a   Section        0  libshutdown2.o(.ARM.Collect$$libshutdown$$0000000E)
    .ARM.Collect$$libshutdown$$0000000F      0x0000013a   Section        2  libshutdown2.o(.ARM.Collect$$libshutdown$$0000000F)
    .ARM.Collect$$rtentry$$00000000          0x0000013c   Section        0  __rtentry.o(.ARM.Collect$$rtentry$$00000000)
    .ARM.Collect$$rtentry$$00000002          0x0000013c   Section        0  __rtentry2.o(.ARM.Collect$$rtentry$$00000002)
    .ARM.Collect$$rtentry$$00000004          0x0000013c   Section        6  __rtentry4.o(.ARM.Collect$$rtentry$$00000004)
    .ARM.Collect$$rtentry$$00000009          0x00000142   Section        0  __rtentry2.o(.ARM.Collect$$rtentry$$00000009)
    .ARM.Collect$$rtentry$$0000000A          0x00000142   Section        4  __rtentry2.o(.ARM.Collect$$rtentry$$0000000A)
    .ARM.Collect$$rtentry$$0000000C          0x00000146   Section        0  __rtentry2.o(.ARM.Collect$$rtentry$$0000000C)
    .ARM.Collect$$rtentry$$0000000D          0x00000146   Section        8  __rtentry2.o(.ARM.Collect$$rtentry$$0000000D)
    .ARM.Collect$$rtexit$$00000000           0x0000014e   Section        2  rtexit.o(.ARM.Collect$$rtexit$$00000000)
    .ARM.Collect$$rtexit$$00000002           0x00000150   Section        0  rtexit2.o(.ARM.Collect$$rtexit$$00000002)
    .ARM.Collect$$rtexit$$00000003           0x00000150   Section        4  rtexit2.o(.ARM.Collect$$rtexit$$00000003)
    .ARM.Collect$$rtexit$$00000004           0x00000154   Section        6  rtexit2.o(.ARM.Collect$$rtexit$$00000004)
    .text                                    0x0000015c   Section      176  context_rvds.o(.text)
    .text                                    0x0000020c   Section       64  startup_armcm3.o(.text)
    .text                                    0x0000024c   Section        0  heapauxi.o(.text)
    .text                                    0x00000252   Section       74  sys_stackheap_outer.o(.text)
    .text                                    0x0000029c   Section        0  exit.o(.text)
    .text                                    0x000002a8   Section        8  libspace.o(.text)
    .text                                    0x000002b0   Section        0  sys_exit.o(.text)
    .text                                    0x000002bc   Section        2  use_no_semi.o(.text)
    .text                                    0x000002be   Section        0  indicate_semi.o(.text)
    i.SysTick_Handler                        0x000002c0   Section        0  main.o(i.SysTick_Handler)
    i.SystemInit                             0x000002e4   Section        0  system_armcm3.o(i.SystemInit)
    i.__rt_ffs                               0x000002f4   Section        0  kservice.o(i.__rt_ffs)
    i._rt_timer_init                         0x00000340   Section        0  timer.o(i._rt_timer_init)
    _rt_timer_init                           0x00000341   Thumb Code    66  timer.o(i._rt_timer_init)
    i._rt_timer_remove                       0x00000382   Section        0  timer.o(i._rt_timer_remove)
    _rt_timer_remove                         0x00000383   Thumb Code    46  timer.o(i._rt_timer_remove)
    i.delay                                  0x000003b0   Section        0  main.o(i.delay)
    i.flag1_thread_entry                     0x000003bc   Section        0  main.o(i.flag1_thread_entry)
    i.flag2_thread_entry                     0x000003dc   Section        0  main.o(i.flag2_thread_entry)
    i.flag3_thread_entry                     0x000003fc   Section        0  main.o(i.flag3_thread_entry)
    i.main                                   0x0000041c   Section        0  main.o(i.main)
    i.rt_hw_stack_init                       0x0000054c   Section        0  cpuport.o(i.rt_hw_stack_init)
    i.rt_interrupt_enter                     0x0000058c   Section        0  irq.o(i.rt_interrupt_enter)
    i.rt_interrupt_leave                     0x000005ac   Section        0  irq.o(i.rt_interrupt_leave)
    i.rt_list_init                           0x000005cc   Section        0  timer.o(i.rt_list_init)
    rt_list_init                             0x000005cd   Thumb Code     6  timer.o(i.rt_list_init)
    i.rt_list_insert_after                   0x000005d2   Section        0  timer.o(i.rt_list_insert_after)
    rt_list_insert_after                     0x000005d3   Thumb Code    14  timer.o(i.rt_list_insert_after)
    i.rt_list_remove                         0x000005e0   Section        0  thread.o(i.rt_list_remove)
    rt_list_remove                           0x000005e1   Thumb Code    18  thread.o(i.rt_list_remove)
    i.rt_object_get_information              0x000005f4   Section        0  object.o(i.rt_object_get_information)
    i.rt_object_init                         0x0000061c   Section        0  object.o(i.rt_object_init)
    i.rt_schedule                            0x00000664   Section        0  scheduler.o(i.rt_schedule)
    i.rt_schedule_insert_thread              0x000006d8   Section        0  scheduler.o(i.rt_schedule_insert_thread)
    i.rt_schedule_remove_thread              0x00000720   Section        0  scheduler.o(i.rt_schedule_remove_thread)
    i.rt_strncpy                             0x00000774   Section        0  kservice.o(i.rt_strncpy)
    i.rt_system_scheduler_init               0x000007a8   Section        0  scheduler.o(i.rt_system_scheduler_init)
    i.rt_system_scheduler_start              0x000007e4   Section        0  scheduler.o(i.rt_system_scheduler_start)
    i.rt_system_timer_init                   0x00000814   Section        0  timer.o(i.rt_system_timer_init)
    i.rt_thread_delay                        0x00000830   Section        0  thread.o(i.rt_thread_delay)
    i.rt_thread_idle_entry                   0x0000083c   Section        0  idle.o(i.rt_thread_idle_entry)
    i.rt_thread_idle_init                    0x00000850   Section        0  idle.o(i.rt_thread_idle_init)
    i.rt_thread_init                         0x0000088c   Section        0  thread.o(i.rt_thread_init)
    i.rt_thread_resume                       0x00000908   Section        0  thread.o(i.rt_thread_resume)
    i.rt_thread_self                         0x0000093c   Section        0  thread.o(i.rt_thread_self)
    i.rt_thread_sleep                        0x00000948   Section        0  thread.o(i.rt_thread_sleep)
    i.rt_thread_startup                      0x00000980   Section        0  thread.o(i.rt_thread_startup)
    i.rt_thread_suspend                      0x000009ac   Section        0  thread.o(i.rt_thread_suspend)
    i.rt_thread_timeout                      0x000009e6   Section        0  thread.o(i.rt_thread_timeout)
    i.rt_thread_yield                        0x00000a08   Section        0  thread.o(i.rt_thread_yield)
    i.rt_tick_get                            0x00000a6c   Section        0  clock.o(i.rt_tick_get)
    i.rt_tick_increase                       0x00000a78   Section        0  clock.o(i.rt_tick_increase)
    i.rt_timer_check                         0x00000aa8   Section        0  timer.o(i.rt_timer_check)
    i.rt_timer_control                       0x00000b2c   Section        0  timer.o(i.rt_timer_control)
    i.rt_timer_init                          0x00000b64   Section        0  timer.o(i.rt_timer_init)
    i.rt_timer_start                         0x00000b94   Section        0  timer.o(i.rt_timer_start)
    i.rt_timer_stop                          0x00000c8c   Section        0  timer.o(i.rt_timer_stop)
    .constdata                               0x00000cbc   Section      256  kservice.o(.constdata)
    .data                                    0x20000000   Section       16  main.o(.data)
    .data                                    0x20000010   Section       12  cpuport.o(.data)
    .data                                    0x2000001c   Section       24  scheduler.o(.data)
    .data                                    0x20000034   Section       32  object.o(.data)
    rt_object_container                      0x20000034   Data          32  object.o(.data)
    .data                                    0x20000054   Section        4  idle.o(.data)
    .data                                    0x20000058   Section        1  irq.o(.data)
    .data                                    0x2000005c   Section        4  clock.o(.data)
    rt_tick                                  0x2000005c   Data           4  clock.o(.data)
    .data                                    0x20000060   Section       12  timer.o(.data)
    rt_timer_list                            0x20000060   Data           8  timer.o(.data)
    random_nr                                0x20000068   Data           4  timer.o(.data)
    .data                                    0x2000006c   Section        4  system_armcm3.o(.data)
    .bss                                     0x20000070   Section     1884  main.o(.bss)
    .bss                                     0x200007cc   Section      256  scheduler.o(.bss)
    .bss                                     0x200008cc   Section      628  idle.o(.bss)
    rt_thread_stack                          0x200008cc   Data         512  idle.o(.bss)
    .bss                                     0x20000b40   Section       96  libspace.o(.bss)
    HEAP                                     0x20000ba0   Section     3072  startup_armcm3.o(HEAP)
    Heap_Mem                                 0x20000ba0   Data        3072  startup_armcm3.o(HEAP)
    STACK                                    0x200017a0   Section     1024  startup_armcm3.o(STACK)
    Stack_Mem                                0x200017a0   Data        1024  startup_armcm3.o(STACK)
    __initial_sp                             0x20001ba0   Data           0  startup_armcm3.o(STACK)

    Global Symbols

    Symbol Name                              Value     Ov Type        Size  Object(Section)

    BuildAttributes$$THM_ISAv4$P$D$K$B$S$PE$A:L22UL41UL21$X:L11$S22US41US21$IEEE1$IW$USESV6$~STKCKD$USESV7$~SHL$OSPACE$ROPI$EBA8$UX$STANDARDLIB$REQ8$PRES8$EABIv2 0x00000000   Number         0  anon$$obj.o ABSOLUTE
    __ARM_use_no_argv                        0x00000000   Number         0  main.o ABSOLUTE
    __Vectors                                0x00000000   Data           4  startup_armcm3.o(RESET)
    __ARM_exceptions_init                     - Undefined Weak Reference
    __alloca_initialize                       - Undefined Weak Reference
    __arm_preinit_                            - Undefined Weak Reference
    __cpp_initialize__aeabi_                  - Undefined Weak Reference
    __cxa_finalize                            - Undefined Weak Reference
    __rt_locale                               - Undefined Weak Reference
    __sigvec_lookup                           - Undefined Weak Reference
    _atexit_init                              - Undefined Weak Reference
    _call_atexit_fns                          - Undefined Weak Reference
    _clock_init                               - Undefined Weak Reference
    _fp_trap_init                             - Undefined Weak Reference
    _fp_trap_shutdown                         - Undefined Weak Reference
    _get_lc_collate                           - Undefined Weak Reference
    _get_lc_ctype                             - Undefined Weak Reference
    _get_lc_monetary                          - Undefined Weak Reference
    _get_lc_numeric                           - Undefined Weak Reference
    _get_lc_time                              - Undefined Weak Reference
    _getenv_init                              - Undefined Weak Reference
    _handle_redirection                       - Undefined Weak Reference
    _init_alloc                               - Undefined Weak Reference
    _init_user_alloc                          - Undefined Weak Reference
    _initio                                   - Undefined Weak Reference
    _rand_init                                - Undefined Weak Reference
    _signal_finish                            - Undefined Weak Reference
    _signal_init                              - Undefined Weak Reference
    _terminate_alloc                          - Undefined Weak Reference
    _terminate_user_alloc                     - Undefined Weak Reference
    _terminateio                              - Undefined Weak Reference
    __Vectors_End                            0x000000c0   Data           0  startup_armcm3.o(RESET)
    __Vectors_Size                           0x000000c0   Number         0  startup_armcm3.o ABSOLUTE
    __main                                   0x000000c1   Thumb Code     8  __main.o(!!!main)
    __scatterload                            0x000000c9   Thumb Code     0  __scatter.o(!!!scatter)
    __scatterload_rt2                        0x000000c9   Thumb Code    44  __scatter.o(!!!scatter)
    __scatterload_rt2_thumb_only             0x000000c9   Thumb Code     0  __scatter.o(!!!scatter)
    __scatterload_null                       0x000000d7   Thumb Code     0  __scatter.o(!!!scatter)
    __scatterload_copy                       0x000000fd   Thumb Code    26  __scatter_copy.o(!!handler_copy)
    __scatterload_zeroinit                   0x00000119   Thumb Code    28  __scatter_zi.o(!!handler_zi)
    __rt_lib_init                            0x00000135   Thumb Code     0  libinit.o(.ARM.Collect$$libinit$$00000000)
    __rt_lib_init_alloca_1                   0x00000137   Thumb Code     0  libinit2.o(.ARM.Collect$$libinit$$0000002E)
    __rt_lib_init_argv_1                     0x00000137   Thumb Code     0  libinit2.o(.ARM.Collect$$libinit$$0000002C)
    __rt_lib_init_atexit_1                   0x00000137   Thumb Code     0  libinit2.o(.ARM.Collect$$libinit$$0000001B)
    __rt_lib_init_clock_1                    0x00000137   Thumb Code     0  libinit2.o(.ARM.Collect$$libinit$$00000021)
    __rt_lib_init_cpp_1                      0x00000137   Thumb Code     0  libinit2.o(.ARM.Collect$$libinit$$00000032)
    __rt_lib_init_exceptions_1               0x00000137   Thumb Code     0  libinit2.o(.ARM.Collect$$libinit$$00000030)
    __rt_lib_init_fp_1                       0x00000137   Thumb Code     0  libinit2.o(.ARM.Collect$$libinit$$00000002)
    __rt_lib_init_fp_trap_1                  0x00000137   Thumb Code     0  libinit2.o(.ARM.Collect$$libinit$$0000001F)
    __rt_lib_init_getenv_1                   0x00000137   Thumb Code     0  libinit2.o(.ARM.Collect$$libinit$$00000023)
    __rt_lib_init_heap_1                     0x00000137   Thumb Code     0  libinit2.o(.ARM.Collect$$libinit$$0000000A)
    __rt_lib_init_lc_collate_1               0x00000137   Thumb Code     0  libinit2.o(.ARM.Collect$$libinit$$00000011)
    __rt_lib_init_lc_ctype_1                 0x00000137   Thumb Code     0  libinit2.o(.ARM.Collect$$libinit$$00000013)
    __rt_lib_init_lc_monetary_1              0x00000137   Thumb Code     0  libinit2.o(.ARM.Collect$$libinit$$00000015)
    __rt_lib_init_lc_numeric_1               0x00000137   Thumb Code     0  libinit2.o(.ARM.Collect$$libinit$$00000017)
    __rt_lib_init_lc_time_1                  0x00000137   Thumb Code     0  libinit2.o(.ARM.Collect$$libinit$$00000019)
    __rt_lib_init_preinit_1                  0x00000137   Thumb Code     0  libinit2.o(.ARM.Collect$$libinit$$00000004)
    __rt_lib_init_rand_1                     0x00000137   Thumb Code     0  libinit2.o(.ARM.Collect$$libinit$$0000000E)
    __rt_lib_init_return                     0x00000137   Thumb Code     0  libinit2.o(.ARM.Collect$$libinit$$00000033)
    __rt_lib_init_signal_1                   0x00000137   Thumb Code     0  libinit2.o(.ARM.Collect$$libinit$$0000001D)
    __rt_lib_init_stdio_1                    0x00000137   Thumb Code     0  libinit2.o(.ARM.Collect$$libinit$$00000025)
    __rt_lib_init_user_alloc_1               0x00000137   Thumb Code     0  libinit2.o(.ARM.Collect$$libinit$$0000000C)
    __rt_lib_shutdown                        0x00000139   Thumb Code     0  libshutdown.o(.ARM.Collect$$libshutdown$$00000000)
    __rt_lib_shutdown_fp_trap_1              0x0000013b   Thumb Code     0  libshutdown2.o(.ARM.Collect$$libshutdown$$00000006)
    __rt_lib_shutdown_heap_1                 0x0000013b   Thumb Code     0  libshutdown2.o(.ARM.Collect$$libshutdown$$0000000E)
    __rt_lib_shutdown_return                 0x0000013b   Thumb Code     0  libshutdown2.o(.ARM.Collect$$libshutdown$$0000000F)
    __rt_lib_shutdown_signal_1               0x0000013b   Thumb Code     0  libshutdown2.o(.ARM.Collect$$libshutdown$$00000009)
    __rt_lib_shutdown_stdio_1                0x0000013b   Thumb Code     0  libshutdown2.o(.ARM.Collect$$libshutdown$$00000003)
    __rt_lib_shutdown_user_alloc_1           0x0000013b   Thumb Code     0  libshutdown2.o(.ARM.Collect$$libshutdown$$0000000B)
    __rt_entry                               0x0000013d   Thumb Code     0  __rtentry.o(.ARM.Collect$$rtentry$$00000000)
    __rt_entry_presh_1                       0x0000013d   Thumb Code     0  __rtentry2.o(.ARM.Collect$$rtentry$$00000002)
    __rt_entry_sh                            0x0000013d   Thumb Code     0  __rtentry4.o(.ARM.Collect$$rtentry$$00000004)
    __rt_entry_li                            0x00000143   Thumb Code     0  __rtentry2.o(.ARM.Collect$$rtentry$$0000000A)
    __rt_entry_postsh_1                      0x00000143   Thumb Code     0  __rtentry2.o(.ARM.Collect$$rtentry$$00000009)
    __rt_entry_main                          0x00000147   Thumb Code     0  __rtentry2.o(.ARM.Collect$$rtentry$$0000000D)
    __rt_entry_postli_1                      0x00000147   Thumb Code     0  __rtentry2.o(.ARM.Collect$$rtentry$$0000000C)
    __rt_exit                                0x0000014f   Thumb Code     0  rtexit.o(.ARM.Collect$$rtexit$$00000000)
    __rt_exit_ls                             0x00000151   Thumb Code     0  rtexit2.o(.ARM.Collect$$rtexit$$00000003)
    __rt_exit_prels_1                        0x00000151   Thumb Code     0  rtexit2.o(.ARM.Collect$$rtexit$$00000002)
    __rt_exit_exit                           0x00000155   Thumb Code     0  rtexit2.o(.ARM.Collect$$rtexit$$00000004)
    rt_hw_interrupt_disable                  0x0000015d   Thumb Code     8  context_rvds.o(.text)
    rt_hw_interrupt_enable                   0x00000165   Thumb Code     6  context_rvds.o(.text)
    rt_hw_context_switch_to                  0x0000016b   Thumb Code    48  context_rvds.o(.text)
    rt_hw_context_switch                     0x0000019b   Thumb Code    32  context_rvds.o(.text)
    PendSV_Handler                           0x000001bb   Thumb Code    60  context_rvds.o(.text)
    Reset_Handler                            0x0000020d   Thumb Code     8  startup_armcm3.o(.text)
    NMI_Handler                              0x00000215   Thumb Code     2  startup_armcm3.o(.text)
    HardFault_Handler                        0x00000217   Thumb Code     2  startup_armcm3.o(.text)
    MemManage_Handler                        0x00000219   Thumb Code     2  startup_armcm3.o(.text)
    BusFault_Handler                         0x0000021b   Thumb Code     2  startup_armcm3.o(.text)
    UsageFault_Handler                       0x0000021d   Thumb Code     2  startup_armcm3.o(.text)
    SVC_Handler                              0x0000021f   Thumb Code     2  startup_armcm3.o(.text)
    DebugMon_Handler                         0x00000221   Thumb Code     2  startup_armcm3.o(.text)
    AACI_IRQHandler                          0x00000227   Thumb Code     0  startup_armcm3.o(.text)
    CAN_IRQHandler                           0x00000227   Thumb Code     0  startup_armcm3.o(.text)
    CHLCD_IRQHandler                         0x00000227   Thumb Code     0  startup_armcm3.o(.text)
    CLCD_IRQHandler                          0x00000227   Thumb Code     0  startup_armcm3.o(.text)
    CPU_CLCD_IRQHandler                      0x00000227   Thumb Code     0  startup_armcm3.o(.text)
    ENET_IRQHandler                          0x00000227   Thumb Code     0  startup_armcm3.o(.text)
    FLEXRAY_IRQHandler                       0x00000227   Thumb Code     0  startup_armcm3.o(.text)
    I2C_IRQHandler                           0x00000227   Thumb Code     0  startup_armcm3.o(.text)
    LIN_IRQHandler                           0x00000227   Thumb Code     0  startup_armcm3.o(.text)
    MCIA_IRQHandler                          0x00000227   Thumb Code     0  startup_armcm3.o(.text)
    MCIB_IRQHandler                          0x00000227   Thumb Code     0  startup_armcm3.o(.text)
    RTC_IRQHandler                           0x00000227   Thumb Code     0  startup_armcm3.o(.text)
    SPI_IRQHandler                           0x00000227   Thumb Code     0  startup_armcm3.o(.text)
    TIM0_IRQHandler                          0x00000227   Thumb Code     0  startup_armcm3.o(.text)
    TIM2_IRQHandler                          0x00000227   Thumb Code     0  startup_armcm3.o(.text)
    UART0_IRQHandler                         0x00000227   Thumb Code     0  startup_armcm3.o(.text)
    UART1_IRQHandler                         0x00000227   Thumb Code     0  startup_armcm3.o(.text)
    UART2_IRQHandler                         0x00000227   Thumb Code     0  startup_armcm3.o(.text)
    UART3_IRQHandler                         0x00000227   Thumb Code     0  startup_armcm3.o(.text)
    UART4_IRQHandler                         0x00000227   Thumb Code     0  startup_armcm3.o(.text)
    USBDC_IRQHandler                         0x00000227   Thumb Code     0  startup_armcm3.o(.text)
    USBHC_IRQHandler                         0x00000227   Thumb Code     0  startup_armcm3.o(.text)
    WDT_IRQHandler                           0x00000227   Thumb Code     0  startup_armcm3.o(.text)
    __user_initial_stackheap                 0x00000229   Thumb Code    10  startup_armcm3.o(.text)
    __use_two_region_memory                  0x0000024d   Thumb Code     2  heapauxi.o(.text)
    __rt_heap_escrow$2region                 0x0000024f   Thumb Code     2  heapauxi.o(.text)
    __rt_heap_expand$2region                 0x00000251   Thumb Code     2  heapauxi.o(.text)
    __user_setup_stackheap                   0x00000253   Thumb Code    74  sys_stackheap_outer.o(.text)
    exit                                     0x0000029d   Thumb Code    12  exit.o(.text)
    __user_libspace                          0x000002a9   Thumb Code     8  libspace.o(.text)
    __user_perproc_libspace                  0x000002a9   Thumb Code     0  libspace.o(.text)
    __user_perthread_libspace                0x000002a9   Thumb Code     0  libspace.o(.text)
    _sys_exit                                0x000002b1   Thumb Code     8  sys_exit.o(.text)
    __I$use$semihosting                      0x000002bd   Thumb Code     0  use_no_semi.o(.text)
    __use_no_semihosting_swi                 0x000002bd   Thumb Code     2  use_no_semi.o(.text)
    __semihosting_library_function           0x000002bf   Thumb Code     0  indicate_semi.o(.text)
    SysTick_Handler                          0x000002c1   Thumb Code    32  main.o(i.SysTick_Handler)
    SystemInit                               0x000002e5   Thumb Code     8  system_armcm3.o(i.SystemInit)
    __rt_ffs                                 0x000002f5   Thumb Code    70  kservice.o(i.__rt_ffs)
    delay                                    0x000003b1   Thumb Code    10  main.o(i.delay)
    flag1_thread_entry                       0x000003bd   Thumb Code    28  main.o(i.flag1_thread_entry)
    flag2_thread_entry                       0x000003dd   Thumb Code    28  main.o(i.flag2_thread_entry)
    flag3_thread_entry                       0x000003fd   Thumb Code    28  main.o(i.flag3_thread_entry)
    main                                     0x0000041d   Thumb Code   206  main.o(i.main)
    rt_hw_stack_init                         0x0000054d   Thumb Code    58  cpuport.o(i.rt_hw_stack_init)
    rt_interrupt_enter                       0x0000058d   Thumb Code    26  irq.o(i.rt_interrupt_enter)
    rt_interrupt_leave                       0x000005ad   Thumb Code    26  irq.o(i.rt_interrupt_leave)
    rt_object_get_information                0x000005f5   Thumb Code    36  object.o(i.rt_object_get_information)
    rt_object_init                           0x0000061d   Thumb Code    70  object.o(i.rt_object_init)
    rt_schedule                              0x00000665   Thumb Code    94  scheduler.o(i.rt_schedule)
    rt_schedule_insert_thread                0x000006d9   Thumb Code    64  scheduler.o(i.rt_schedule_insert_thread)
    rt_schedule_remove_thread                0x00000721   Thumb Code    76  scheduler.o(i.rt_schedule_remove_thread)
    rt_strncpy                               0x00000775   Thumb Code    52  kservice.o(i.rt_strncpy)
    rt_system_scheduler_init                 0x000007a9   Thumb Code    44  scheduler.o(i.rt_system_scheduler_init)
    rt_system_scheduler_start                0x000007e5   Thumb Code    36  scheduler.o(i.rt_system_scheduler_start)
    rt_system_timer_init                     0x00000815   Thumb Code    24  timer.o(i.rt_system_timer_init)
    rt_thread_delay                          0x00000831   Thumb Code    12  thread.o(i.rt_thread_delay)
    rt_thread_idle_entry                     0x0000083d   Thumb Code    16  idle.o(i.rt_thread_idle_entry)
    rt_thread_idle_init                      0x00000851   Thumb Code    38  idle.o(i.rt_thread_idle_init)
    rt_thread_init                           0x0000088d   Thumb Code   120  thread.o(i.rt_thread_init)
    rt_thread_resume                         0x00000909   Thumb Code    52  thread.o(i.rt_thread_resume)
    rt_thread_self                           0x0000093d   Thumb Code     6  thread.o(i.rt_thread_self)
    rt_thread_sleep                          0x00000949   Thumb Code    52  thread.o(i.rt_thread_sleep)
    rt_thread_startup                        0x00000981   Thumb Code    44  thread.o(i.rt_thread_startup)
    rt_thread_suspend                        0x000009ad   Thumb Code    58  thread.o(i.rt_thread_suspend)
    rt_thread_timeout                        0x000009e7   Thumb Code    32  thread.o(i.rt_thread_timeout)
    rt_thread_yield                          0x00000a09   Thumb Code    92  thread.o(i.rt_thread_yield)
    rt_tick_get                              0x00000a6d   Thumb Code     6  clock.o(i.rt_tick_get)
    rt_tick_increase                         0x00000a79   Thumb Code    42  clock.o(i.rt_tick_increase)
    rt_timer_check                           0x00000aa9   Thumb Code   126  timer.o(i.rt_timer_check)
    rt_timer_control                         0x00000b2d   Thumb Code    56  timer.o(i.rt_timer_control)
    rt_timer_init                            0x00000b65   Thumb Code    46  timer.o(i.rt_timer_init)
    rt_timer_start                           0x00000b95   Thumb Code   240  timer.o(i.rt_timer_start)
    rt_timer_stop                            0x00000c8d   Thumb Code    48  timer.o(i.rt_timer_stop)
    __lowest_bit_bitmap                      0x00000cbc   Data         256  kservice.o(.constdata)
    Region$$Table$$Base                      0x00000dbc   Number         0  anon$$obj.o(Region$$Table)
    Region$$Table$$Limit                     0x00000ddc   Number         0  anon$$obj.o(Region$$Table)
    flag1                                    0x20000000   Data           4  main.o(.data)
    flag2                                    0x20000004   Data           4  main.o(.data)
    flag3                                    0x20000008   Data           4  main.o(.data)
    tick_flag                                0x2000000c   Data           4  main.o(.data)
    rt_interrupt_from_thread                 0x20000010   Data           4  cpuport.o(.data)
    rt_interrupt_to_thread                   0x20000014   Data           4  cpuport.o(.data)
    rt_thread_switch_interrupt_flag          0x20000018   Data           4  cpuport.o(.data)
    rt_current_thread                        0x2000001c   Data           4  scheduler.o(.data)
    rt_thread_ready_priority_group           0x20000020   Data           4  scheduler.o(.data)
    rt_current_priority                      0x20000024   Data           1  scheduler.o(.data)
    rt_thread_defunct                        0x20000028   Data           8  scheduler.o(.data)
    schedule_flag                            0x20000030   Data           4  scheduler.o(.data)
    rt_idletask_ctr                          0x20000054   Data           4  idle.o(.data)
    rt_interrupt_nest                        0x20000058   Data           1  irq.o(.data)
    SystemCoreClock                          0x2000006c   Data           4  system_armcm3.o(.data)
    rt_flag1_thread                          0x20000070   Data         116  main.o(.bss)
    rt_flag2_thread                          0x200000e4   Data         116  main.o(.bss)
    rt_flag3_thread                          0x20000158   Data         116  main.o(.bss)
    rt_flag1_thread_stack                    0x200001cc   Data         512  main.o(.bss)
    rt_flag2_thread_stack                    0x200003cc   Data         512  main.o(.bss)
    rt_flag3_thread_stack                    0x200005cc   Data         512  main.o(.bss)
    rt_thread_priority_table                 0x200007cc   Data         256  scheduler.o(.bss)
    idle                                     0x20000acc   Data         116  idle.o(.bss)
    __libspace_start                         0x20000b40   Data          96  libspace.o(.bss)
    __temporary_stack_top$libspace           0x20000ba0   Data           0  libspace.o(.bss)



==============================================================================

Memory Map of the image

  Image Entry point : 0x000000c1

  Load Region LR_IROM1 (Base: 0x00000000, Size: 0x00000e4c, Max: 0x00040000, ABSOLUTE)

    Execution Region ER_IROM1 (Base: 0x00000000, Size: 0x00000ddc, Max: 0x00040000, ABSOLUTE)

    Base Addr    Size         Type   Attr      Idx    E Section Name        Object

    0x00000000   0x000000c0   Data   RO          420    RESET               startup_armcm3.o
    0x000000c0   0x00000008   Code   RO          469  * !!!main             c_w.l(__main.o)
    0x000000c8   0x00000034   Code   RO          625    !!!scatter          c_w.l(__scatter.o)
    0x000000fc   0x0000001a   Code   RO          627    !!handler_copy      c_w.l(__scatter_copy.o)
    0x00000116   0x00000002   PAD
    0x00000118   0x0000001c   Code   RO          629    !!handler_zi        c_w.l(__scatter_zi.o)
    0x00000134   0x00000002   Code   RO          496    .ARM.Collect$$libinit$$00000000  c_w.l(libinit.o)
    0x00000136   0x00000000   Code   RO          503    .ARM.Collect$$libinit$$00000002  c_w.l(libinit2.o)
    0x00000136   0x00000000   Code   RO          505    .ARM.Collect$$libinit$$00000004  c_w.l(libinit2.o)
    0x00000136   0x00000000   Code   RO          508    .ARM.Collect$$libinit$$0000000A  c_w.l(libinit2.o)
    0x00000136   0x00000000   Code   RO          510    .ARM.Collect$$libinit$$0000000C  c_w.l(libinit2.o)
    0x00000136   0x00000000   Code   RO          512    .ARM.Collect$$libinit$$0000000E  c_w.l(libinit2.o)
    0x00000136   0x00000000   Code   RO          515    .ARM.Collect$$libinit$$00000011  c_w.l(libinit2.o)
    0x00000136   0x00000000   Code   RO          517    .ARM.Collect$$libinit$$00000013  c_w.l(libinit2.o)
    0x00000136   0x00000000   Code   RO          519    .ARM.Collect$$libinit$$00000015  c_w.l(libinit2.o)
    0x00000136   0x00000000   Code   RO          521    .ARM.Collect$$libinit$$00000017  c_w.l(libinit2.o)
    0x00000136   0x00000000   Code   RO          523    .ARM.Collect$$libinit$$00000019  c_w.l(libinit2.o)
    0x00000136   0x00000000   Code   RO          525    .ARM.Collect$$libinit$$0000001B  c_w.l(libinit2.o)
    0x00000136   0x00000000   Code   RO          527    .ARM.Collect$$libinit$$0000001D  c_w.l(libinit2.o)
    0x00000136   0x00000000   Code   RO          529    .ARM.Collect$$libinit$$0000001F  c_w.l(libinit2.o)
    0x00000136   0x00000000   Code   RO          531    .ARM.Collect$$libinit$$00000021  c_w.l(libinit2.o)
    0x00000136   0x00000000   Code   RO          533    .ARM.Collect$$libinit$$00000023  c_w.l(libinit2.o)
    0x00000136   0x00000000   Code   RO          535    .ARM.Collect$$libinit$$00000025  c_w.l(libinit2.o)
    0x00000136   0x00000000   Code   RO          539    .ARM.Collect$$libinit$$0000002C  c_w.l(libinit2.o)
    0x00000136   0x00000000   Code   RO          541    .ARM.Collect$$libinit$$0000002E  c_w.l(libinit2.o)
    0x00000136   0x00000000   Code   RO          543    .ARM.Collect$$libinit$$00000030  c_w.l(libinit2.o)
    0x00000136   0x00000000   Code   RO          545    .ARM.Collect$$libinit$$00000032  c_w.l(libinit2.o)
    0x00000136   0x00000002   Code   RO          546    .ARM.Collect$$libinit$$00000033  c_w.l(libinit2.o)
    0x00000138   0x00000002   Code   RO          566    .ARM.Collect$$libshutdown$$00000000  c_w.l(libshutdown.o)
    0x0000013a   0x00000000   Code   RO          580    .ARM.Collect$$libshutdown$$00000003  c_w.l(libshutdown2.o)
    0x0000013a   0x00000000   Code   RO          583    .ARM.Collect$$libshutdown$$00000006  c_w.l(libshutdown2.o)
    0x0000013a   0x00000000   Code   RO          586    .ARM.Collect$$libshutdown$$00000009  c_w.l(libshutdown2.o)
    0x0000013a   0x00000000   Code   RO          588    .ARM.Collect$$libshutdown$$0000000B  c_w.l(libshutdown2.o)
    0x0000013a   0x00000000   Code   RO          591    .ARM.Collect$$libshutdown$$0000000E  c_w.l(libshutdown2.o)
    0x0000013a   0x00000002   Code   RO          592    .ARM.Collect$$libshutdown$$0000000F  c_w.l(libshutdown2.o)
    0x0000013c   0x00000000   Code   RO          471    .ARM.Collect$$rtentry$$00000000  c_w.l(__rtentry.o)
    0x0000013c   0x00000000   Code   RO          473    .ARM.Collect$$rtentry$$00000002  c_w.l(__rtentry2.o)
    0x0000013c   0x00000006   Code   RO          485    .ARM.Collect$$rtentry$$00000004  c_w.l(__rtentry4.o)
    0x00000142   0x00000000   Code   RO          475    .ARM.Collect$$rtentry$$00000009  c_w.l(__rtentry2.o)
    0x00000142   0x00000004   Code   RO          476    .ARM.Collect$$rtentry$$0000000A  c_w.l(__rtentry2.o)
    0x00000146   0x00000000   Code   RO          478    .ARM.Collect$$rtentry$$0000000C  c_w.l(__rtentry2.o)
    0x00000146   0x00000008   Code   RO          479    .ARM.Collect$$rtentry$$0000000D  c_w.l(__rtentry2.o)
    0x0000014e   0x00000002   Code   RO          500    .ARM.Collect$$rtexit$$00000000  c_w.l(rtexit.o)
    0x00000150   0x00000000   Code   RO          548    .ARM.Collect$$rtexit$$00000002  c_w.l(rtexit2.o)
    0x00000150   0x00000004   Code   RO          549    .ARM.Collect$$rtexit$$00000003  c_w.l(rtexit2.o)
    0x00000154   0x00000006   Code   RO          550    .ARM.Collect$$rtexit$$00000004  c_w.l(rtexit2.o)
    0x0000015a   0x00000002   PAD
    0x0000015c   0x000000b0   Code   RO          113    .text               context_rvds.o
    0x0000020c   0x00000040   Code   RO          421    .text               startup_armcm3.o
    0x0000024c   0x00000006   Code   RO          467    .text               c_w.l(heapauxi.o)
    0x00000252   0x0000004a   Code   RO          487    .text               c_w.l(sys_stackheap_outer.o)
    0x0000029c   0x0000000c   Code   RO          489    .text               c_w.l(exit.o)
    0x000002a8   0x00000008   Code   RO          497    .text               c_w.l(libspace.o)
    0x000002b0   0x0000000c   Code   RO          558    .text               c_w.l(sys_exit.o)
    0x000002bc   0x00000002   Code   RO          569    .text               c_w.l(use_no_semi.o)
    0x000002be   0x00000000   Code   RO          571    .text               c_w.l(indicate_semi.o)
    0x000002be   0x00000002   PAD
    0x000002c0   0x00000024   Code   RO            4    i.SysTick_Handler   main.o
    0x000002e4   0x00000010   Code   RO          429    i.SystemInit        system_armcm3.o
    0x000002f4   0x0000004c   Code   RO          265    i.__rt_ffs          kservice.o
    0x00000340   0x00000042   Code   RO          351    i._rt_timer_init    timer.o
    0x00000382   0x0000002e   Code   RO          352    i._rt_timer_remove  timer.o
    0x000003b0   0x0000000a   Code   RO            5    i.delay             main.o
    0x000003ba   0x00000002   PAD
    0x000003bc   0x00000020   Code   RO            6    i.flag1_thread_entry  main.o
    0x000003dc   0x00000020   Code   RO            7    i.flag2_thread_entry  main.o
    0x000003fc   0x00000020   Code   RO            8    i.flag3_thread_entry  main.o
    0x0000041c   0x00000130   Code   RO            9    i.main              main.o
    0x0000054c   0x00000040   Code   RO           98    i.rt_hw_stack_init  cpuport.o
    0x0000058c   0x00000020   Code   RO          309    i.rt_interrupt_enter  irq.o
    0x000005ac   0x00000020   Code   RO          310    i.rt_interrupt_leave  irq.o
    0x000005cc   0x00000006   Code   RO          353    i.rt_list_init      timer.o
    0x000005d2   0x0000000e   Code   RO          354    i.rt_list_insert_after  timer.o
    0x000005e0   0x00000012   Code   RO          117    i.rt_list_remove    thread.o
    0x000005f2   0x00000002   PAD
    0x000005f4   0x00000028   Code   RO          231    i.rt_object_get_information  object.o
    0x0000061c   0x00000046   Code   RO          232    i.rt_object_init    object.o
    0x00000662   0x00000002   PAD
    0x00000664   0x00000074   Code   RO          186    i.rt_schedule       scheduler.o
    0x000006d8   0x00000048   Code   RO          187    i.rt_schedule_insert_thread  scheduler.o
    0x00000720   0x00000054   Code   RO          188    i.rt_schedule_remove_thread  scheduler.o
    0x00000774   0x00000034   Code   RO          266    i.rt_strncpy        kservice.o
    0x000007a8   0x0000003c   Code   RO          189    i.rt_system_scheduler_init  scheduler.o
    0x000007e4   0x00000030   Code   RO          190    i.rt_system_scheduler_start  scheduler.o
    0x00000814   0x0000001c   Code   RO          355    i.rt_system_timer_init  timer.o
    0x00000830   0x0000000c   Code   RO          118    i.rt_thread_delay   thread.o
    0x0000083c   0x00000014   Code   RO          286    i.rt_thread_idle_entry  idle.o
    0x00000850   0x0000003c   Code   RO          287    i.rt_thread_idle_init  idle.o
    0x0000088c   0x0000007c   Code   RO          119    i.rt_thread_init    thread.o
    0x00000908   0x00000034   Code   RO          120    i.rt_thread_resume  thread.o
    0x0000093c   0x0000000c   Code   RO          121    i.rt_thread_self    thread.o
    0x00000948   0x00000038   Code   RO          122    i.rt_thread_sleep   thread.o
    0x00000980   0x0000002c   Code   RO          123    i.rt_thread_startup  thread.o
    0x000009ac   0x0000003a   Code   RO          124    i.rt_thread_suspend  thread.o
    0x000009e6   0x00000020   Code   RO          125    i.rt_thread_timeout  thread.o
    0x00000a06   0x00000002   PAD
    0x00000a08   0x00000064   Code   RO          126    i.rt_thread_yield   thread.o
    0x00000a6c   0x0000000c   Code   RO          330    i.rt_tick_get       clock.o
    0x00000a78   0x00000030   Code   RO          331    i.rt_tick_increase  clock.o
    0x00000aa8   0x00000084   Code   RO          356    i.rt_timer_check    timer.o
    0x00000b2c   0x00000038   Code   RO          357    i.rt_timer_control  timer.o
    0x00000b64   0x0000002e   Code   RO          358    i.rt_timer_init     timer.o
    0x00000b92   0x00000002   PAD
    0x00000b94   0x000000f8   Code   RO          359    i.rt_timer_start    timer.o
    0x00000c8c   0x00000030   Code   RO          360    i.rt_timer_stop     timer.o
    0x00000cbc   0x00000100   Data   RO          267    .constdata          kservice.o
    0x00000dbc   0x00000020   Data   RO          623    Region$$Table       anon$$obj.o


    Execution Region RW_IRAM1 (Base: 0x20000000, Size: 0x00001ba0, Max: 0x00020000, ABSOLUTE)

    Base Addr    Size         Type   Attr      Idx    E Section Name        Object

    0x20000000   0x00000010   Data   RW           11    .data               main.o
    0x20000010   0x0000000c   Data   RW           99    .data               cpuport.o
    0x2000001c   0x00000018   Data   RW          192    .data               scheduler.o
    0x20000034   0x00000020   Data   RW          234    .data               object.o
    0x20000054   0x00000004   Data   RW          289    .data               idle.o
    0x20000058   0x00000001   Data   RW          311    .data               irq.o
    0x20000059   0x00000003   PAD
    0x2000005c   0x00000004   Data   RW          332    .data               clock.o
    0x20000060   0x0000000c   Data   RW          361    .data               timer.o
    0x2000006c   0x00000004   Data   RW          430    .data               system_armcm3.o
    0x20000070   0x0000075c   Zero   RW           10    .bss                main.o
    0x200007cc   0x00000100   Zero   RW          191    .bss                scheduler.o
    0x200008cc   0x00000274   Zero   RW          288    .bss                idle.o
    0x20000b40   0x00000060   Zero   RW          498    .bss                c_w.l(libspace.o)
    0x20000ba0   0x00000c00   Zero   RW          419    HEAP                startup_armcm3.o
    0x200017a0   0x00000400   Zero   RW          418    STACK               startup_armcm3.o


==============================================================================

Image component sizes


      Code (inc. data)   RO Data    RW Data    ZI Data      Debug   Object Name

        60         12          0          4          0       1097   clock.o
       176         22          0          0          0        644   context_rvds.o
        64          6          0         12          0       1777   cpuport.o
        80         26          0          4        628       1611   idle.o
        64         12          0          1          0       1454   irq.o
       128          6        256          0          0       1810   kservice.o
       446        114          0         16       1884      38158   main.o
       110          4          0         32          0       2749   object.o
       380         66          0         24        256       4864   scheduler.o
        64         26        192          0       4096        828   startup_armcm3.o
        16          8          0          4          0        639   system_armcm3.o
       508         22          0          0          0       6535   thread.o
       690         18          0         12          0       7228   timer.o

    ----------------------------------------------------------------------
      2796        342        480        112       6864      69394   Object Totals
         0          0         32          0          0          0   (incl. Generated)
        10          0          0          3          0          0   (incl. Padding)

    ----------------------------------------------------------------------

      Code (inc. data)   RO Data    RW Data    ZI Data      Debug   Library Member Name

         8          0          0          0          0         68   __main.o
         0          0          0          0          0          0   __rtentry.o
        12          0          0          0          0          0   __rtentry2.o
         6          0          0          0          0          0   __rtentry4.o
        52          8          0          0          0          0   __scatter.o
        26          0          0          0          0          0   __scatter_copy.o
        28          0          0          0          0          0   __scatter_zi.o
        12          0          0          0          0         72   exit.o
         6          0          0          0          0        152   heapauxi.o
         0          0          0          0          0          0   indicate_semi.o
         2          0          0          0          0          0   libinit.o
         2          0          0          0          0          0   libinit2.o
         2          0          0          0          0          0   libshutdown.o
         2          0          0          0          0          0   libshutdown2.o
         8          4          0          0         96         68   libspace.o
         2          0          0          0          0          0   rtexit.o
        10          0          0          0          0          0   rtexit2.o
        12          4          0          0          0         68   sys_exit.o
        74          0          0          0          0         80   sys_stackheap_outer.o
         2          0          0          0          0         68   use_no_semi.o

    ----------------------------------------------------------------------
       272         16          0          0         96        576   Library Totals
         6          0          0          0          0          0   (incl. Padding)

    ----------------------------------------------------------------------

      Code (inc. data)   RO Data    RW Data    ZI Data      Debug   Library Name

       266         16          0          0         96        576   c_w.l

    ----------------------------------------------------------------------
       272         16          0          0         96        576   Library Totals

    ----------------------------------------------------------------------

==============================================================================


      Code (inc. data)   RO Data    RW Data    ZI Data      Debug   

      3068        358        480        112       6960      67730   Grand Totals
      3068        358        480        112       6960      67730   ELF Image Totals
      3068        358        480        112          0          0   ROM Totals

==============================================================================

    Total RO  Size (Code + RO Data)                 3548 (   3.46kB)
    Total RW  Size (RW Data + ZI Data)              7072 (   6.91kB)
    Total ROM Size (Code + RO Data + RW Data)       3660 (   3.57kB)

==============================================================================

