Component: ARM Compiler 5.05 update 1 (build 106) Tool: armlink [4d0efa]

==============================================================================

Section Cross References

    main.o(.text) refers to pin.o(.text) for rt_pin_mode
    main.o(.text) refers to kservice.o(.text) for rt_kprintf
    main.o(.text) refers to thread.o(.text) for rt_thread_mdelay
    main.o(FSymTab) refers to main.o(.rodata.name) for __fsym___cmd_led_name
    main.o(FSymTab) refers to main.o(.text) for led
    board.o(.text) refers to stm32f1xx_hal_cortex.o(.text) for HAL_NVIC_SetPriorityGrouping
    board.o(.text) refers to stm32f1xx_hal_rcc.o(.text) for HAL_RCC_OscConfig
    board.o(.text) refers to kservice.o(.text) for rt_assert_handler
    board.o(.text) refers to irq.o(.text) for rt_interrupt_enter
    board.o(.text) refers to stm32f1xx_hal.o(.text) for HAL_IncTick
    board.o(.text) refers to clock.o(.text) for rt_tick_increase
    board.o(.text) refers to mem.o(.text) for rt_system_heap_init
    board.o(.text) refers to components.o(.text) for rt_components_board_init
    board.o(.text) refers to board.o(.constdata) for __FUNCTION__
    board.o(.text) refers to board.o(.conststring) for .conststring
    drv_gpio.o(.text) refers to stm32f1xx_hal_gpio.o(.text) for HAL_GPIO_WritePin
    drv_gpio.o(.text) refers to context_rvds.o(.text) for rt_hw_interrupt_disable
    drv_gpio.o(.text) refers to stm32f1xx_hal_cortex.o(.text) for HAL_NVIC_SetPriority
==============================================================================

Removing Unused input sections from the image.

    Removing board.o(.rev16_text), (4 bytes).
    Removing board.o(.revsh_text), (4 bytes).
    Removing board.o(.rrx_text), (6 bytes).
    Removing stm32f1xx_it.o(.rev16_text), (4 bytes).
    Removing stm32f1xx_it.o(.revsh_text), (4 bytes).
    Removing stm32f1xx_it.o(.rrx_text), (6 bytes).
    Removing drv_gpio.o(.rev16_text), (4 bytes).
    Removing drv_gpio.o(.revsh_text), (4 bytes).
    Removing drv_gpio.o(.rrx_text), (6 bytes).
    Removing drv_usart.o(.rev16_text), (4 bytes).
    Removing drv_usart.o(.revsh_text), (4 bytes).
    Removing drv_usart.o(.rrx_text), (6 bytes).
    Removing system_stm32f1xx.o(.rev16_text), (4 bytes).
    Removing system_stm32f1xx.o(.revsh_text), (4 bytes).
    Removing system_stm32f1xx.o(.rrx_text), (6 bytes).
    Removing stm32f1xx_hal_adc.o(.rev16_text), (4 bytes).
    Removing stm32f1xx_hal_adc.o(.revsh_text), (4 bytes).
    Removing stm32f1xx_hal_adc.o(.rrx_text), (6 bytes).
==============================================================================

Image Symbol Table

    Local Symbols

    Symbol Name                              Value     Ov Type        Size  Object(Section)

    ../clib/../cmprslib/zerorunl2.c          0x00000000   Number         0  __dczerorl2.o ABSOLUTE
    ../clib/microlib/init/entry.s            0x00000000   Number         0  entry10b.o ABSOLUTE
    ../clib/microlib/init/entry.s            0x00000000   Number         0  entry9b.o ABSOLUTE
    ../clib/microlib/init/entry.s            0x00000000   Number         0  entry11a.o ABSOLUTE
    ../clib/microlib/init/entry.s            0x00000000   Number         0  entry11b.o ABSOLUTE
    ../clib/microlib/init/entry.s            0x00000000   Number         0  entry9a.o ABSOLUTE
    ../clib/microlib/init/entry.s            0x00000000   Number         0  entry8b.o ABSOLUTE
    ../clib/microlib/init/entry.s            0x00000000   Number         0  entry.o ABSOLUTE
    ../clib/microlib/init/entry.s            0x00000000   Number         0  entry2.o ABSOLUTE
    ../clib/microlib/init/entry.s            0x00000000   Number         0  entry8a.o ABSOLUTE
    ../clib/microlib/init/entry.s            0x00000000   Number         0  entry7b.o ABSOLUTE
    ../clib/microlib/init/entry.s            0x00000000   Number         0  entry7a.o ABSOLUTE
    ../clib/microlib/init/entry.s            0x00000000   Number         0  entry5.o ABSOLUTE
    ../clib/microlib/init/entry.s            0x00000000   Number         0  entry10a.o ABSOLUTE
    ../clib/microlib/longlong.c              0x00000000   Number         0  llushr.o ABSOLUTE
    ../clib/microlib/string/memcmp.c         0x00000000   Number         0  memcmp.o ABSOLUTE
    ../clib/microlib/string/memcpy.c         0x00000000   Number         0  memcpyb.o ABSOLUTE
    ../clib/microlib/string/memcpy.c         0x00000000   Number         0  memcpya.o ABSOLUTE
    ../clib/microlib/string/memset.c         0x00000000   Number         0  memseta.o ABSOLUTE
    ../clib/microlib/string/strcat.c         0x00000000   Number         0  strcat.o ABSOLUTE
    ../clib/microlib/string/strcpy.c         0x00000000   Number         0  strcpy.o ABSOLUTE
    ../clib/microlib/string/strlen.c         0x00000000   Number         0  strlen.o ABSOLUTE
    ../clib/microlib/string/strncmp.c        0x00000000   Number         0  strncmp.o ABSOLUTE
    Libraries\CMSIS\Device\ST\STM32F1xx\Source\Templates\arm\startup_stm32f103xe.s 0x00000000   Number         0  startup_stm32f103xe.o ABSOLUTE
    Libraries\CMSIS\Device\ST\STM32F1xx\Source\Templates\system_stm32f1xx.c 0x00000000   Number         0  system_stm32f1xx.o ABSOLUTE
    Libraries\STM32F1xx_HAL_Driver\Src\stm32f1xx_hal.c 0x00000000   Number         0  stm32f1xx_hal.o ABSOLUTE
    Libraries\STM32F1xx_HAL_Driver\Src\stm32f1xx_hal_adc.c 0x00000000   Number         0  stm32f1xx_hal_adc.o ABSOLUTE
    Libraries\STM32F1xx_HAL_Driver\Src\stm32f1xx_hal_adc_ex.c 0x00000000   Number         0  stm32f1xx_hal_adc_ex.o ABSOLUTE
    Libraries\STM32F1xx_HAL_Driver\Src\stm32f1xx_hal_can.c 0x00000000   Number         0  stm32f1xx_hal_can.o ABSOLUTE
    Libraries\STM32F1xx_HAL_Driver\Src\stm32f1xx_hal_cortex.c 0x00000000   Number         0  stm32f1xx_hal_cortex.o ABSOLUTE
    Libraries\STM32F1xx_HAL_Driver\Src\stm32f1xx_hal_crc.c 0x00000000   Number         0  stm32f1xx_hal_crc.o ABSOLUTE
    Libraries\STM32F1xx_HAL_Driver\Src\stm32f1xx_hal_dac.c 0x00000000   Number         0  stm32f1xx_hal_dac.o ABSOLUTE
    Libraries\STM32F1xx_HAL_Driver\Src\stm32f1xx_hal_dac_ex.c 0x00000000   Number         0  stm32f1xx_hal_dac_ex.o ABSOLUTE
    Libraries\STM32F1xx_HAL_Driver\Src\stm32f1xx_hal_dma.c 0x00000000   Number         0  stm32f1xx_hal_dma.o ABSOLUTE
    Libraries\STM32F1xx_HAL_Driver\Src\stm32f1xx_hal_flash.c 0x00000000   Number         0  stm32f1xx_hal_flash.o ABSOLUTE
    Libraries\STM32F1xx_HAL_Driver\Src\stm32f1xx_hal_flash_ex.c 0x00000000   Number         0  stm32f1xx_hal_flash_ex.o ABSOLUTE
    Libraries\STM32F1xx_HAL_Driver\Src\stm32f1xx_hal_gpio.c 0x00000000   Number         0  stm32f1xx_hal_gpio.o ABSOLUTE
    Libraries\STM32F1xx_HAL_Driver\Src\stm32f1xx_hal_gpio_ex.c 0x00000000   Number         0  stm32f1xx_hal_gpio_ex.o ABSOLUTE
    Libraries\STM32F1xx_HAL_Driver\Src\stm32f1xx_hal_i2c.c 0x00000000   Number         0  stm32f1xx_hal_i2c.o ABSOLUTE
    Libraries\STM32F1xx_HAL_Driver\Src\stm32f1xx_hal_i2s.c 0x00000000   Number         0  stm32f1xx_hal_i2s.o ABSOLUTE
    Libraries\STM32F1xx_HAL_Driver\Src\stm32f1xx_hal_irda.c 0x00000000   Number         0  stm32f1xx_hal_irda.o ABSOLUTE
    Libraries\STM32F1xx_HAL_Driver\Src\stm32f1xx_hal_iwdg.c 0x00000000   Number         0  stm32f1xx_hal_iwdg.o ABSOLUTE
    Libraries\STM32F1xx_HAL_Driver\Src\stm32f1xx_hal_mmc.c 0x00000000   Number         0  stm32f1xx_hal_mmc.o ABSOLUTE
    Libraries\STM32F1xx_HAL_Driver\Src\stm32f1xx_hal_nand.c 0x00000000   Number         0  stm32f1xx_hal_nand.o ABSOLUTE
    Libraries\STM32F1xx_HAL_Driver\Src\stm32f1xx_hal_nor.c 0x00000000   Number         0  stm32f1xx_hal_nor.o ABSOLUTE
    Libraries\STM32F1xx_HAL_Driver\Src\stm32f1xx_hal_pccard.c 0x00000000   Number         0  stm32f1xx_hal_pccard.o ABSOLUTE
    Libraries\STM32F1xx_HAL_Driver\Src\stm32f1xx_hal_pcd.c 0x00000000   Number         0  stm32f1xx_hal_pcd.o ABSOLUTE
    Libraries\STM32F1xx_HAL_Driver\Src\stm32f1xx_hal_pcd_ex.c 0x00000000   Number         0  stm32f1xx_hal_pcd_ex.o ABSOLUTE
    Libraries\STM32F1xx_HAL_Driver\Src\stm32f1xx_hal_pwr.c 0x00000000   Number         0  stm32f1xx_hal_pwr.o ABSOLUTE
    Libraries\STM32F1xx_HAL_Driver\Src\stm32f1xx_hal_rcc.c 0x00000000   Number         0  stm32f1xx_hal_rcc.o ABSOLUTE
    Libraries\STM32F1xx_HAL_Driver\Src\stm32f1xx_hal_rcc_ex.c 0x00000000   Number         0  stm32f1xx_hal_rcc_ex.o ABSOLUTE
    Libraries\STM32F1xx_HAL_Driver\Src\stm32f1xx_hal_rtc.c 0x00000000   Number         0  stm32f1xx_hal_rtc.o ABSOLUTE
    Libraries\STM32F1xx_HAL_Driver\Src\stm32f1xx_hal_rtc_ex.c 0x00000000   Number         0  stm32f1xx_hal_rtc_ex.o ABSOLUTE
    Libraries\STM32F1xx_HAL_Driver\Src\stm32f1xx_hal_sd.c 0x00000000   Number         0  stm32f1xx_hal_sd.o ABSOLUTE
    Libraries\STM32F1xx_HAL_Driver\Src\stm32f1xx_hal_smartcard.c 0x00000000   Number         0  stm32f1xx_hal_smartcard.o ABSOLUTE
    Libraries\STM32F1xx_HAL_Driver\Src\stm32f1xx_hal_spi.c 0x00000000   Number         0  stm32f1xx_hal_spi.o ABSOLUTE
    Libraries\STM32F1xx_HAL_Driver\Src\stm32f1xx_hal_spi_ex.c 0x00000000   Number         0  stm32f1xx_hal_spi_ex.o ABSOLUTE
    Libraries\STM32F1xx_HAL_Driver\Src\stm32f1xx_hal_sram.c 0x00000000   Number         0  stm32f1xx_hal_sram.o ABSOLUTE
    Libraries\STM32F1xx_HAL_Driver\Src\stm32f1xx_hal_tim.c 0x00000000   Number         0  stm32f1xx_hal_tim.o ABSOLUTE
    Libraries\STM32F1xx_HAL_Driver\Src\stm32f1xx_hal_tim_ex.c 0x00000000   Number         0  stm32f1xx_hal_tim_ex.o ABSOLUTE
    Libraries\STM32F1xx_HAL_Driver\Src\stm32f1xx_hal_uart.c 0x00000000   Number         0  stm32f1xx_hal_uart.o ABSOLUTE
    Libraries\STM32F1xx_HAL_Driver\Src\stm32f1xx_hal_usart.c 0x00000000   Number         0  stm32f1xx_hal_usart.o ABSOLUTE
    Libraries\STM32F1xx_HAL_Driver\Src\stm32f1xx_hal_wwdg.c 0x00000000   Number         0  stm32f1xx_hal_wwdg.o ABSOLUTE
    Libraries\STM32F1xx_HAL_Driver\Src\stm32f1xx_ll_adc.c 0x00000000   Number         0  stm32f1xx_ll_adc.o ABSOLUTE
    Libraries\STM32F1xx_HAL_Driver\Src\stm32f1xx_ll_crc.c 0x00000000   Number         0  stm32f1xx_ll_crc.o ABSOLUTE
    Libraries\STM32F1xx_HAL_Driver\Src\stm32f1xx_ll_dac.c 0x00000000   Number         0  stm32f1xx_ll_dac.o ABSOLUTE
    Libraries\STM32F1xx_HAL_Driver\Src\stm32f1xx_ll_dma.c 0x00000000   Number         0  stm32f1xx_ll_dma.o ABSOLUTE
    Libraries\STM32F1xx_HAL_Driver\Src\stm32f1xx_ll_exti.c 0x00000000   Number         0  stm32f1xx_ll_exti.o ABSOLUTE
    Libraries\STM32F1xx_HAL_Driver\Src\stm32f1xx_ll_fsmc.c 0x00000000   Number         0  stm32f1xx_ll_fsmc.o ABSOLUTE
    Libraries\STM32F1xx_HAL_Driver\Src\stm32f1xx_ll_gpio.c 0x00000000   Number         0  stm32f1xx_ll_gpio.o ABSOLUTE
    Libraries\STM32F1xx_HAL_Driver\Src\stm32f1xx_ll_i2c.c 0x00000000   Number         0  stm32f1xx_ll_i2c.o ABSOLUTE
    Libraries\STM32F1xx_HAL_Driver\Src\stm32f1xx_ll_pwr.c 0x00000000   Number         0  stm32f1xx_ll_pwr.o ABSOLUTE
    Libraries\STM32F1xx_HAL_Driver\Src\stm32f1xx_ll_rcc.c 0x00000000   Number         0  stm32f1xx_ll_rcc.o ABSOLUTE
    Libraries\STM32F1xx_HAL_Driver\Src\stm32f1xx_ll_rtc.c 0x00000000   Number         0  stm32f1xx_ll_rtc.o ABSOLUTE
    Libraries\STM32F1xx_HAL_Driver\Src\stm32f1xx_ll_sdmmc.c 0x00000000   Number         0  stm32f1xx_ll_sdmmc.o ABSOLUTE
    Libraries\STM32F1xx_HAL_Driver\Src\stm32f1xx_ll_spi.c 0x00000000   Number         0  stm32f1xx_ll_spi.o ABSOLUTE
    Libraries\STM32F1xx_HAL_Driver\Src\stm32f1xx_ll_tim.c 0x00000000   Number         0  stm32f1xx_ll_tim.o ABSOLUTE
    Libraries\STM32F1xx_HAL_Driver\Src\stm32f1xx_ll_usart.c 0x00000000   Number         0  stm32f1xx_ll_usart.o ABSOLUTE
    Libraries\STM32F1xx_HAL_Driver\Src\stm32f1xx_ll_usb.c 0x00000000   Number         0  stm32f1xx_ll_usb.o ABSOLUTE
    Libraries\STM32F1xx_HAL_Driver\Src\stm32f1xx_ll_utils.c 0x00000000   Number         0  stm32f1xx_ll_utils.o ABSOLUTE
    Libraries\\CMSIS\\Device\\ST\\STM32F1xx\\Source\\Templates\\system_stm32f1xx.c 0x00000000   Number         0  system_stm32f1xx.o ABSOLUTE
    Libraries\\STM32F1xx_HAL_Driver\\Src\\stm32f1xx_hal.c 0x00000000   Number         0  stm32f1xx_hal.o ABSOLUTE
    Libraries\\STM32F1xx_HAL_Driver\\Src\\stm32f1xx_hal_adc.c 0x00000000   Number         0  stm32f1xx_hal_adc.o ABSOLUTE
    Libraries\\STM32F1xx_HAL_Driver\\Src\\stm32f1xx_hal_adc_ex.c 0x00000000   Number         0  stm32f1xx_hal_adc_ex.o ABSOLUTE
    Libraries\\STM32F1xx_HAL_Driver\\Src\\stm32f1xx_hal_can.c 0x00000000   Number         0  stm32f1xx_hal_can.o ABSOLUTE
    Libraries\\STM32F1xx_HAL_Driver\\Src\\stm32f1xx_hal_cortex.c 0x00000000   Number         0  stm32f1xx_hal_cortex.o ABSOLUTE
    Libraries\\STM32F1xx_HAL_Driver\\Src\\stm32f1xx_hal_crc.c 0x00000000   Number         0  stm32f1xx_hal_crc.o ABSOLUTE
    Libraries\\STM32F1xx_HAL_Driver\\Src\\stm32f1xx_hal_dac.c 0x00000000   Number         0  stm32f1xx_hal_dac.o ABSOLUTE
    Libraries\\STM32F1xx_HAL_Driver\\Src\\stm32f1xx_hal_dac_ex.c 0x00000000   Number         0  stm32f1xx_hal_dac_ex.o ABSOLUTE
    Libraries\\STM32F1xx_HAL_Driver\\Src\\stm32f1xx_hal_dma.c 0x00000000   Number         0  stm32f1xx_hal_dma.o ABSOLUTE
    Libraries\\STM32F1xx_HAL_Driver\\Src\\stm32f1xx_hal_flash.c 0x00000000   Number         0  stm32f1xx_hal_flash.o ABSOLUTE
    Libraries\\STM32F1xx_HAL_Driver\\Src\\stm32f1xx_hal_flash_ex.c 0x00000000   Number         0  stm32f1xx_hal_flash_ex.o ABSOLUTE
    Libraries\\STM32F1xx_HAL_Driver\\Src\\stm32f1xx_hal_gpio.c 0x00000000   Number         0  stm32f1xx_hal_gpio.o ABSOLUTE
    Libraries\\STM32F1xx_HAL_Driver\\Src\\stm32f1xx_hal_gpio_ex.c 0x00000000   Number         0  stm32f1xx_hal_gpio_ex.o ABSOLUTE
    Libraries\\STM32F1xx_HAL_Driver\\Src\\stm32f1xx_hal_i2c.c 0x00000000   Number         0  stm32f1xx_hal_i2c.o ABSOLUTE
    Libraries\\STM32F1xx_HAL_Driver\\Src\\stm32f1xx_hal_i2s.c 0x00000000   Number         0  stm32f1xx_hal_i2s.o ABSOLUTE
    Libraries\\STM32F1xx_HAL_Driver\\Src\\stm32f1xx_hal_irda.c 0x00000000   Number         0  stm32f1xx_hal_irda.o ABSOLUTE
    Libraries\\STM32F1xx_HAL_Driver\\Src\\stm32f1xx_hal_iwdg.c 0x00000000   Number         0  stm32f1xx_hal_iwdg.o ABSOLUTE
    Libraries\\STM32F1xx_HAL_Driver\\Src\\stm32f1xx_hal_mmc.c 0x00000000   Number         0  stm32f1xx_hal_mmc.o ABSOLUTE
    Libraries\\STM32F1xx_HAL_Driver\\Src\\stm32f1xx_hal_nand.c 0x00000000   Number         0  stm32f1xx_hal_nand.o ABSOLUTE
    Libraries\\STM32F1xx_HAL_Driver\\Src\\stm32f1xx_hal_nor.c 0x00000000   Number         0  stm32f1xx_hal_nor.o ABSOLUTE
    Libraries\\STM32F1xx_HAL_Driver\\Src\\stm32f1xx_hal_pccard.c 0x00000000   Number         0  stm32f1xx_hal_pccard.o ABSOLUTE
    Libraries\\STM32F1xx_HAL_Driver\\Src\\stm32f1xx_hal_pcd.c 0x00000000   Number         0  stm32f1xx_hal_pcd.o ABSOLUTE
    Libraries\\STM32F1xx_HAL_Driver\\Src\\stm32f1xx_hal_pcd_ex.c 0x00000000   Number         0  stm32f1xx_hal_pcd_ex.o ABSOLUTE
    Libraries\\STM32F1xx_HAL_Driver\\Src\\stm32f1xx_hal_pwr.c 0x00000000   Number         0  stm32f1xx_hal_pwr.o ABSOLUTE
    Libraries\\STM32F1xx_HAL_Driver\\Src\\stm32f1xx_hal_rcc.c 0x00000000   Number         0  stm32f1xx_hal_rcc.o ABSOLUTE
    Libraries\\STM32F1xx_HAL_Driver\\Src\\stm32f1xx_hal_rcc_ex.c 0x00000000   Number         0  stm32f1xx_hal_rcc_ex.o ABSOLUTE
    Libraries\\STM32F1xx_HAL_Driver\\Src\\stm32f1xx_hal_rtc.c 0x00000000   Number         0  stm32f1xx_hal_rtc.o ABSOLUTE
    Libraries\\STM32F1xx_HAL_Driver\\Src\\stm32f1xx_hal_rtc_ex.c 0x00000000   Number         0  stm32f1xx_hal_rtc_ex.o ABSOLUTE
    Libraries\\STM32F1xx_HAL_Driver\\Src\\stm32f1xx_hal_sd.c 0x00000000   Number         0  stm32f1xx_hal_sd.o ABSOLUTE
    Libraries\\STM32F1xx_HAL_Driver\\Src\\stm32f1xx_hal_smartcard.c 0x00000000   Number         0  stm32f1xx_hal_smartcard.o ABSOLUTE
    Libraries\\STM32F1xx_HAL_Driver\\Src\\stm32f1xx_hal_spi.c 0x00000000   Number         0  stm32f1xx_hal_spi.o ABSOLUTE
    Libraries\\STM32F1xx_HAL_Driver\\Src\\stm32f1xx_hal_spi_ex.c 0x00000000   Number         0  stm32f1xx_hal_spi_ex.o ABSOLUTE
    Libraries\\STM32F1xx_HAL_Driver\\Src\\stm32f1xx_hal_sram.c 0x00000000   Number         0  stm32f1xx_hal_sram.o ABSOLUTE
    Libraries\\STM32F1xx_HAL_Driver\\Src\\stm32f1xx_hal_tim.c 0x00000000   Number         0  stm32f1xx_hal_tim.o ABSOLUTE
    Libraries\\STM32F1xx_HAL_Driver\\Src\\stm32f1xx_hal_tim_ex.c 0x00000000   Number         0  stm32f1xx_hal_tim_ex.o ABSOLUTE
    Libraries\\STM32F1xx_HAL_Driver\\Src\\stm32f1xx_hal_uart.c 0x00000000   Number         0  stm32f1xx_hal_uart.o ABSOLUTE
    Libraries\\STM32F1xx_HAL_Driver\\Src\\stm32f1xx_hal_usart.c 0x00000000   Number         0  stm32f1xx_hal_usart.o ABSOLUTE
    Libraries\\STM32F1xx_HAL_Driver\\Src\\stm32f1xx_hal_wwdg.c 0x00000000   Number         0  stm32f1xx_hal_wwdg.o ABSOLUTE
    Libraries\\STM32F1xx_HAL_Driver\\Src\\stm32f1xx_ll_fsmc.c 0x00000000   Number         0  stm32f1xx_ll_fsmc.o ABSOLUTE
    Libraries\\STM32F1xx_HAL_Driver\\Src\\stm32f1xx_ll_sdmmc.c 0x00000000   Number         0  stm32f1xx_ll_sdmmc.o ABSOLUTE
    Libraries\\STM32F1xx_HAL_Driver\\Src\\stm32f1xx_ll_usb.c 0x00000000   Number         0  stm32f1xx_ll_usb.o ABSOLUTE
    Libraries\\STM32F1xx_HAL_Driver\\Src\\stm32f1xx_ll_utils.c 0x00000000   Number         0  stm32f1xx_ll_utils.o ABSOLUTE
    applications\main.c                      0x00000000   Number         0  main.o ABSOLUTE
    dc.s                                     0x00000000   Number         0  dc.o ABSOLUTE
    drivers\\board.c                         0x00000000   Number         0  board.o ABSOLUTE
    drivers\\drv_gpio.c                      0x00000000   Number         0  drv_gpio.o ABSOLUTE
    drivers\\drv_usart.c                     0x00000000   Number         0  drv_usart.o ABSOLUTE
    drivers\\stm32f1xx_it.c                  0x00000000   Number         0  stm32f1xx_it.o ABSOLUTE
    drivers\board.c                          0x00000000   Number         0  board.o ABSOLUTE
    drivers\drv_gpio.c                       0x00000000   Number         0  drv_gpio.o ABSOLUTE
    drivers\drv_usart.c                      0x00000000   Number         0  drv_usart.o ABSOLUTE
    drivers\stm32f1xx_it.c                   0x00000000   Number         0  stm32f1xx_it.o ABSOLUTE
    handlers.s                               0x00000000   Number         0  handlers.o ABSOLUTE
    init.s                                   0x00000000   Number         0  init.o ABSOLUTE
    kernel-sample-0.1.0\dynmem_sample.c      0x00000000   Number         0  dynmem_sample.o ABSOLUTE
    kernel-sample-0.1.0\event_sample.c       0x00000000   Number         0  event_sample.o ABSOLUTE
    kernel-sample-0.1.0\idlehook_sample.c    0x00000000   Number         0  idlehook_sample.o ABSOLUTE
    kernel-sample-0.1.0\interrupt_sample.c   0x00000000   Number         0  interrupt_sample.o ABSOLUTE
    kernel-sample-0.1.0\mailbox_sample.c     0x00000000   Number         0  mailbox_sample.o ABSOLUTE
    kernel-sample-0.1.0\memp_sample.c        0x00000000   Number         0  memp_sample.o ABSOLUTE
    kernel-sample-0.1.0\msgq_sample.c        0x00000000   Number         0  msgq_sample.o ABSOLUTE
    kernel-sample-0.1.0\mutex_sample.c       0x00000000   Number         0  mutex_sample.o ABSOLUTE
    kernel-sample-0.1.0\priority_inversion.c 0x00000000   Number         0  priority_inversion.o ABSOLUTE
    kernel-sample-0.1.0\producer_consumer.c  0x00000000   Number         0  producer_consumer.o ABSOLUTE
    kernel-sample-0.1.0\scheduler_hook.c     0x00000000   Number         0  scheduler_hook.o ABSOLUTE
    kernel-sample-0.1.0\semaphore_sample.c   0x00000000   Number         0  semaphore_sample.o ABSOLUTE
    kernel-sample-0.1.0\signal_sample.c      0x00000000   Number         0  signal_sample.o ABSOLUTE
    kernel-sample-0.1.0\thread_sample.c      0x00000000   Number         0  thread_sample.o ABSOLUTE
    kernel-sample-0.1.0\timer_sample.c       0x00000000   Number         0  timer_sample.o ABSOLUTE
    kernel-sample-0.1.0\timeslice_sample.c   0x00000000   Number         0  timeslice_sample.o ABSOLUTE
    rt-thread\components\drivers\misc\pin.c  0x00000000   Number         0  pin.o ABSOLUTE
    rt-thread\components\drivers\serial\serial.c 0x00000000   Number         0  serial.o ABSOLUTE
    rt-thread\components\finsh\cmd.c         0x00000000   Number         0  cmd.o ABSOLUTE
    rt-thread\components\finsh\msh.c         0x00000000   Number         0  msh.o ABSOLUTE
    rt-thread\components\finsh\msh_cmd.c     0x00000000   Number         0  msh_cmd.o ABSOLUTE
    rt-thread\components\finsh\msh_file.c    0x00000000   Number         0  msh_file.o ABSOLUTE
    rt-thread\components\finsh\shell.c       0x00000000   Number         0  shell.o ABSOLUTE
    rt-thread\components\finsh\symbol.c      0x00000000   Number         0  symbol.o ABSOLUTE
    rt-thread\libcpu\arm\cortex-m3\context_rvds.S 0x00000000   Number         0  context_rvds.o ABSOLUTE
    rt-thread\libcpu\arm\cortex-m3\cpuport.c 0x00000000   Number         0  cpuport.o ABSOLUTE
    rt-thread\src\clock.c                    0x00000000   Number         0  clock.o ABSOLUTE
    rt-thread\src\components.c               0x00000000   Number         0  components.o ABSOLUTE
    rt-thread\src\device.c                   0x00000000   Number         0  device.o ABSOLUTE
    rt-thread\src\idle.c                     0x00000000   Number         0  idle.o ABSOLUTE
    rt-thread\src\ipc.c                      0x00000000   Number         0  ipc.o ABSOLUTE
    rt-thread\src\irq.c                      0x00000000   Number         0  irq.o ABSOLUTE
    rt-thread\src\kservice.c                 0x00000000   Number         0  kservice.o ABSOLUTE
    rt-thread\src\mem.c                      0x00000000   Number         0  mem.o ABSOLUTE
    rt-thread\src\memheap.c                  0x00000000   Number         0  memheap.o ABSOLUTE
    rt-thread\src\mempool.c                  0x00000000   Number         0  mempool.o ABSOLUTE
    rt-thread\src\object.c                   0x00000000   Number         0  object.o ABSOLUTE
    rt-thread\src\scheduler.c                0x00000000   Number         0  scheduler.o ABSOLUTE
    rt-thread\src\signal.c                   0x00000000   Number         0  signal.o ABSOLUTE
    rt-thread\src\thread.c                   0x00000000   Number         0  thread.o ABSOLUTE
    rt-thread\src\timer.c                    0x00000000   Number         0  timer.o ABSOLUTE
    RESET                                    0x08000000   Section      304  startup_stm32f103xe.o(RESET)
    .ARM.Collect$$$$00000000                 0x08000130   Section        0  entry.o(.ARM.Collect$$$$00000000)
    .ARM.Collect$$$$00000001                 0x08000130   Section        4  entry2.o(.ARM.Collect$$$$00000001)
    .ARM.Collect$$$$00000004                 0x08000134   Section        4  entry5.o(.ARM.Collect$$$$00000004)
    .ARM.Collect$$$$00000008                 0x08000138   Section        0  entry7b.o(.ARM.Collect$$$$00000008)
    .ARM.Collect$$$$0000000A                 0x08000138   Section        0  entry8b.o(.ARM.Collect$$$$0000000A)
    .ARM.Collect$$$$0000000B                 0x08000138   Section        8  entry9a.o(.ARM.Collect$$$$0000000B)
    .ARM.Collect$$$$0000000D                 0x08000140   Section        0  entry10a.o(.ARM.Collect$$$$0000000D)
    .ARM.Collect$$$$0000000F                 0x08000140   Section        0  entry11a.o(.ARM.Collect$$$$0000000F)
    .ARM.Collect$$$$00002712                 0x08000140   Section        4  entry2.o(.ARM.Collect$$$$00002712)
    __lit__00000000                          0x08000140   Data           4  entry2.o(.ARM.Collect$$$$00002712)
    .text                                    0x08000144   Section        0  main.o(.text)
    .text                                    0x080001b4   Section        0  board.o(.text)
    .text                                    0x08000344   Section        0  stm32f1xx_it.o(.text)
    .text                                    0x08000354   Section        0  drv_gpio.o(.text)
    GPIOA_CLK_ENABLE                         0x08000355   Thumb Code    32  drv_gpio.o(.text)
    GPIOB_CLK_ENABLE                         0x08000375   Thumb Code    32  drv_gpio.o(.text)
    GPIOC_CLK_ENABLE                         0x08000395   Thumb Code    32  drv_gpio.o(.text)
    GPIOD_CLK_ENABLE                         0x080003b5   Thumb Code    32  drv_gpio.o(.text)
    GPIOE_CLK_ENABLE                         0x080003d5   Thumb Code    32  drv_gpio.o(.text)
    GPIOF_CLK_ENABLE                         0x080003f5   Thumb Code    32  drv_gpio.o(.text)
    GPIOG_CLK_ENABLE                         0x08000415   Thumb Code    32  drv_gpio.o(.text)
    bit2bitno                                0x08000519   Thumb Code    30  drv_gpio.o(.text)
    .text                                    0x080008d0   Section        0  drv_usart.o(.text)
    stm32_configure                          0x080008d1   Thumb Code   186  drv_usart.o(.text)
    stm32_control                            0x0800098b   Thumb Code   116  drv_usart.o(.text)
    stm32_putc                               0x080009ff   Thumb Code    42  drv_usart.o(.text)
    stm32_getc                               0x08000a29   Thumb Code    42  drv_usart.o(.text)
    uart_isr                                 0x08000a53   Thumb Code    56  drv_usart.o(.text)
    MX_USART_UART_Init                       0x08000a9d   Thumb Code    50  drv_usart.o(.text)
    .text                                    0x08000d9c   Section        0  system_stm32f1xx.o(.text)
    .text                                    0x08000e90   Section        0  stm32f1xx_hal_gpio.o(.text)
    .text                                    0x08001378   Section        0  stm32f1xx_hal_dma.o(.text)
    DMA_SetConfig                            0x08001481   Thumb Code    44  stm32f1xx_hal_dma.o(.text)
    .text                                    0x0800225c   Section        0  stm32f1xx_hal_cortex.o(.text)
    NVIC_SetPriority                         0x0800225d   Thumb Code    32  stm32f1xx_hal_cortex.o(.text)
    NVIC_GetPriorityGrouping                 0x080024ff   Thumb Code    12  stm32f1xx_hal_cortex.o(.text)
    .text                                    0x08002520   Section        0  stm32f1xx_hal_rcc.o(.text)
    RCC_Delay                                0x08002561   Thumb Code    36  stm32f1xx_hal_rcc.o(.text)
    .text                                    0x08002dc8   Section        0  stm32f1xx_hal_uart.o(.text)
    UART_SetConfig                           0x08002dc9   Thumb Code   450  stm32f1xx_hal_uart.o(.text)
    UART_WaitOnFlagUntilTimeout              0x080031b5   Thumb Code   112  stm32f1xx_hal_uart.o(.text)
    UART_EndRxTransfer                       0x080034a3   Thumb Code    32  stm32f1xx_hal_uart.o(.text)
    UART_EndTxTransfer                       0x080034c3   Thumb Code    20  stm32f1xx_hal_uart.o(.text)
    UART_DMAError                            0x080034d7   Thumb Code    80  stm32f1xx_hal_uart.o(.text)
    UART_DMATxHalfCplt                       0x08003529   Thumb Code    14  stm32f1xx_hal_uart.o(.text)
    UART_DMATransmitCplt                     0x08003539   Thumb Code    54  stm32f1xx_hal_uart.o(.text)
    UART_DMARxHalfCplt                       0x080035ff   Thumb Code    14  stm32f1xx_hal_uart.o(.text)
    UART_DMAReceiveCplt                      0x0800360f   Thumb Code    70  stm32f1xx_hal_uart.o(.text)
    UART_DMARxAbortCallback                  0x0800397f   Thumb Code    74  stm32f1xx_hal_uart.o(.text)
    UART_DMATxAbortCallback                  0x080039c9   Thumb Code    52  stm32f1xx_hal_uart.o(.text)
    UART_DMATxOnlyAbortCallback              0x08003acf   Thumb Code    24  stm32f1xx_hal_uart.o(.text)
    UART_DMARxOnlyAbortCallback              0x08003b4f   Thumb Code    24  stm32f1xx_hal_uart.o(.text)
    UART_EndTransmit_IT                      0x08003bd9   Thumb Code    32  stm32f1xx_hal_uart.o(.text)
    UART_Transmit_IT                         0x08003bf9   Thumb Code   104  stm32f1xx_hal_uart.o(.text)
    UART_DMAAbortOnError                     0x08003c61   Thumb Code    20  stm32f1xx_hal_uart.o(.text)
    UART_Receive_IT                          0x08003c75   Thumb Code   166  stm32f1xx_hal_uart.o(.text)
    .text                                    0x08003fd4   Section        0  stm32f1xx_hal.o(.text)
    .text                                    0x08004130   Section       36  startup_stm32f103xe.o(.text)
    .text                                    0x08004154   Section        0  clock.o(.text)
    .text                                    0x080041c0   Section        0  components.o(.text)
    rti_start                                0x080041c1   Thumb Code     4  components.o(.text)
    rti_board_start                          0x080041c5   Thumb Code     4  components.o(.text)
    rti_board_end                            0x080041c9   Thumb Code     4  components.o(.text)
    rti_end                                  0x080041cd   Thumb Code     4  components.o(.text)
    .text                                    0x0800429c   Section        0  device.o(.text)
    .text                                    0x080047cc   Section        0  idle.o(.text)
    rt_thread_idle_entry                     0x080048f7   Thumb Code    34  idle.o(.text)
    _has_defunct_thread                      0x08004943   Thumb Code    16  idle.o(.text)
    .text                                    0x080049a0   Section        0  ipc.o(.text)
    rt_list_insert_before                    0x080049a1   Thumb Code    14  ipc.o(.text)
    rt_ipc_list_suspend                      0x080049af   Thumb Code   108  ipc.o(.text)
    rt_ipc_list_resume_all                   0x08004a1b   Thumb Code    50  ipc.o(.text)
    rt_list_init                             0x08006551   Thumb Code     6  ipc.o(.text)
    rt_list_isempty                          0x08006557   Thumb Code    16  ipc.o(.text)
    rt_ipc_object_init                       0x08006567   Thumb Code    16  ipc.o(.text)
    rt_ipc_list_resume                       0x08006577   Thumb Code    24  ipc.o(.text)
    .text                                    0x080065a8   Section        0  irq.o(.text)
    .text                                    0x08006624   Section        0  kservice.o(.text)
    print_number                             0x080068e9   Thumb Code   400  kservice.o(.text)
    skip_atoi                                0x08006a79   Thumb Code    38  kservice.o(.text)
    .text                                    0x080070d4   Section        0  mem.o(.text)
    plug_holes                               0x080070e1   Thumb Code   160  mem.o(.text)
    .text                                    0x080079c8   Section        0  mempool.o(.text)
    rt_list_init                             0x08007d99   Thumb Code     6  mempool.o(.text)
    rt_list_isempty                          0x08007d9f   Thumb Code   282  mempool.o(.text)
    .text                                    0x08007eb8   Section        0  object.o(.text)
    rt_list_insert_after                     0x08007eb9   Thumb Code    14  object.o(.text)
    rt_list_remove                           0x08007ec7   Thumb Code    18  object.o(.text)
    .text                                    0x08008230   Section        0  scheduler.o(.text)
    _rt_scheduler_stack_check                0x08008237   Thumb Code    90  scheduler.o(.text)
    rt_list_init                             0x0800849f   Thumb Code     6  scheduler.o(.text)
    .text                                    0x08008538   Section        0  signal.o(.text)
    _signal_default_handler                  0x08008539   Thumb Code     2  signal.o(.text)
    _signal_entry                            0x080085d7   Thumb Code    50  signal.o(.text)
    _signal_deliver                          0x08008609   Thumb Code   160  signal.o(.text)
    .text                                    0x08008afc   Section        0  timer.o(.text)
    rt_list_insert_after                     0x08008afd   Thumb Code    14  timer.o(.text)
    _rt_timer_init                           0x08008b11   Thumb Code    66  timer.o(.text)
    rt_timer_list_next_timeout               0x08008b53   Thumb Code    28  timer.o(.text)
    _rt_timer_remove                         0x08008b6f   Thumb Code    46  timer.o(.text)
    rt_list_init                             0x0800907d   Thumb Code     6  timer.o(.text)
    rt_list_isempty                          0x08009083   Thumb Code    16  timer.o(.text)
    .text                                    0x08009098   Section        0  thread.o(.text)
    rt_list_insert_after                     0x08009099   Thumb Code    14  thread.o(.text)
    rt_list_remove                           0x080090a7   Thumb Code    18  thread.o(.text)
    _rt_thread_init                          0x08009173   Thumb Code   172  thread.o(.text)
    .text                                    0x08009890   Section        0  cpuport.o(.text)
    usage_fault_track                        0x080098dd   Thumb Code   122  cpuport.o(.text)
    bus_fault_track                          0x08009957   Thumb Code   144  cpuport.o(.text)
    mem_manage_fault_track                   0x080099e7   Thumb Code   126  cpuport.o(.text)
    hard_fault_track                         0x08009a65   Thumb Code    86  cpuport.o(.text)
    .text                                    0x08009e64   Section      240  context_rvds.o(.text)
    .text                                    0x08009f54   Section        0  pin.o(.text)
    _pin_read                                0x08009f55   Thumb Code    62  pin.o(.text)
    _pin_write                               0x08009f93   Thumb Code    62  pin.o(.text)
    _pin_control                             0x08009fd1   Thumb Code    52  pin.o(.text)
    .text                                    0x0800a1a4   Section        0  serial.o(.text)
    _serial_int_rx                           0x0800a1a5   Thumb Code   136  serial.o(.text)
    rt_serial_init                           0x0800a22d   Thumb Code    50  serial.o(.text)
    rt_serial_open                           0x0800a25f   Thumb Code   224  serial.o(.text)
    rt_serial_close                          0x0800a33f   Thumb Code    90  serial.o(.text)
    rt_serial_read                           0x0800a399   Thumb Code    68  serial.o(.text)
    rt_serial_write                          0x0800a3dd   Thumb Code    48  serial.o(.text)
    rt_serial_control                        0x0800a40d   Thumb Code   144  serial.o(.text)
    _serial_poll_rx                          0x0800a629   Thumb Code    68  serial.o(.text)
    _serial_poll_tx                          0x0800a66d   Thumb Code    74  serial.o(.text)
    .text                                    0x0800a6d4   Section        0  shell.o(.text)
    finsh_getchar                            0x0800a6fb   Thumb Code    60  shell.o(.text)
    finsh_rx_ind                             0x0800a737   Thumb Code    34  shell.o(.text)
    shell_auto_complete                      0x0800a84f   Thumb Code    42  shell.o(.text)
    shell_handle_history                     0x0800a879   Thumb Code    32  shell.o(.text)
    shell_push_history                       0x0800a899   Thumb Code   216  shell.o(.text)
    .text                                    0x0800af90   Section        0  cmd.o(.text)
    rt_list_len                              0x0800af91   Thumb Code    20  cmd.o(.text)
    object_name_maxlen                       0x0800afbb   Thumb Code    70  cmd.o(.text)
    _list_thread                             0x0800b001   Thumb Code   194  cmd.o(.text)
    show_wait_queue                          0x0800b0d5   Thumb Code    40  cmd.o(.text)
    _list_sem                                0x0800b0fd   Thumb Code   142  cmd.o(.text)
    _list_event                              0x0800b19d   Thumb Code   130  cmd.o(.text)
    _list_mutex                              0x0800b231   Thumb Code    96  cmd.o(.text)
    _list_mailbox                            0x0800b2a3   Thumb Code   150  cmd.o(.text)
    _list_msgqueue                           0x0800b34b   Thumb Code   856  cmd.o(.text)
    _list_memheap                            0x0800b6b5   Thumb Code    84  cmd.o(.text)
    _list_mempool                            0x0800b71b   Thumb Code   138  cmd.o(.text)
    _list_timer                              0x0800b7b7   Thumb Code   116  cmd.o(.text)
    _list_device                             0x0800b83d   Thumb Code   110  cmd.o(.text)
    rt_list_isempty                          0x0800b8f3   Thumb Code    16  cmd.o(.text)
    object_split                             0x0800b903   Thumb Code    22  cmd.o(.text)
    .text                                    0x0800bb8c   Section        0  msh.o(.text)
    msh_split                                0x0800bbd3   Thumb Code   202  msh.o(.text)
    msh_get_cmd                              0x0800bc9d   Thumb Code    76  msh.o(.text)
    _msh_exec_cmd                            0x0800bce9   Thumb Code   136  msh.o(.text)
    str_common                               0x0800bdc3   Thumb Code    32  msh.o(.text)
    .text                                    0x0800bef4   Section        0  msh_cmd.o(.text)
    .text                                    0x0800bf18   Section        0  dynmem_sample.o(.text)
    .text                                    0x0800bfe8   Section        0  event_sample.o(.text)
    thread1_recv_event                       0x0800bfe9   Thumb Code    82  event_sample.o(.text)
    thread2_send_event                       0x0800c03b   Thumb Code    66  event_sample.o(.text)
    .text                                    0x0800c1ec   Section        0  idlehook_sample.o(.text)
    idle_hook                                0x0800c1ed   Thumb Code    50  idlehook_sample.o(.text)
    thread_entry                             0x0800c21f   Thumb Code    74  idlehook_sample.o(.text)
    .text                                    0x0800c324   Section        0  interrupt_sample.o(.text)
    .text                                    0x0800c3dc   Section        0  mailbox_sample.o(.text)
    thread1_entry                            0x0800c3dd   Thumb Code    62  mailbox_sample.o(.text)
    thread2_entry                            0x0800c41b   Thumb Code    56  mailbox_sample.o(.text)
    .text                                    0x0800c570   Section        0  memp_sample.o(.text)
    thread1_mp_alloc                         0x0800c571   Thumb Code    56  memp_sample.o(.text)
    thread2_mp_release                       0x0800c5a9   Thumb Code    56  memp_sample.o(.text)
    .text                                    0x0800c6d0   Section        0  msgq_sample.o(.text)
    thread1_entry                            0x0800c6d1   Thumb Code    72  msgq_sample.o(.text)
    thread2_entry                            0x0800c719   Thumb Code   118  msgq_sample.o(.text)
    .text                                    0x0800c92c   Section        0  mutex_sample.o(.text)
    rt_thread_entry1                         0x0800c92d   Thumb Code    50  mutex_sample.o(.text)
    rt_thread_entry2                         0x0800c95f   Thumb Code    96  mutex_sample.o(.text)
    .text                                    0x0800cadc   Section        0  priority_inversion.o(.text)
    thread1_entry                            0x0800cadd   Thumb Code   104  priority_inversion.o(.text)
    thread2_entry                            0x0800cb45   Thumb Code    50  priority_inversion.o(.text)
    thread3_entry                            0x0800cb77   Thumb Code    68  priority_inversion.o(.text)
    .text                                    0x0800cd30   Section        0  producer_consumer.o(.text)
    .text                                    0x0800d008   Section        0  scheduler_hook.o(.text)
    thread_entry                             0x0800d009   Thumb Code    24  scheduler_hook.o(.text)
    hook_of_scheduler                        0x0800d021   Thumb Code    18  scheduler_hook.o(.text)
    .text                                    0x0800d0e0   Section        0  semaphore_sample.o(.text)
    rt_thread1_entry                         0x0800d0e1   Thumb Code    60  semaphore_sample.o(.text)
    rt_thread2_entry                         0x0800d11d   Thumb Code    66  semaphore_sample.o(.text)
    .text                                    0x0800d2dc   Section        0  signal_sample.o(.text)
    thread1_entry                            0x0800d2eb   Thumb Code    46  signal_sample.o(.text)
    .text                                    0x0800d398   Section        0  thread_sample.o(.text)
    thread1_entry                            0x0800d399   Thumb Code    24  thread_sample.o(.text)
    thread2_entry                            0x0800d3b1   Thumb Code    32  thread_sample.o(.text)
    .text                                    0x0800d480   Section        0  timer_sample.o(.text)
    timeout1                                 0x0800d481   Thumb Code    46  timer_sample.o(.text)
    timeout2                                 0x0800d4af   Thumb Code    12  timer_sample.o(.text)
    .text                                    0x0800d584   Section        0  timeslice_sample.o(.text)
    thread_entry                             0x0800d585   Thumb Code    44  timeslice_sample.o(.text)
    .text                                    0x0800d638   Section        0  memcpya.o(.text)
    .text                                    0x0800d65c   Section        0  memseta.o(.text)
    .text                                    0x0800d680   Section        0  strcat.o(.text)
    .text                                    0x0800d698   Section        0  strlen.o(.text)
    .text                                    0x0800d6a6   Section        0  memcmp.o(.text)
    .text                                    0x0800d6c0   Section        0  strcpy.o(.text)
    .text                                    0x0800d6d2   Section        0  strncmp.o(.text)
    .text                                    0x0800d6f0   Section       36  init.o(.text)
    .text                                    0x0800d714   Section        0  __dczerorl2.o(.text)
    i.__scatterload_copy                     0x0800d76a   Section       14  handlers.o(i.__scatterload_copy)
    i.__scatterload_null                     0x0800d778   Section        2  handlers.o(i.__scatterload_null)
    i.__scatterload_zeroinit                 0x0800d77a   Section       14  handlers.o(i.__scatterload_zeroinit)
    .constdata                               0x0800d788   Section       19  board.o(.constdata)
    __FUNCTION__                             0x0800d788   Data          19  board.o(.constdata)
    .constdata                               0x0800d79c   Section     2408  drv_gpio.o(.constdata)
    pins                                     0x0800d79c   Data        2320  drv_gpio.o(.constdata)
    pin_irq_map                              0x0800e0ac   Data          64  drv_gpio.o(.constdata)
    _stm32_pin_ops                           0x0800e0ec   Data          24  drv_gpio.o(.constdata)
    .constdata                               0x0800e104   Section      111  drv_usart.o(.constdata)
    stm32_uart_ops                           0x0800e104   Data          20  drv_usart.o(.constdata)
    __FUNCTION__                             0x0800e118   Data          16  drv_usart.o(.constdata)
    __FUNCTION__                             0x0800e128   Data          14  drv_usart.o(.constdata)
    __FUNCTION__                             0x0800e136   Data          11  drv_usart.o(.constdata)
    __FUNCTION__                             0x0800e141   Data          11  drv_usart.o(.constdata)
    __FUNCTION__                             0x0800e14c   Data           9  drv_usart.o(.constdata)
    __FUNCTION__                             0x0800e160   Data          19  drv_usart.o(.constdata)
    .constdata                               0x0800e173   Section       24  system_stm32f1xx.o(.constdata)
    .constdata                               0x0800e18b   Section       20  components.o(.constdata)
    __FUNCTION__                             0x0800e18b   Data          20  components.o(.constdata)
    .constdata                               0x0800e19f   Section      201  device.o(.constdata)
    __FUNCTION__                             0x0800e19f   Data          21  device.o(.constdata)
    __FUNCTION__                             0x0800e1b4   Data          15  device.o(.constdata)
    __FUNCTION__                             0x0800e1c3   Data          18  device.o(.constdata)
    __FUNCTION__                             0x0800e1d5   Data          15  device.o(.constdata)
    __FUNCTION__                             0x0800e1e4   Data          15  device.o(.constdata)
    __FUNCTION__                             0x0800e1f3   Data          16  device.o(.constdata)
    __FUNCTION__                             0x0800e203   Data          15  device.o(.constdata)
    __FUNCTION__                             0x0800e212   Data          16  device.o(.constdata)
    __FUNCTION__                             0x0800e222   Data          18  device.o(.constdata)
    __FUNCTION__                             0x0800e234   Data          26  device.o(.constdata)
    __FUNCTION__                             0x0800e24e   Data          26  device.o(.constdata)
    .constdata                               0x0800e268   Section       22  idle.o(.constdata)
    __FUNCTION__                             0x0800e268   Data          22  idle.o(.constdata)
    .constdata                               0x0800e27e   Section      503  ipc.o(.constdata)
    __FUNCTION__                             0x0800e27e   Data          12  ipc.o(.constdata)
    __FUNCTION__                             0x0800e28a   Data          14  ipc.o(.constdata)
    __FUNCTION__                             0x0800e298   Data          14  ipc.o(.constdata)
    __FUNCTION__                             0x0800e2a6   Data          14  ipc.o(.constdata)
    __FUNCTION__                             0x0800e2b4   Data          12  ipc.o(.constdata)
    __FUNCTION__                             0x0800e2c0   Data          15  ipc.o(.constdata)
    __FUNCTION__                             0x0800e2cf   Data          15  ipc.o(.constdata)
    __FUNCTION__                             0x0800e2de   Data          14  ipc.o(.constdata)
    __FUNCTION__                             0x0800e2ec   Data          16  ipc.o(.constdata)
    __FUNCTION__                             0x0800e2fc   Data          16  ipc.o(.constdata)
    __FUNCTION__                             0x0800e30c   Data          16  ipc.o(.constdata)
    __FUNCTION__                             0x0800e31c   Data          14  ipc.o(.constdata)
    __FUNCTION__                             0x0800e32a   Data          17  ipc.o(.constdata)
    __FUNCTION__                             0x0800e33b   Data          17  ipc.o(.constdata)
    __FUNCTION__                             0x0800e34c   Data          14  ipc.o(.constdata)
    __FUNCTION__                             0x0800e35a   Data          16  ipc.o(.constdata)
    __FUNCTION__                             0x0800e36a   Data          16  ipc.o(.constdata)
    __FUNCTION__                             0x0800e37a   Data          16  ipc.o(.constdata)
    __FUNCTION__                             0x0800e38a   Data          14  ipc.o(.constdata)
    __FUNCTION__                             0x0800e398   Data          14  ipc.o(.constdata)
    __FUNCTION__                             0x0800e3a6   Data          17  ipc.o(.constdata)
    __FUNCTION__                             0x0800e3b7   Data          11  ipc.o(.constdata)
    __FUNCTION__                             0x0800e3c2   Data          13  ipc.o(.constdata)
    __FUNCTION__                             0x0800e3cf   Data          13  ipc.o(.constdata)
    __FUNCTION__                             0x0800e3dc   Data          13  ipc.o(.constdata)
    __FUNCTION__                             0x0800e3e9   Data          16  ipc.o(.constdata)
    __FUNCTION__                             0x0800e3f9   Data          11  ipc.o(.constdata)
    __FUNCTION__                             0x0800e404   Data          14  ipc.o(.constdata)
    __FUNCTION__                             0x0800e412   Data          11  ipc.o(.constdata)
    __FUNCTION__                             0x0800e41d   Data          13  ipc.o(.constdata)
    __FUNCTION__                             0x0800e42a   Data          13  ipc.o(.constdata)
    __FUNCTION__                             0x0800e437   Data          13  ipc.o(.constdata)
    __FUNCTION__                             0x0800e444   Data          11  ipc.o(.constdata)
    __FUNCTION__                             0x0800e44f   Data          13  ipc.o(.constdata)
    __FUNCTION__                             0x0800e45c   Data          11  ipc.o(.constdata)
    __FUNCTION__                             0x0800e467   Data          14  ipc.o(.constdata)
    .constdata                               0x0800e475   Section      290  kservice.o(.constdata)
    small_digits                             0x0800e575   Data          17  kservice.o(.constdata)
    large_digits                             0x0800e586   Data          17  kservice.o(.constdata)
    .constdata                               0x0800e597   Section       70  mem.o(.constdata)
    __FUNCTION__                             0x0800e597   Data          11  mem.o(.constdata)
    __FUNCTION__                             0x0800e5a2   Data          20  mem.o(.constdata)
    __FUNCTION__                             0x0800e5b6   Data          10  mem.o(.constdata)
    __FUNCTION__                             0x0800e5c0   Data          11  mem.o(.constdata)
    __FUNCTION__                             0x0800e5cb   Data          10  mem.o(.constdata)
    __FUNCTION__                             0x0800e5d5   Data           8  mem.o(.constdata)
    .constdata                               0x0800e5dd   Section       62  mempool.o(.constdata)
    __FUNCTION__                             0x0800e5dd   Data          11  mempool.o(.constdata)
    __FUNCTION__                             0x0800e5e8   Data          13  mempool.o(.constdata)
    __FUNCTION__                             0x0800e5f5   Data          13  mempool.o(.constdata)
    __FUNCTION__                             0x0800e602   Data          13  mempool.o(.constdata)
    __FUNCTION__                             0x0800e60f   Data          12  mempool.o(.constdata)
    .constdata                               0x0800e61b   Section      128  object.o(.constdata)
    __FUNCTION__                             0x0800e61b   Data          15  object.o(.constdata)
    __FUNCTION__                             0x0800e62a   Data          17  object.o(.constdata)
    __FUNCTION__                             0x0800e63b   Data          19  object.o(.constdata)
    __FUNCTION__                             0x0800e64e   Data          17  object.o(.constdata)
    __FUNCTION__                             0x0800e65f   Data          26  object.o(.constdata)
    __FUNCTION__                             0x0800e679   Data          19  object.o(.constdata)
    __FUNCTION__                             0x0800e68c   Data          15  object.o(.constdata)
    .constdata                               0x0800e69b   Section       78  scheduler.o(.constdata)
    __FUNCTION__                             0x0800e69b   Data          26  scheduler.o(.constdata)
    __FUNCTION__                             0x0800e6b5   Data          26  scheduler.o(.constdata)
    __FUNCTION__                             0x0800e6cf   Data          26  scheduler.o(.constdata)
    .constdata                               0x0800e6e9   Section       72  signal.o(.constdata)
    __FUNCTION__                             0x0800e6e9   Data          15  signal.o(.constdata)
    __FUNCTION__                             0x0800e6f8   Data          20  signal.o(.constdata)
    __FUNCTION__                             0x0800e70c   Data          15  signal.o(.constdata)
    __FUNCTION__                             0x0800e71b   Data          22  signal.o(.constdata)
    .constdata                               0x0800e731   Section       92  timer.o(.constdata)
    __FUNCTION__                             0x0800e731   Data          14  timer.o(.constdata)
    __FUNCTION__                             0x0800e73f   Data          16  timer.o(.constdata)
    __FUNCTION__                             0x0800e74f   Data          16  timer.o(.constdata)
    __FUNCTION__                             0x0800e75f   Data          15  timer.o(.constdata)
    __FUNCTION__                             0x0800e76e   Data          14  timer.o(.constdata)
    __FUNCTION__                             0x0800e77c   Data          17  timer.o(.constdata)
    .constdata                               0x0800e78d   Section      185  thread.o(.constdata)
    __FUNCTION__                             0x0800e78d   Data          16  thread.o(.constdata)
    __FUNCTION__                             0x0800e79d   Data          15  thread.o(.constdata)
    __FUNCTION__                             0x0800e7ac   Data          18  thread.o(.constdata)
    __FUNCTION__                             0x0800e7be   Data          17  thread.o(.constdata)
    __FUNCTION__                             0x0800e7cf   Data          17  thread.o(.constdata)
    __FUNCTION__                             0x0800e7e0   Data          16  thread.o(.constdata)
    __FUNCTION__                             0x0800e7f0   Data          18  thread.o(.constdata)
    __FUNCTION__                             0x0800e802   Data          18  thread.o(.constdata)
    __FUNCTION__                             0x0800e814   Data          17  thread.o(.constdata)
    __FUNCTION__                             0x0800e825   Data          18  thread.o(.constdata)
    __FUNCTION__                             0x0800e837   Data          15  thread.o(.constdata)
    .constdata                               0x0800e846   Section       19  cpuport.o(.constdata)
    __FUNCTION__                             0x0800e846   Data          19  cpuport.o(.constdata)
    .constdata                               0x0800e859   Section      126  pin.o(.constdata)
    __FUNCTION__                             0x0800e859   Data          10  pin.o(.constdata)
    __FUNCTION__                             0x0800e863   Data          11  pin.o(.constdata)
    __FUNCTION__                             0x0800e86e   Data          13  pin.o(.constdata)
    __FUNCTION__                             0x0800e87b   Data          18  pin.o(.constdata)
    __FUNCTION__                             0x0800e88d   Data          19  pin.o(.constdata)
    __FUNCTION__                             0x0800e8a0   Data          18  pin.o(.constdata)
    __FUNCTION__                             0x0800e8b2   Data          12  pin.o(.constdata)
    __FUNCTION__                             0x0800e8be   Data          13  pin.o(.constdata)
    __FUNCTION__                             0x0800e8cb   Data          12  pin.o(.constdata)
    .constdata                               0x0800e8d7   Section      181  serial.o(.constdata)
    __FUNCTION__                             0x0800e8d7   Data          16  serial.o(.constdata)
    __FUNCTION__                             0x0800e8e7   Data          16  serial.o(.constdata)
    __FUNCTION__                             0x0800e8f7   Data          15  serial.o(.constdata)
    __FUNCTION__                             0x0800e906   Data          15  serial.o(.constdata)
    __FUNCTION__                             0x0800e915   Data          15  serial.o(.constdata)
    __FUNCTION__                             0x0800e924   Data          16  serial.o(.constdata)
    __FUNCTION__                             0x0800e934   Data          15  serial.o(.constdata)
    __FUNCTION__                             0x0800e943   Data          16  serial.o(.constdata)
    __FUNCTION__                             0x0800e953   Data          18  serial.o(.constdata)
    __FUNCTION__                             0x0800e965   Data          22  serial.o(.constdata)
    __FUNCTION__                             0x0800e97b   Data          17  serial.o(.constdata)
    .constdata                               0x0800e98c   Section       91  shell.o(.constdata)
    __FUNCTION__                             0x0800e98c   Data          14  shell.o(.constdata)
    __FUNCTION__                             0x0800e99a   Data          13  shell.o(.constdata)
    __FUNCTION__                             0x0800e9a7   Data          17  shell.o(.constdata)
    __FUNCTION__                             0x0800e9b8   Data          17  shell.o(.constdata)
    __FUNCTION__                             0x0800e9c9   Data          15  shell.o(.constdata)
    __FUNCTION__                             0x0800e9d8   Data          15  shell.o(.constdata)
    .constdata                               0x0800e9e8   Section       80  cmd.o(.constdata)
    .constdata                               0x0800ea38   Section       14  msh.o(.constdata)
    __FUNCTION__                             0x0800ea38   Data          14  msh.o(.constdata)
    .conststring                             0x0800ea48   Section       67  board.o(.conststring)
    .conststring                             0x0800ea8c   Section      346  ipc.o(.conststring)
    .conststring                             0x0800ebe8   Section      237  mem.o(.conststring)
    .conststring                             0x0800ecd8   Section       66  thread.o(.conststring)
    .conststring                             0x0800ed1c   Section      349  cmd.o(.conststring)
    .rodata.name                             0x0800ee79   Section       37  main.o(.rodata.name)
    .rodata.name                             0x0800ee9e   Section       39  mem.o(.rodata.name)
    .rodata.name                             0x0800eec5   Section      105  pin.o(.rodata.name)
    .rodata.name                             0x0800ef2e   Section      901  cmd.o(.rodata.name)
    .rodata.name                             0x0800f2b3   Section       33  msh.o(.rodata.name)
    .rodata.name                             0x0800f2d4   Section      123  msh_cmd.o(.rodata.name)
    .rodata.name                             0x0800f34f   Section       34  dynmem_sample.o(.rodata.name)
    .rodata.name                             0x0800f371   Section       32  event_sample.o(.rodata.name)
    .rodata.name                             0x0800f391   Section       40  idlehook_sample.o(.rodata.name)
    .rodata.name                             0x0800f3b9   Section       40  interrupt_sample.o(.rodata.name)
    .rodata.name                             0x0800f3e1   Section       36  mailbox_sample.o(.rodata.name)
    .rodata.name                             0x0800f405   Section       36  memp_sample.o(.rodata.name)
    .rodata.name                             0x0800f429   Section       30  msgq_sample.o(.rodata.name)
    .rodata.name                             0x0800f447   Section       32  mutex_sample.o(.rodata.name)
    .rodata.name                             0x0800f467   Section       41  priority_inversion.o(.rodata.name)
    .rodata.name                             0x0800f490   Section       49  producer_consumer.o(.rodata.name)
    .rodata.name                             0x0800f4c1   Section       43  scheduler_hook.o(.rodata.name)
    .rodata.name                             0x0800f4ec   Section       40  semaphore_sample.o(.rodata.name)
    .rodata.name                             0x0800f514   Section       34  signal_sample.o(.rodata.name)
    .rodata.name                             0x0800f536   Section       34  thread_sample.o(.rodata.name)
    .rodata.name                             0x0800f558   Section       32  timer_sample.o(.rodata.name)
    .rodata.name                             0x0800f578   Section       40  timeslice_sample.o(.rodata.name)
    .rti_fn.0                                0x0800f5a0   Section        4  components.o(.rti_fn.0)
    __tagsym$$used                           0x0800f5a0   Number         0  components.o(.rti_fn.0)
    .rti_fn.0.end                            0x0800f5a4   Section        4  components.o(.rti_fn.0.end)
    __tagsym$$used                           0x0800f5a4   Number         0  components.o(.rti_fn.0.end)
    .rti_fn.1                                0x0800f5a8   Section        4  drv_gpio.o(.rti_fn.1)
    __tagsym$$used                           0x0800f5a8   Number         0  drv_gpio.o(.rti_fn.1)
    .rti_fn.1                                0x0800f5ac   Section        4  drv_usart.o(.rti_fn.1)
    __tagsym$$used                           0x0800f5ac   Number         0  drv_usart.o(.rti_fn.1)
    .rti_fn.1.end                            0x0800f5b0   Section        4  components.o(.rti_fn.1.end)
    __tagsym$$used                           0x0800f5b0   Number         0  components.o(.rti_fn.1.end)
    .rti_fn.6                                0x0800f5b4   Section        4  shell.o(.rti_fn.6)
    __tagsym$$used                           0x0800f5b4   Number         0  shell.o(.rti_fn.6)
    .rti_fn.6.end                            0x0800f5b8   Section        4  components.o(.rti_fn.6.end)
    __tagsym$$used                           0x0800f5b8   Number         0  components.o(.rti_fn.6.end)
    FSymTab                                  0x0800f5bc   Section       12  main.o(FSymTab)
    FSymTab                                  0x0800f5c8   Section       12  mem.o(FSymTab)
    FSymTab                                  0x0800f5d4   Section       36  pin.o(FSymTab)
    FSymTab                                  0x0800f5f8   Section      288  cmd.o(FSymTab)
    FSymTab                                  0x0800f718   Section       12  msh.o(FSymTab)
    FSymTab                                  0x0800f724   Section       36  msh_cmd.o(FSymTab)
    FSymTab                                  0x0800f748   Section       12  dynmem_sample.o(FSymTab)
    FSymTab                                  0x0800f754   Section       12  event_sample.o(FSymTab)
    FSymTab                                  0x0800f760   Section       12  idlehook_sample.o(FSymTab)
    FSymTab                                  0x0800f76c   Section       12  interrupt_sample.o(FSymTab)
    FSymTab                                  0x0800f778   Section       12  mailbox_sample.o(FSymTab)
    FSymTab                                  0x0800f784   Section       12  memp_sample.o(FSymTab)
    FSymTab                                  0x0800f790   Section       12  msgq_sample.o(FSymTab)
    FSymTab                                  0x0800f79c   Section       12  mutex_sample.o(FSymTab)
    FSymTab                                  0x0800f7a8   Section       12  priority_inversion.o(FSymTab)
    FSymTab                                  0x0800f7b4   Section       12  producer_consumer.o(FSymTab)
    FSymTab                                  0x0800f7c0   Section       12  scheduler_hook.o(FSymTab)
    FSymTab                                  0x0800f7cc   Section       12  semaphore_sample.o(FSymTab)
    FSymTab                                  0x0800f7d8   Section       12  signal_sample.o(FSymTab)
    FSymTab                                  0x0800f7e4   Section       12  thread_sample.o(FSymTab)
    FSymTab                                  0x0800f7f0   Section       12  timer_sample.o(FSymTab)
    FSymTab                                  0x0800f7fc   Section       12  timeslice_sample.o(FSymTab)
    .data                                    0x20000000   Section      192  drv_gpio.o(.data)
    .data                                    0x200000c0   Section       68  drv_usart.o(.data)
    .data                                    0x20000104   Section        4  system_stm32f1xx.o(.data)
    .data                                    0x20000108   Section        4  stm32f1xx_hal.o(.data)
    .data                                    0x2000010c   Section        4  clock.o(.data)
    rt_tick                                  0x2000010c   Data           4  clock.o(.data)
    .data                                    0x20000110   Section        9  irq.o(.data)
    rt_interrupt_enter_hook                  0x20000110   Data           4  irq.o(.data)
    rt_interrupt_leave_hook                  0x20000114   Data           4  irq.o(.data)
    .data                                    0x2000011c   Section       12  kservice.o(.data)
    __rt_errno                               0x2000011c   Data           4  kservice.o(.data)
    _console_device                          0x20000120   Data           4  kservice.o(.data)
    .data                                    0x20000128   Section       32  mem.o(.data)
    rt_malloc_hook                           0x20000128   Data           4  mem.o(.data)
    rt_free_hook                             0x2000012c   Data           4  mem.o(.data)
    heap_ptr                                 0x20000130   Data           4  mem.o(.data)
    heap_end                                 0x20000134   Data           4  mem.o(.data)
    lfree                                    0x20000138   Data           4  mem.o(.data)
    mem_size_aligned                         0x2000013c   Data           4  mem.o(.data)
    used_mem                                 0x20000140   Data           4  mem.o(.data)
    max_mem                                  0x20000144   Data           4  mem.o(.data)
    .data                                    0x20000148   Section        8  mempool.o(.data)
    rt_mp_alloc_hook                         0x20000148   Data           4  mempool.o(.data)
    rt_mp_free_hook                          0x2000014c   Data           4  mempool.o(.data)
    .data                                    0x20000150   Section      180  object.o(.data)
    rt_object_container                      0x20000150   Data         160  object.o(.data)
    rt_object_attach_hook                    0x200001f0   Data           4  object.o(.data)
    rt_object_detach_hook                    0x200001f4   Data           4  object.o(.data)
    .data                                    0x20000204   Section       28  scheduler.o(.data)
    rt_scheduler_lock_nest                   0x20000204   Data           2  scheduler.o(.data)
    rt_scheduler_hook                        0x2000021c   Data           4  scheduler.o(.data)
    .data                                    0x20000220   Section        4  signal.o(.data)
    _rt_siginfo_pool                         0x20000220   Data           4  signal.o(.data)
    .data                                    0x20000224   Section       16  timer.o(.data)
    rt_timer_list                            0x20000224   Data           8  timer.o(.data)
    rt_timer_timeout_hook                    0x2000022c   Data           4  timer.o(.data)
    random_nr                                0x20000230   Data           4  timer.o(.data)
    .data                                    0x20000234   Section       12  thread.o(.data)
    rt_thread_suspend_hook                   0x20000234   Data           4  thread.o(.data)
    rt_thread_resume_hook                    0x20000238   Data           4  thread.o(.data)
    rt_thread_inited_hook                    0x2000023c   Data           4  thread.o(.data)
    .data                                    0x20000240   Section       16  cpuport.o(.data)
    rt_exception_hook                        0x2000024c   Data           4  cpuport.o(.data)
    .data                                    0x20000250   Section        4  shell.o(.data)
    .data                                    0x20000254   Section       16  symbol.o(.data)
    .data                                    0x20000264   Section        8  idlehook_sample.o(.data)
    tid                                      0x20000264   Data           4  idlehook_sample.o(.data)
    hook_times                               0x20000268   Data           4  idlehook_sample.o(.data)
    .data                                    0x2000026c   Section        4  interrupt_sample.o(.data)
    cnt                                      0x2000026c   Data           4  interrupt_sample.o(.data)
    .data                                    0x20000270   Section       39  mailbox_sample.o(.data)
    mb_str1                                  0x20000270   Data          12  mailbox_sample.o(.data)
    mb_str2                                  0x2000027c   Data          22  mailbox_sample.o(.data)
    mb_str3                                  0x20000292   Data           5  mailbox_sample.o(.data)
    .data                                    0x20000298   Section        8  memp_sample.o(.data)
    tid1                                     0x20000298   Data           4  memp_sample.o(.data)
    tid2                                     0x2000029c   Data           4  memp_sample.o(.data)
    .data                                    0x200002a0   Section        6  mutex_sample.o(.data)
    dynamic_mutex                            0x200002a0   Data           4  mutex_sample.o(.data)
    number1                                  0x200002a4   Data           1  mutex_sample.o(.data)
    number2                                  0x200002a5   Data           1  mutex_sample.o(.data)
    .data                                    0x200002a8   Section       16  priority_inversion.o(.data)
    tid1                                     0x200002a8   Data           4  priority_inversion.o(.data)
    tid2                                     0x200002ac   Data           4  priority_inversion.o(.data)
    tid3                                     0x200002b0   Data           4  priority_inversion.o(.data)
    mutex                                    0x200002b4   Data           4  priority_inversion.o(.data)
    .data                                    0x200002b8   Section       16  producer_consumer.o(.data)
    set                                      0x200002b8   Data           4  producer_consumer.o(.data)
    get                                      0x200002bc   Data           4  producer_consumer.o(.data)
    producer_tid                             0x200002c0   Data           4  producer_consumer.o(.data)
    consumer_tid                             0x200002c4   Data           4  producer_consumer.o(.data)
    .data                                    0x200002c8   Section       16  scheduler_hook.o(.data)
    tid1                                     0x200002d0   Data           4  scheduler_hook.o(.data)
    tid2                                     0x200002d4   Data           4  scheduler_hook.o(.data)
    .data                                    0x200002d8   Section       13  semaphore_sample.o(.data)
    dynamic_sem                              0x200002d8   Data           4  semaphore_sample.o(.data)
    count                                    0x200002dc   Data           1  semaphore_sample.o(.data)
    result                                   0x200002e0   Data           4  semaphore_sample.o(.data)
    number                                   0x200002e4   Data           1  semaphore_sample.o(.data)
    .data                                    0x200002e8   Section        4  signal_sample.o(.data)
    tid1                                     0x200002e8   Data           4  signal_sample.o(.data)
    .data                                    0x200002ec   Section        4  thread_sample.o(.data)
    tid1                                     0x200002ec   Data           4  thread_sample.o(.data)
    .data                                    0x200002f0   Section       12  timer_sample.o(.data)
    timer1                                   0x200002f0   Data           4  timer_sample.o(.data)
    timer2                                   0x200002f4   Data           4  timer_sample.o(.data)
    cnt                                      0x200002f8   Data           4  timer_sample.o(.data)
    .bss                                     0x200002fc   Section       84  drv_usart.o(.bss)
    .bss                                     0x20000350   Section      420  idle.o(.bss)
    idle                                     0x20000350   Data         148  idle.o(.bss)
    rt_thread_stack                          0x200003e4   Data         256  idle.o(.bss)
    idle_hook_list                           0x200004e4   Data          16  idle.o(.bss)
    .bss                                     0x200004f4   Section      128  kservice.o(.bss)
    rt_log_buf                               0x200004f4   Data         128  kservice.o(.bss)
    .bss                                     0x20000574   Section       32  mem.o(.bss)
    heap_sem                                 0x20000574   Data          32  mem.o(.bss)
    .bss                                     0x20000594   Section      256  scheduler.o(.bss)
    .bss                                     0x20000694   Section       68  pin.o(.bss)
    _hw_pin                                  0x20000694   Data          68  pin.o(.bss)
    .bss                                     0x200006d8   Section      129  shell.o(.bss)
    finsh_prompt                             0x200006d8   Data         129  shell.o(.bss)
    .bss                                     0x2000075c   Section     2376  event_sample.o(.bss)
    event                                    0x2000075c   Data          32  event_sample.o(.bss)
    thread1_stack                            0x2000077c   Data        1024  event_sample.o(.bss)
    thread1                                  0x20000b7c   Data         148  event_sample.o(.bss)
    thread2_stack                            0x20000c10   Data        1024  event_sample.o(.bss)
    thread2                                  0x20001010   Data         148  event_sample.o(.bss)
    .bss                                     0x200010a4   Section     2520  mailbox_sample.o(.bss)
    mb                                       0x200010a4   Data          48  mailbox_sample.o(.bss)
    mb_pool                                  0x200010d4   Data         128  mailbox_sample.o(.bss)
    thread1_stack                            0x20001154   Data        1024  mailbox_sample.o(.bss)
    thread1                                  0x20001554   Data         148  mailbox_sample.o(.bss)
    thread2_stack                            0x200015e8   Data        1024  mailbox_sample.o(.bss)
    thread2                                  0x200019e8   Data         148  mailbox_sample.o(.bss)
    .bss                                     0x20001a7c   Section     4352  memp_sample.o(.bss)
    ptr                                      0x20001a7c   Data         200  memp_sample.o(.bss)
    mempool                                  0x20001b44   Data        4096  memp_sample.o(.bss)
    mp                                       0x20002b44   Data          56  memp_sample.o(.bss)
    .bss                                     0x20002b7c   Section     4444  msgq_sample.o(.bss)
    mq                                       0x20002b7c   Data          52  msgq_sample.o(.bss)
    msg_pool                                 0x20002bb0   Data        2048  msgq_sample.o(.bss)
    thread1_stack                            0x200033b0   Data        1024  msgq_sample.o(.bss)
    thread1                                  0x200037b0   Data         148  msgq_sample.o(.bss)
    thread2_stack                            0x20003844   Data        1024  msgq_sample.o(.bss)
    thread2                                  0x20003c44   Data         148  msgq_sample.o(.bss)
    .bss                                     0x20003cd8   Section     2344  mutex_sample.o(.bss)
    thread1_stack                            0x20003cd8   Data        1024  mutex_sample.o(.bss)
    thread1                                  0x200040d8   Data         148  mutex_sample.o(.bss)
    thread2_stack                            0x2000416c   Data        1024  mutex_sample.o(.bss)
    thread2                                  0x2000456c   Data         148  mutex_sample.o(.bss)
    .bss                                     0x20004600   Section      116  producer_consumer.o(.bss)
    .bss                                     0x20004674   Section     2344  semaphore_sample.o(.bss)
    thread1_stack                            0x20004674   Data        1024  semaphore_sample.o(.bss)
    thread1                                  0x20004a74   Data         148  semaphore_sample.o(.bss)
    thread2_stack                            0x20004b08   Data        1024  semaphore_sample.o(.bss)
    thread2                                  0x20004f08   Data         148  semaphore_sample.o(.bss)
    .bss                                     0x20004f9c   Section     1172  thread_sample.o(.bss)
    thread2_stack                            0x20004f9c   Data        1024  thread_sample.o(.bss)
    thread2                                  0x2000539c   Data         148  thread_sample.o(.bss)
    STACK                                    0x20005430   Section     1024  startup_stm32f103xe.o(STACK)

    Global Symbols

    Symbol Name                              Value     Ov Type        Size  Object(Section)

    BuildAttributes$$THM_ISAv4$P$D$K$B$S$PE$A:L22UL41UL21$X:L11$S22US41US21$IEEE1$IW$USESV6$~STKCKD$USESV7$~SHL$OSPACE$EBA8$MICROLIB$REQ8$PRES8$EABIv2 0x00000000   Number         0  anon$$obj.o ABSOLUTE
    __ARM_use_no_argv                        0x00000000   Number         0  main.o ABSOLUTE
    __cpp_initialize__aeabi_                  - Undefined Weak Reference
    __cxa_finalize                            - Undefined Weak Reference
    _clock_init                               - Undefined Weak Reference
    _microlib_exit                            - Undefined Weak Reference
    __Vectors_Size                           0x00000130   Number         0  startup_stm32f103xe.o ABSOLUTE
    __Vectors                                0x08000000   Data           4  startup_stm32f103xe.o(RESET)
    __Vectors_End                            0x08000130   Data           0  startup_stm32f103xe.o(RESET)
    __main                                   0x08000131   Thumb Code     0  entry.o(.ARM.Collect$$$$00000000)
    _main_stk                                0x08000131   Thumb Code     0  entry2.o(.ARM.Collect$$$$00000001)
    _main_scatterload                        0x08000135   Thumb Code     0  entry5.o(.ARM.Collect$$$$00000004)
    __main_after_scatterload                 0x08000139   Thumb Code     0  entry5.o(.ARM.Collect$$$$00000004)
    _main_clock                              0x08000139   Thumb Code     0  entry7b.o(.ARM.Collect$$$$00000008)
    _main_cpp_init                           0x08000139   Thumb Code     0  entry8b.o(.ARM.Collect$$$$0000000A)
    _main_init                               0x08000139   Thumb Code     0  entry9a.o(.ARM.Collect$$$$0000000B)
    __rt_final_cpp                           0x08000141   Thumb Code     0  entry10a.o(.ARM.Collect$$$$0000000D)
    __rt_final_exit                          0x08000141   Thumb Code     0  entry11a.o(.ARM.Collect$$$$0000000F)
    $Super$$main                             0x08000145   Thumb Code     4  main.o(.text)
    led                                      0x08000149   Thumb Code    72  main.o(.text)
    HAL_MspInit                              0x080001b5   Thumb Code   140  board.o(.text)
    SystemClock_Config                       0x08000241   Thumb Code   130  board.o(.text)
    SysTick_Handler                          0x080002c3   Thumb Code    20  board.o(.text)
    rt_hw_board_init                         0x080002d7   Thumb Code    30  board.o(.text)
    NMI_Handler                              0x08000345   Thumb Code     2  stm32f1xx_it.o(.text)
    MemManage_Handler                        0x08000347   Thumb Code     4  stm32f1xx_it.o(.text)
    BusFault_Handler                         0x0800034b   Thumb Code     4  stm32f1xx_it.o(.text)
    UsageFault_Handler                       0x0800034f   Thumb Code     4  stm32f1xx_it.o(.text)
    DebugMon_Handler                         0x08000353   Thumb Code     2  stm32f1xx_it.o(.text)
    get_pin                                  0x08000435   Thumb Code    26  drv_gpio.o(.text)
    stm32_pin_write                          0x0800044f   Thumb Code    40  drv_gpio.o(.text)
    stm32_pin_read                           0x08000477   Thumb Code    42  drv_gpio.o(.text)
    stm32_pin_mode                           0x080004a1   Thumb Code   120  drv_gpio.o(.text)
    stm32_pin_attach_irq                     0x08000537   Thumb Code   216  drv_gpio.o(.text)
    stm32_pin_dettach_irq                    0x0800060f   Thumb Code   134  drv_gpio.o(.text)
    stm32_pin_irq_enable                     0x08000695   Thumb Code   288  drv_gpio.o(.text)
    rt_hw_pin_init                           0x080007b5   Thumb Code    18  drv_gpio.o(.text)
    HAL_GPIO_EXTI_Callback                   0x080007c7   Thumb Code    54  drv_gpio.o(.text)
    EXTI0_IRQHandler                         0x080007fd   Thumb Code    18  drv_gpio.o(.text)
    EXTI1_IRQHandler                         0x0800080f   Thumb Code    18  drv_gpio.o(.text)
    EXTI2_IRQHandler                         0x08000821   Thumb Code    18  drv_gpio.o(.text)
    EXTI3_IRQHandler                         0x08000833   Thumb Code    18  drv_gpio.o(.text)
    EXTI4_IRQHandler                         0x08000845   Thumb Code    18  drv_gpio.o(.text)
    EXTI9_5_IRQHandler                       0x08000857   Thumb Code    46  drv_gpio.o(.text)
    EXTI15_10_IRQHandler                     0x08000885   Thumb Code    60  drv_gpio.o(.text)
    USART1_IRQHandler                        0x08000a8b   Thumb Code    18  drv_usart.o(.text)
    rt_hw_usart_init                         0x08000acf   Thumb Code    58  drv_usart.o(.text)
    HAL_UART_MspInit                         0x08000b09   Thumb Code   366  drv_usart.o(.text)
    HAL_UART_MspDeInit                       0x08000c77   Thumb Code   280  drv_usart.o(.text)
    SystemInit                               0x08000d9d   Thumb Code    70  system_stm32f1xx.o(.text)
    SystemCoreClockUpdate                    0x08000de3   Thumb Code   142  system_stm32f1xx.o(.text)
    HAL_GPIO_Init                            0x08000e91   Thumb Code   790  stm32f1xx_hal_gpio.o(.text)
    HAL_GPIO_DeInit                          0x080011a7   Thumb Code   312  stm32f1xx_hal_gpio.o(.text)
    HAL_GPIO_ReadPin                         0x080012df   Thumb Code    16  stm32f1xx_hal_gpio.o(.text)
    HAL_GPIO_WritePin                        0x080012ef   Thumb Code    12  stm32f1xx_hal_gpio.o(.text)
    HAL_GPIO_TogglePin                       0x080012fb   Thumb Code     8  stm32f1xx_hal_gpio.o(.text)
    HAL_GPIO_LockPin                         0x08001303   Thumb Code    46  stm32f1xx_hal_gpio.o(.text)
    HAL_GPIO_EXTI_IRQHandler                 0x08001333   Thumb Code    28  stm32f1xx_hal_gpio.o(.text)
    HAL_DMA_Init                             0x08001379   Thumb Code   140  stm32f1xx_hal_dma.o(.text)
    HAL_DMA_DeInit                           0x08001405   Thumb Code   124  stm32f1xx_hal_dma.o(.text)
    HAL_DMA_Start                            0x080014ad   Thumb Code   114  stm32f1xx_hal_dma.o(.text)
    HAL_DMA_Start_IT                         0x0800151f   Thumb Code   156  stm32f1xx_hal_dma.o(.text)
    HAL_DMA_Abort                            0x080015bb   Thumb Code    58  stm32f1xx_hal_dma.o(.text)
    HAL_DMA_Abort_IT                         0x080015f5   Thumb Code   422  stm32f1xx_hal_dma.o(.text)
    HAL_DMA_PollForTransfer                  0x0800179b   Thumb Code  1614  stm32f1xx_hal_dma.o(.text)
    HAL_DMA_IRQHandler                       0x08001de9   Thumb Code   922  stm32f1xx_hal_dma.o(.text)
    HAL_DMA_RegisterCallback                 0x08002183   Thumb Code    90  stm32f1xx_hal_dma.o(.text)
    HAL_DMA_UnRegisterCallback               0x080021dd   Thumb Code   106  stm32f1xx_hal_dma.o(.text)
    HAL_DMA_GetState                         0x08002247   Thumb Code     8  stm32f1xx_hal_dma.o(.text)
    HAL_DMA_GetError                         0x0800224f   Thumb Code     6  stm32f1xx_hal_dma.o(.text)
    HAL_NVIC_SetPriorityGrouping             0x0800227d   Thumb Code    36  stm32f1xx_hal_cortex.o(.text)
    HAL_NVIC_SetPriority                     0x080022a1   Thumb Code   124  stm32f1xx_hal_cortex.o(.text)
    HAL_NVIC_EnableIRQ                       0x0800231d   Thumb Code    26  stm32f1xx_hal_cortex.o(.text)
    HAL_NVIC_DisableIRQ                      0x08002337   Thumb Code    22  stm32f1xx_hal_cortex.o(.text)
    HAL_NVIC_SystemReset                     0x0800234d   Thumb Code    64  stm32f1xx_hal_cortex.o(.text)
    HAL_SYSTICK_Config                       0x0800238d   Thumb Code    52  stm32f1xx_hal_cortex.o(.text)
    HAL_NVIC_GetPriorityGrouping             0x080023c1   Thumb Code     8  stm32f1xx_hal_cortex.o(.text)
    HAL_NVIC_GetPriority                     0x080023c9   Thumb Code   138  stm32f1xx_hal_cortex.o(.text)
    HAL_NVIC_SetPendingIRQ                   0x08002453   Thumb Code    24  stm32f1xx_hal_cortex.o(.text)
    HAL_NVIC_GetPendingIRQ                   0x0800246b   Thumb Code    38  stm32f1xx_hal_cortex.o(.text)
    HAL_NVIC_ClearPendingIRQ                 0x08002491   Thumb Code    22  stm32f1xx_hal_cortex.o(.text)
    HAL_NVIC_GetActive                       0x080024a7   Thumb Code    38  stm32f1xx_hal_cortex.o(.text)
    HAL_SYSTICK_CLKSourceConfig              0x080024cd   Thumb Code    40  stm32f1xx_hal_cortex.o(.text)
    HAL_SYSTICK_Callback                     0x080024f5   Thumb Code     2  stm32f1xx_hal_cortex.o(.text)
    HAL_SYSTICK_IRQHandler                   0x080024f7   Thumb Code     8  stm32f1xx_hal_cortex.o(.text)
    HAL_RCC_DeInit                           0x08002521   Thumb Code    64  stm32f1xx_hal_rcc.o(.text)
    HAL_RCC_OscConfig                        0x08002585   Thumb Code  1090  stm32f1xx_hal_rcc.o(.text)
    HAL_RCC_GetSysClockFreq                  0x080029c7   Thumb Code   118  stm32f1xx_hal_rcc.o(.text)
    HAL_RCC_ClockConfig                      0x08002a3d   Thumb Code   402  stm32f1xx_hal_rcc.o(.text)
    HAL_RCC_MCOConfig                        0x08002bcf   Thumb Code    92  stm32f1xx_hal_rcc.o(.text)
    HAL_RCC_EnableCSS                        0x08002c2b   Thumb Code     8  stm32f1xx_hal_rcc.o(.text)
    HAL_RCC_DisableCSS                       0x08002c33   Thumb Code     8  stm32f1xx_hal_rcc.o(.text)
    HAL_RCC_GetHCLKFreq                      0x08002c3b   Thumb Code     6  stm32f1xx_hal_rcc.o(.text)
    HAL_RCC_GetPCLK1Freq                     0x08002c41   Thumb Code    22  stm32f1xx_hal_rcc.o(.text)
    HAL_RCC_GetPCLK2Freq                     0x08002c57   Thumb Code    22  stm32f1xx_hal_rcc.o(.text)
    HAL_RCC_GetOscConfig                     0x08002c6d   Thumb Code   254  stm32f1xx_hal_rcc.o(.text)
    HAL_RCC_GetClockConfig                   0x08002d6b   Thumb Code    58  stm32f1xx_hal_rcc.o(.text)
    HAL_RCC_CSSCallback                      0x08002da5   Thumb Code     2  stm32f1xx_hal_rcc.o(.text)
    HAL_RCC_NMI_IRQHandler                   0x08002da7   Thumb Code    26  stm32f1xx_hal_rcc.o(.text)
    HAL_UART_Init                            0x08002f8d   Thumb Code   114  stm32f1xx_hal_uart.o(.text)
    HAL_HalfDuplex_Init                      0x08002fff   Thumb Code   118  stm32f1xx_hal_uart.o(.text)
    HAL_LIN_Init                             0x08003075   Thumb Code   134  stm32f1xx_hal_uart.o(.text)
    HAL_MultiProcessor_Init                  0x080030fb   Thumb Code   138  stm32f1xx_hal_uart.o(.text)
    HAL_UART_DeInit                          0x08003187   Thumb Code    46  stm32f1xx_hal_uart.o(.text)
    HAL_UART_Transmit                        0x08003225   Thumb Code   214  stm32f1xx_hal_uart.o(.text)
    HAL_UART_Receive                         0x080032fb   Thumb Code   222  stm32f1xx_hal_uart.o(.text)
    HAL_UART_Transmit_IT                     0x080033d9   Thumb Code    88  stm32f1xx_hal_uart.o(.text)
    HAL_UART_Receive_IT                      0x08003431   Thumb Code   112  stm32f1xx_hal_uart.o(.text)
    HAL_UART_ErrorCallback                   0x080034a1   Thumb Code     2  stm32f1xx_hal_uart.o(.text)
    HAL_UART_TxHalfCpltCallback              0x08003527   Thumb Code     2  stm32f1xx_hal_uart.o(.text)
    HAL_UART_TxCpltCallback                  0x08003537   Thumb Code     2  stm32f1xx_hal_uart.o(.text)
    HAL_UART_Transmit_DMA                    0x0800356f   Thumb Code   142  stm32f1xx_hal_uart.o(.text)
    HAL_UART_RxHalfCpltCallback              0x080035fd   Thumb Code     2  stm32f1xx_hal_uart.o(.text)
    HAL_UART_RxCpltCallback                  0x0800360d   Thumb Code     2  stm32f1xx_hal_uart.o(.text)
    HAL_UART_Receive_DMA                     0x08003655   Thumb Code   182  stm32f1xx_hal_uart.o(.text)
    HAL_UART_DMAPause                        0x0800370b   Thumb Code   124  stm32f1xx_hal_uart.o(.text)
    HAL_UART_DMAResume                       0x08003787   Thumb Code   126  stm32f1xx_hal_uart.o(.text)
    HAL_UART_DMAStop                         0x08003805   Thumb Code   102  stm32f1xx_hal_uart.o(.text)
    HAL_UART_Abort                           0x0800386b   Thumb Code   126  stm32f1xx_hal_uart.o(.text)
    HAL_UART_AbortTransmit                   0x080038e9   Thumb Code    68  stm32f1xx_hal_uart.o(.text)
    HAL_UART_AbortReceive                    0x0800392d   Thumb Code    80  stm32f1xx_hal_uart.o(.text)
    HAL_UART_AbortCpltCallback               0x0800397d   Thumb Code     2  stm32f1xx_hal_uart.o(.text)
    HAL_UART_Abort_IT                        0x080039fd   Thumb Code   208  stm32f1xx_hal_uart.o(.text)
    HAL_UART_AbortTransmitCpltCallback       0x08003acd   Thumb Code     2  stm32f1xx_hal_uart.o(.text)
    HAL_UART_AbortTransmit_IT                0x08003ae7   Thumb Code   102  stm32f1xx_hal_uart.o(.text)
    HAL_UART_AbortReceiveCpltCallback        0x08003b4d   Thumb Code     2  stm32f1xx_hal_uart.o(.text)
    HAL_UART_AbortReceive_IT                 0x08003b67   Thumb Code   114  stm32f1xx_hal_uart.o(.text)
    HAL_UART_IRQHandler                      0x08003d1b   Thumb Code   348  stm32f1xx_hal_uart.o(.text)
    HAL_LIN_SendBreak                        0x08003e77   Thumb Code    62  stm32f1xx_hal_uart.o(.text)
    HAL_MultiProcessor_EnterMuteMode         0x08003eb5   Thumb Code    62  stm32f1xx_hal_uart.o(.text)
    HAL_MultiProcessor_ExitMuteMode          0x08003ef3   Thumb Code    62  stm32f1xx_hal_uart.o(.text)
    HAL_HalfDuplex_EnableTransmitter         0x08003f31   Thumb Code    68  stm32f1xx_hal_uart.o(.text)
    HAL_HalfDuplex_EnableReceiver            0x08003f75   Thumb Code    68  stm32f1xx_hal_uart.o(.text)
    HAL_UART_GetState                        0x08003fb9   Thumb Code    20  stm32f1xx_hal_uart.o(.text)
    HAL_UART_GetError                        0x08003fcd   Thumb Code     6  stm32f1xx_hal_uart.o(.text)
    HAL_InitTick                             0x08003fd7   Thumb Code    36  stm32f1xx_hal.o(.text)
    HAL_Init                                 0x08003ffb   Thumb Code    34  stm32f1xx_hal.o(.text)
    HAL_MspDeInit                            0x0800401d   Thumb Code     2  stm32f1xx_hal.o(.text)
    HAL_DeInit                               0x0800401f   Thumb Code    30  stm32f1xx_hal.o(.text)
    HAL_IncTick                              0x0800403d   Thumb Code    12  stm32f1xx_hal.o(.text)
    HAL_GetTick                              0x08004049   Thumb Code     6  stm32f1xx_hal.o(.text)
    HAL_Delay                                0x0800404f   Thumb Code    30  stm32f1xx_hal.o(.text)
    HAL_SuspendTick                          0x0800406d   Thumb Code    18  stm32f1xx_hal.o(.text)
    HAL_ResumeTick                           0x0800407f   Thumb Code    18  stm32f1xx_hal.o(.text)
    HAL_GetHalVersion                        0x08004091   Thumb Code     4  stm32f1xx_hal.o(.text)
    HAL_GetREVID                             0x08004095   Thumb Code     8  stm32f1xx_hal.o(.text)
    HAL_GetDEVID                             0x0800409d   Thumb Code    10  stm32f1xx_hal.o(.text)
    HAL_DBGMCU_EnableDBGSleepMode            0x080040a7   Thumb Code    14  stm32f1xx_hal.o(.text)
    HAL_DBGMCU_DisableDBGSleepMode           0x080040b5   Thumb Code    14  stm32f1xx_hal.o(.text)
    HAL_DBGMCU_EnableDBGStopMode             0x080040c3   Thumb Code    14  stm32f1xx_hal.o(.text)
    HAL_DBGMCU_DisableDBGStopMode            0x080040d1   Thumb Code    14  stm32f1xx_hal.o(.text)
    HAL_DBGMCU_EnableDBGStandbyMode          0x080040df   Thumb Code    14  stm32f1xx_hal.o(.text)
    HAL_DBGMCU_DisableDBGStandbyMode         0x080040ed   Thumb Code    14  stm32f1xx_hal.o(.text)
    HAL_GetUID                               0x080040fb   Thumb Code    24  stm32f1xx_hal.o(.text)
    Reset_Handler                            0x08004131   Thumb Code     8  startup_stm32f103xe.o(.text)
    SVC_Handler                              0x08004143   Thumb Code     2  startup_stm32f103xe.o(.text)
    ADC1_2_IRQHandler                        0x0800414b   Thumb Code     0  startup_stm32f103xe.o(.text)
    ADC3_IRQHandler                          0x0800414b   Thumb Code     0  startup_stm32f103xe.o(.text)
    CAN1_RX1_IRQHandler                      0x0800414b   Thumb Code     0  startup_stm32f103xe.o(.text)
    CAN1_SCE_IRQHandler                      0x0800414b   Thumb Code     0  startup_stm32f103xe.o(.text)
    DMA1_Channel1_IRQHandler                 0x0800414b   Thumb Code     0  startup_stm32f103xe.o(.text)
    DMA1_Channel2_IRQHandler                 0x0800414b   Thumb Code     0  startup_stm32f103xe.o(.text)
    DMA1_Channel3_IRQHandler                 0x0800414b   Thumb Code     0  startup_stm32f103xe.o(.text)
    DMA1_Channel4_IRQHandler                 0x0800414b   Thumb Code     0  startup_stm32f103xe.o(.text)
    DMA1_Channel5_IRQHandler                 0x0800414b   Thumb Code     0  startup_stm32f103xe.o(.text)
    DMA1_Channel6_IRQHandler                 0x0800414b   Thumb Code     0  startup_stm32f103xe.o(.text)
    DMA1_Channel7_IRQHandler                 0x0800414b   Thumb Code     0  startup_stm32f103xe.o(.text)
    DMA2_Channel1_IRQHandler                 0x0800414b   Thumb Code     0  startup_stm32f103xe.o(.text)
    DMA2_Channel2_IRQHandler                 0x0800414b   Thumb Code     0  startup_stm32f103xe.o(.text)
    DMA2_Channel3_IRQHandler                 0x0800414b   Thumb Code     0  startup_stm32f103xe.o(.text)
    DMA2_Channel4_5_IRQHandler               0x0800414b   Thumb Code     0  startup_stm32f103xe.o(.text)
    FLASH_IRQHandler                         0x0800414b   Thumb Code     0  startup_stm32f103xe.o(.text)
    FSMC_IRQHandler                          0x0800414b   Thumb Code     0  startup_stm32f103xe.o(.text)
    I2C1_ER_IRQHandler                       0x0800414b   Thumb Code     0  startup_stm32f103xe.o(.text)
    I2C1_EV_IRQHandler                       0x0800414b   Thumb Code     0  startup_stm32f103xe.o(.text)
    I2C2_ER_IRQHandler                       0x0800414b   Thumb Code     0  startup_stm32f103xe.o(.text)
    I2C2_EV_IRQHandler                       0x0800414b   Thumb Code     0  startup_stm32f103xe.o(.text)
    PVD_IRQHandler                           0x0800414b   Thumb Code     0  startup_stm32f103xe.o(.text)
    RCC_IRQHandler                           0x0800414b   Thumb Code     0  startup_stm32f103xe.o(.text)
    RTC_Alarm_IRQHandler                     0x0800414b   Thumb Code     0  startup_stm32f103xe.o(.text)
    RTC_IRQHandler                           0x0800414b   Thumb Code     0  startup_stm32f103xe.o(.text)
    SDIO_IRQHandler                          0x0800414b   Thumb Code     0  startup_stm32f103xe.o(.text)
    SPI1_IRQHandler                          0x0800414b   Thumb Code     0  startup_stm32f103xe.o(.text)
    SPI2_IRQHandler                          0x0800414b   Thumb Code     0  startup_stm32f103xe.o(.text)
    SPI3_IRQHandler                          0x0800414b   Thumb Code     0  startup_stm32f103xe.o(.text)
    TAMPER_IRQHandler                        0x0800414b   Thumb Code     0  startup_stm32f103xe.o(.text)
    TIM1_BRK_IRQHandler                      0x0800414b   Thumb Code     0  startup_stm32f103xe.o(.text)
    TIM1_CC_IRQHandler                       0x0800414b   Thumb Code     0  startup_stm32f103xe.o(.text)
    TIM1_TRG_COM_IRQHandler                  0x0800414b   Thumb Code     0  startup_stm32f103xe.o(.text)
    TIM1_UP_IRQHandler                       0x0800414b   Thumb Code     0  startup_stm32f103xe.o(.text)
    TIM2_IRQHandler                          0x0800414b   Thumb Code     0  startup_stm32f103xe.o(.text)
    TIM3_IRQHandler                          0x0800414b   Thumb Code     0  startup_stm32f103xe.o(.text)
    TIM4_IRQHandler                          0x0800414b   Thumb Code     0  startup_stm32f103xe.o(.text)
    TIM5_IRQHandler                          0x0800414b   Thumb Code     0  startup_stm32f103xe.o(.text)
    TIM6_IRQHandler                          0x0800414b   Thumb Code     0  startup_stm32f103xe.o(.text)
    TIM7_IRQHandler                          0x0800414b   Thumb Code     0  startup_stm32f103xe.o(.text)
    TIM8_BRK_IRQHandler                      0x0800414b   Thumb Code     0  startup_stm32f103xe.o(.text)
    TIM8_CC_IRQHandler                       0x0800414b   Thumb Code     0  startup_stm32f103xe.o(.text)
    TIM8_TRG_COM_IRQHandler                  0x0800414b   Thumb Code     0  startup_stm32f103xe.o(.text)
    TIM8_UP_IRQHandler                       0x0800414b   Thumb Code     0  startup_stm32f103xe.o(.text)
    UART4_IRQHandler                         0x0800414b   Thumb Code     0  startup_stm32f103xe.o(.text)
    UART5_IRQHandler                         0x0800414b   Thumb Code     0  startup_stm32f103xe.o(.text)
    USART2_IRQHandler                        0x0800414b   Thumb Code     0  startup_stm32f103xe.o(.text)
    USART3_IRQHandler                        0x0800414b   Thumb Code     0  startup_stm32f103xe.o(.text)
    USBWakeUp_IRQHandler                     0x0800414b   Thumb Code     0  startup_stm32f103xe.o(.text)
    USB_HP_CAN1_TX_IRQHandler                0x0800414b   Thumb Code     0  startup_stm32f103xe.o(.text)
    USB_LP_CAN1_RX0_IRQHandler               0x0800414b   Thumb Code     0  startup_stm32f103xe.o(.text)
    WWDG_IRQHandler                          0x0800414b   Thumb Code     0  startup_stm32f103xe.o(.text)
    rt_system_tick_init                      0x08004155   Thumb Code     2  clock.o(.text)
    rt_tick_get                              0x08004157   Thumb Code     6  clock.o(.text)
    rt_tick_set                              0x0800415d   Thumb Code    22  clock.o(.text)
    rt_tick_increase                         0x08004173   Thumb Code    42  clock.o(.text)
    rt_tick_from_millisecond                 0x0800419d   Thumb Code    30  clock.o(.text)
    rt_components_board_init                 0x080041d1   Thumb Code    20  components.o(.text)
    rt_components_init                       0x080041e5   Thumb Code    20  components.o(.text)
    main_thread_entry                        0x080041f9   Thumb Code    14  components.o(.text)
    rt_application_init                      0x08004207   Thumb Code    48  components.o(.text)
    rtthread_startup                         0x08004237   Thumb Code    46  components.o(.text)
    main                                     0x08004265   Thumb Code    14  components.o(.text)
    rt_device_find                           0x0800429d   Thumb Code    94  device.o(.text)
    rt_device_register                       0x080042fb   Thumb Code    52  device.o(.text)
    rt_device_unregister                     0x0800432f   Thumb Code    64  device.o(.text)
    rt_device_init_all                       0x0800436f   Thumb Code     4  device.o(.text)
    rt_device_create                         0x08004373   Thumb Code    46  device.o(.text)
    rt_device_destroy                        0x080043a1   Thumb Code    68  device.o(.text)
    rt_device_init                           0x080043e5   Thumb Code    64  device.o(.text)
    rt_device_open                           0x08004425   Thumb Code   174  device.o(.text)
    rt_device_close                          0x080044d3   Thumb Code    92  device.o(.text)
    rt_device_read                           0x0800452f   Thumb Code    98  device.o(.text)
    rt_device_write                          0x08004591   Thumb Code    98  device.o(.text)
    rt_device_control                        0x080045f3   Thumb Code    66  device.o(.text)
    rt_device_set_rx_indicate                0x08004635   Thumb Code    48  device.o(.text)
    rt_device_set_tx_complete                0x08004665   Thumb Code   360  device.o(.text)
    rt_thread_idle_sethook                   0x080047cd   Thumb Code    58  idle.o(.text)
    rt_thread_idle_delhook                   0x08004807   Thumb Code    62  idle.o(.text)
    rt_thread_idle_excute                    0x08004845   Thumb Code   178  idle.o(.text)
    rt_thread_idle_init                      0x08004919   Thumb Code    38  idle.o(.text)
    rt_thread_idle_gethandler                0x0800493f   Thumb Code     4  idle.o(.text)
    rt_sem_init                              0x08004a4d   Thumb Code    50  ipc.o(.text)
    rt_sem_detach                            0x08004a7f   Thumb Code    72  ipc.o(.text)
    rt_sem_create                            0x08004ac7   Thumb Code    84  ipc.o(.text)
    rt_sem_delete                            0x08004b1b   Thumb Code   120  ipc.o(.text)
    rt_sem_take                              0x08004b93   Thumb Code   288  ipc.o(.text)
    rt_sem_trytake                           0x08004cb3   Thumb Code    14  ipc.o(.text)
    rt_sem_release                           0x08004cc1   Thumb Code   116  ipc.o(.text)
    rt_sem_control                           0x08004d35   Thumb Code    90  ipc.o(.text)
    rt_mutex_init                            0x08004d8f   Thumb Code    58  ipc.o(.text)
    rt_mutex_detach                          0x08004dc9   Thumb Code    78  ipc.o(.text)
    rt_mutex_create                          0x08004e17   Thumb Code   454  ipc.o(.text)
    rt_mutex_delete                          0x08004fdd   Thumb Code   126  ipc.o(.text)
    rt_mutex_take                            0x0800505b   Thumb Code   374  ipc.o(.text)
    rt_mutex_release                         0x080051d1   Thumb Code   310  ipc.o(.text)
    rt_mutex_control                         0x08005307   Thumb Code    52  ipc.o(.text)
    rt_event_init                            0x0800533b   Thumb Code    46  ipc.o(.text)
    rt_event_detach                          0x08005369   Thumb Code    78  ipc.o(.text)
    rt_event_create                          0x080053b7   Thumb Code   276  ipc.o(.text)
    rt_event_delete                          0x080054cb   Thumb Code   126  ipc.o(.text)
    rt_event_send                            0x08005549   Thumb Code   234  ipc.o(.text)
    rt_event_recv                            0x08005633   Thumb Code   402  ipc.o(.text)
    rt_event_control                         0x080057c5   Thumb Code    92  ipc.o(.text)
    rt_mb_init                               0x08005821   Thumb Code    76  ipc.o(.text)
    rt_mb_detach                             0x0800586d   Thumb Code   216  ipc.o(.text)
    rt_mb_create                             0x08005945   Thumb Code   128  ipc.o(.text)
    rt_mb_delete                             0x080059c5   Thumb Code   140  ipc.o(.text)
    rt_mb_send_wait                          0x08005a51   Thumb Code   400  ipc.o(.text)
    rt_mb_send                               0x08005be1   Thumb Code    18  ipc.o(.text)
    rt_mb_recv                               0x08005bf3   Thumb Code   576  ipc.o(.text)
    rt_mb_control                            0x08005e33   Thumb Code   104  ipc.o(.text)
    rt_mq_init                               0x08005e9b   Thumb Code   118  ipc.o(.text)
    rt_mq_detach                             0x08005f11   Thumb Code    78  ipc.o(.text)
    rt_mq_delete                             0x08005f5f   Thumb Code   126  ipc.o(.text)
    rt_mq_create                             0x08005fdd   Thumb Code   170  ipc.o(.text)
    rt_mq_send                               0x08006087   Thumb Code   222  ipc.o(.text)
    rt_mq_urgent                             0x08006165   Thumb Code   426  ipc.o(.text)
    rt_mq_recv                               0x0800630f   Thumb Code   458  ipc.o(.text)
    rt_mq_control                            0x080064d9   Thumb Code   120  ipc.o(.text)
    rt_interrupt_enter_sethook               0x080065a9   Thumb Code     6  irq.o(.text)
    rt_interrupt_leave_sethook               0x080065af   Thumb Code     6  irq.o(.text)
    rt_interrupt_enter                       0x080065b5   Thumb Code    46  irq.o(.text)
    rt_interrupt_leave                       0x080065e3   Thumb Code    46  irq.o(.text)
    rt_interrupt_get_nest                    0x08006611   Thumb Code     6  irq.o(.text)
    rt_get_errno                             0x08006625   Thumb Code    32  kservice.o(.text)
    rt_set_errno                             0x08006645   Thumb Code    36  kservice.o(.text)
    _rt_errno                                0x08006669   Thumb Code    30  kservice.o(.text)
    rt_memset                                0x08006687   Thumb Code    72  kservice.o(.text)
    rt_memcpy                                0x080066cf   Thumb Code   124  kservice.o(.text)
    rt_memmove                               0x0800674b   Thumb Code    66  kservice.o(.text)
    rt_memcmp                                0x0800678d   Thumb Code    38  kservice.o(.text)
    rt_strlen                                0x080067b3   Thumb Code    18  kservice.o(.text)
    rt_strstr                                0x080067c5   Thumb Code    58  kservice.o(.text)
    rt_strcasecmp                            0x080067ff   Thumb Code    48  kservice.o(.text)
    rt_strncpy                               0x0800682f   Thumb Code    52  kservice.o(.text)
    rt_strncmp                               0x08006863   Thumb Code    40  kservice.o(.text)
    rt_strcmp                                0x0800688b   Thumb Code    28  kservice.o(.text)
    rt_strnlen                               0x080068a7   Thumb Code    24  kservice.o(.text)
    rt_strdup                                0x080068bf   Thumb Code    40  kservice.o(.text)
    strdup                                   0x080068bf   Thumb Code     0  kservice.o(.text)
    rt_hw_console_output                     0x080068e7   Thumb Code     2  kservice.o(.text)
    rt_vsnprintf                             0x08006a9f   Thumb Code   800  kservice.o(.text)
    rt_kprintf                               0x08006dbf   Thumb Code    96  kservice.o(.text)
    rt_show_version                          0x08006e1f   Thumb Code    38  kservice.o(.text)
    rt_snprintf                              0x08006e45   Thumb Code    38  kservice.o(.text)
    rt_vsprintf                              0x08006e6b   Thumb Code    22  kservice.o(.text)
    rt_sprintf                               0x08006e81   Thumb Code    34  kservice.o(.text)
    rt_console_get_device                    0x08006ea3   Thumb Code     6  kservice.o(.text)
    rt_console_set_device                    0x08006ea9   Thumb Code    48  kservice.o(.text)
    rt_kputs                                 0x08006ed9   Thumb Code    78  kservice.o(.text)
    rt_malloc_align                          0x08006f27   Thumb Code    66  kservice.o(.text)
    rt_free_align                            0x08006f69   Thumb Code    16  kservice.o(.text)
    __rt_ffs                                 0x08006f79   Thumb Code    70  kservice.o(.text)
    rt_assert_set_hook                       0x08006fbf   Thumb Code     6  kservice.o(.text)
    rt_assert_handler                        0x08006fc5   Thumb Code    56  kservice.o(.text)
    rt_malloc_sethook                        0x080070d5   Thumb Code     6  mem.o(.text)
    rt_free_sethook                          0x080070db   Thumb Code     6  mem.o(.text)
    rt_system_heap_init                      0x08007181   Thumb Code   204  mem.o(.text)
    rt_malloc                                0x0800724d   Thumb Code   522  mem.o(.text)
    rt_free                                  0x08007457   Thumb Code   688  mem.o(.text)
    rt_realloc                               0x08007707   Thumb Code   324  mem.o(.text)
    rt_calloc                                0x0800784b   Thumb Code    84  mem.o(.text)
    rt_memory_info                           0x0800789f   Thumb Code    26  mem.o(.text)
    list_mem                                 0x080078b9   Thumb Code    34  mem.o(.text)
    rt_mp_alloc_sethook                      0x080079c9   Thumb Code     6  mempool.o(.text)
    rt_mp_free_sethook                       0x080079cf   Thumb Code     6  mempool.o(.text)
    rt_mp_init                               0x080079d5   Thumb Code   128  mempool.o(.text)
    rt_mp_detach                             0x08007a55   Thumb Code   114  mempool.o(.text)
    rt_mp_create                             0x08007ac7   Thumb Code   174  mempool.o(.text)
    rt_mp_delete                             0x08007b75   Thumb Code   172  mempool.o(.text)
    rt_mp_alloc                              0x08007c21   Thumb Code   278  mempool.o(.text)
    rt_mp_free                               0x08007d37   Thumb Code    98  mempool.o(.text)
    rt_object_attach_sethook                 0x08007ed9   Thumb Code     6  object.o(.text)
    rt_object_detach_sethook                 0x08007edf   Thumb Code     6  object.o(.text)
    rt_object_trytake_sethook                0x08007ee5   Thumb Code     6  object.o(.text)
    rt_object_take_sethook                   0x08007eeb   Thumb Code     6  object.o(.text)
    rt_object_put_sethook                    0x08007ef1   Thumb Code     6  object.o(.text)
    rt_system_object_init                    0x08007ef7   Thumb Code     2  object.o(.text)
    rt_object_get_information                0x08007ef9   Thumb Code    36  object.o(.text)
    rt_object_init                           0x08007f1d   Thumb Code    92  object.o(.text)
    rt_object_detach                         0x08007f79   Thumb Code    62  object.o(.text)
    rt_object_allocate                       0x08007fb7   Thumb Code   158  object.o(.text)
    rt_object_delete                         0x08008055   Thumb Code    88  object.o(.text)
    rt_object_is_systemobject                0x080080ad   Thumb Code    34  object.o(.text)
    rt_object_get_type                       0x080080cf   Thumb Code    26  object.o(.text)
    rt_object_find                           0x080080e9   Thumb Code   142  object.o(.text)
    rt_scheduler_sethook                     0x08008231   Thumb Code     6  scheduler.o(.text)
    rt_system_scheduler_init                 0x08008291   Thumb Code    56  scheduler.o(.text)
    rt_system_scheduler_start                0x080082c9   Thumb Code    36  scheduler.o(.text)
    rt_schedule                              0x080082ed   Thumb Code   160  scheduler.o(.text)
    rt_schedule_insert_thread                0x0800838d   Thumb Code    90  scheduler.o(.text)
    rt_schedule_remove_thread                0x080083e7   Thumb Code    94  scheduler.o(.text)
    rt_enter_critical                        0x08008445   Thumb Code    28  scheduler.o(.text)
    rt_exit_critical                         0x08008461   Thumb Code    54  scheduler.o(.text)
    rt_critical_level                        0x08008497   Thumb Code     8  scheduler.o(.text)
    rt_thread_handle_sig                     0x0800853b   Thumb Code   156  signal.o(.text)
    rt_thread_alloc_sig                      0x080086a9   Thumb Code    62  signal.o(.text)
    rt_signal_install                        0x080086e7   Thumb Code    98  signal.o(.text)
    rt_signal_mask                           0x08008749   Thumb Code    34  signal.o(.text)
    rt_signal_unmask                         0x0800876b   Thumb Code    56  signal.o(.text)
    rt_signal_wait                           0x080087a3   Thumb Code   346  signal.o(.text)
    rt_thread_free_sig                       0x080088fd   Thumb Code    66  signal.o(.text)
    rt_thread_kill                           0x0800893f   Thumb Code   236  signal.o(.text)
    rt_system_signal_init                    0x08008a2b   Thumb Code    38  signal.o(.text)
    rt_timer_timeout_sethook                 0x08008b0b   Thumb Code     6  timer.o(.text)
    rt_timer_init                            0x08008b9d   Thumb Code    58  timer.o(.text)
    rt_timer_detach                          0x08008bd7   Thumb Code    82  timer.o(.text)
    rt_timer_create                          0x08008c29   Thumb Code    54  timer.o(.text)
    rt_timer_delete                          0x08008c5f   Thumb Code    88  timer.o(.text)
    rt_timer_start                           0x08008cb7   Thumb Code   314  timer.o(.text)
    rt_timer_stop                            0x08008df1   Thumb Code   102  timer.o(.text)
    rt_timer_control                         0x08008e57   Thumb Code    98  timer.o(.text)
    rt_timer_check                           0x08008eb9   Thumb Code   416  timer.o(.text)
    rt_timer_next_timeout_tick               0x08009059   Thumb Code    10  timer.o(.text)
    rt_system_timer_init                     0x08009063   Thumb Code    24  timer.o(.text)
    rt_system_timer_thread_init              0x0800907b   Thumb Code     2  timer.o(.text)
    rt_thread_suspend_sethook                0x080090b9   Thumb Code     6  thread.o(.text)
    rt_thread_resume_sethook                 0x080090bf   Thumb Code     6  thread.o(.text)
    rt_thread_inited_sethook                 0x080090c5   Thumb Code     6  thread.o(.text)
    rt_thread_exit                           0x080090cb   Thumb Code    78  thread.o(.text)
    rt_thread_timeout                        0x08009119   Thumb Code    90  thread.o(.text)
    rt_thread_init                           0x0800921f   Thumb Code    74  thread.o(.text)
    rt_thread_self                           0x08009269   Thumb Code     6  thread.o(.text)
    rt_thread_resume                         0x0800926f   Thumb Code   120  thread.o(.text)
    rt_thread_startup                        0x080092e7   Thumb Code   108  thread.o(.text)
    rt_thread_detach                         0x08009353   Thumb Code   126  thread.o(.text)
    rt_thread_create                         0x080093d1   Thumb Code    80  thread.o(.text)
    rt_thread_delete                         0x08009421   Thumb Code   114  thread.o(.text)
    rt_thread_yield                          0x08009493   Thumb Code   454  thread.o(.text)
    rt_thread_suspend                        0x08009659   Thumb Code   130  thread.o(.text)
    rt_thread_sleep                          0x080096db   Thumb Code    98  thread.o(.text)
    rt_thread_delay                          0x0800973d   Thumb Code    12  thread.o(.text)
    rt_thread_mdelay                         0x08009749   Thumb Code    20  thread.o(.text)
    rt_thread_control                        0x0800975d   Thumb Code   154  thread.o(.text)
    rt_thread_find                           0x080097f7   Thumb Code    96  thread.o(.text)
    rt_hw_stack_init                         0x08009891   Thumb Code    70  cpuport.o(.text)
    rt_hw_exception_install                  0x080098d7   Thumb Code     6  cpuport.o(.text)
    rt_hw_hard_fault_exception               0x08009abb   Thumb Code   198  cpuport.o(.text)
    rt_hw_cpu_shutdown                       0x08009b81   Thumb Code    22  cpuport.o(.text)
    rt_hw_interrupt_disable                  0x08009e65   Thumb Code     8  context_rvds.o(.text)
    rt_hw_interrupt_enable                   0x08009e6d   Thumb Code     6  context_rvds.o(.text)
    rt_hw_context_switch                     0x08009e73   Thumb Code    32  context_rvds.o(.text)
    rt_hw_context_switch_interrupt           0x08009e73   Thumb Code     0  context_rvds.o(.text)
    PendSV_Handler                           0x08009e93   Thumb Code    60  context_rvds.o(.text)
    rt_hw_context_switch_to                  0x08009ecf   Thumb Code    58  context_rvds.o(.text)
    rt_hw_interrupt_thread_switch            0x08009f09   Thumb Code     2  context_rvds.o(.text)
    HardFault_Handler                        0x08009f0b   Thumb Code    48  context_rvds.o(.text)
    rt_device_pin_register                   0x0800a005   Thumb Code    56  pin.o(.text)
    rt_pin_attach_irq                        0x0800a03d   Thumb Code    60  pin.o(.text)
    rt_pin_dettach_irq                       0x0800a079   Thumb Code    46  pin.o(.text)
    rt_pin_irq_enable                        0x0800a0a7   Thumb Code    50  pin.o(.text)
    rt_pin_mode                              0x0800a0d9   Thumb Code    38  pin.o(.text)
    rt_pin_write                             0x0800a0ff   Thumb Code    38  pin.o(.text)
    rt_pin_read                              0x0800a125   Thumb Code    34  pin.o(.text)
    rt_hw_serial_register                    0x0800a49d   Thumb Code    80  serial.o(.text)
    rt_hw_serial_isr                         0x0800a4ed   Thumb Code   316  serial.o(.text)
    finsh_get_prompt                         0x0800a6d5   Thumb Code    38  shell.o(.text)
    finsh_set_device                         0x0800a759   Thumb Code   156  shell.o(.text)
    finsh_get_device                         0x0800a7f5   Thumb Code    28  shell.o(.text)
    finsh_set_echo                           0x0800a811   Thumb Code    30  shell.o(.text)
    finsh_get_echo                           0x0800a82f   Thumb Code    32  shell.o(.text)
    finsh_thread_entry                       0x0800a971   Thumb Code  1358  shell.o(.text)
    finsh_system_function_init               0x0800aebf   Thumb Code    10  shell.o(.text)
    finsh_system_var_init                    0x0800aec9   Thumb Code    10  shell.o(.text)
    finsh_system_init                        0x0800aed3   Thumb Code    96  shell.o(.text)
    hello                                    0x0800afa5   Thumb Code    12  cmd.o(.text)
    version                                  0x0800afb1   Thumb Code    10  cmd.o(.text)
    list_thread                              0x0800b0c3   Thumb Code    18  cmd.o(.text)
    list_sem                                 0x0800b18b   Thumb Code    18  cmd.o(.text)
    list_event                               0x0800b21f   Thumb Code    18  cmd.o(.text)
    list_mutex                               0x0800b291   Thumb Code    18  cmd.o(.text)
    list_mailbox                             0x0800b339   Thumb Code    18  cmd.o(.text)
    list_msgqueue                            0x0800b6a3   Thumb Code    18  cmd.o(.text)
    list_memheap                             0x0800b709   Thumb Code    18  cmd.o(.text)
    list_mempool                             0x0800b7a5   Thumb Code    18  cmd.o(.text)
    list_timer                               0x0800b82b   Thumb Code    18  cmd.o(.text)
    list_device                              0x0800b8ab   Thumb Code    18  cmd.o(.text)
    list                                     0x0800b8bd   Thumb Code    54  cmd.o(.text)
    msh_is_used                              0x0800bb8d   Thumb Code     4  msh.o(.text)
    msh_help                                 0x0800bb91   Thumb Code    66  msh.o(.text)
    msh_exec                                 0x0800bd71   Thumb Code    82  msh.o(.text)
    msh_auto_complete                        0x0800bde3   Thumb Code   138  msh.o(.text)
    cmd_ps                                   0x0800bef5   Thumb Code    14  msh_cmd.o(.text)
    cmd_time                                 0x0800bf03   Thumb Code     6  msh_cmd.o(.text)
    cmd_free                                 0x0800bf09   Thumb Code    14  msh_cmd.o(.text)
    thread1_entry                            0x0800bf19   Thumb Code    76  dynmem_sample.o(.text)
    dynmem_sample                            0x0800bf65   Thumb Code    40  dynmem_sample.o(.text)
    event_sample                             0x0800c07d   Thumb Code   104  event_sample.o(.text)
    idle_hook_sample                         0x0800c269   Thumb Code    52  idlehook_sample.o(.text)
    thread_entry                             0x0800c325   Thumb Code    52  interrupt_sample.o(.text)
    interrupt_sample                         0x0800c359   Thumb Code    74  interrupt_sample.o(.text)
    mailbox_sample                           0x0800c453   Thumb Code   112  mailbox_sample.o(.text)
    mempool_sample                           0x0800c5e1   Thumb Code   122  memp_sample.o(.text)
    msgq_sample                              0x0800c78f   Thumb Code   118  msgq_sample.o(.text)
    mutex_sample                             0x0800c9bf   Thumb Code   108  mutex_sample.o(.text)
    pri_inversion                            0x0800cbbb   Thumb Code   156  priority_inversion.o(.text)
    producer_thread_entry                    0x0800cd31   Thumb Code   120  producer_consumer.o(.text)
    consumer_thread_entry                    0x0800cda9   Thumb Code   156  producer_consumer.o(.text)
    producer_consumer                        0x0800ce45   Thumb Code   162  producer_consumer.o(.text)
    scheduler_hook                           0x0800d033   Thumb Code    92  scheduler_hook.o(.text)
    semaphore_sample                         0x0800d15f   Thumb Code   118  semaphore_sample.o(.text)
    thread1_signal_handler                   0x0800d2dd   Thumb Code    14  signal_sample.o(.text)
    signal_sample                            0x0800d319   Thumb Code    64  signal_sample.o(.text)
    thread_sample                            0x0800d3d1   Thumb Code    84  thread_sample.o(.text)
    timer_sample                             0x0800d4bb   Thumb Code    74  timer_sample.o(.text)
    timeslice_sample                         0x0800d5b1   Thumb Code    70  timeslice_sample.o(.text)
    __aeabi_memcpy                           0x0800d639   Thumb Code    36  memcpya.o(.text)
    __aeabi_memcpy4                          0x0800d639   Thumb Code     0  memcpya.o(.text)
    __aeabi_memcpy8                          0x0800d639   Thumb Code     0  memcpya.o(.text)
    __aeabi_memset                           0x0800d65d   Thumb Code    14  memseta.o(.text)
    __aeabi_memset4                          0x0800d65d   Thumb Code     0  memseta.o(.text)
    __aeabi_memset8                          0x0800d65d   Thumb Code     0  memseta.o(.text)
    __aeabi_memclr                           0x0800d66b   Thumb Code     4  memseta.o(.text)
    __aeabi_memclr4                          0x0800d66b   Thumb Code     0  memseta.o(.text)
    __aeabi_memclr8                          0x0800d66b   Thumb Code     0  memseta.o(.text)
    _memset$wrapper                          0x0800d66f   Thumb Code    18  memseta.o(.text)
    strcat                                   0x0800d681   Thumb Code    24  strcat.o(.text)
    strlen                                   0x0800d699   Thumb Code    14  strlen.o(.text)
    memcmp                                   0x0800d6a7   Thumb Code    26  memcmp.o(.text)
    strcpy                                   0x0800d6c1   Thumb Code    18  strcpy.o(.text)
    strncmp                                  0x0800d6d3   Thumb Code    30  strncmp.o(.text)
    __scatterload                            0x0800d6f1   Thumb Code    28  init.o(.text)
    __scatterload_rt2                        0x0800d6f1   Thumb Code     0  init.o(.text)
    __decompress                             0x0800d715   Thumb Code     0  __dczerorl2.o(.text)
    __decompress1                            0x0800d715   Thumb Code    86  __dczerorl2.o(.text)
    __scatterload_copy                       0x0800d76b   Thumb Code    14  handlers.o(i.__scatterload_copy)
    __scatterload_null                       0x0800d779   Thumb Code     2  handlers.o(i.__scatterload_null)
    __scatterload_zeroinit                   0x0800d77b   Thumb Code    14  handlers.o(i.__scatterload_zeroinit)
    AHBPrescTable                            0x0800e173   Data          16  system_stm32f1xx.o(.constdata)
    APBPrescTable                            0x0800e183   Data           8  system_stm32f1xx.o(.constdata)
    __lowest_bit_bitmap                      0x0800e475   Data         256  kservice.o(.constdata)
    __fsym___cmd_led_name                    0x0800ee79   Data          10  main.o(.rodata.name)
    __fsym___cmd_led_desc                    0x0800ee83   Data          27  main.o(.rodata.name)
    __fsym_list_mem_name                     0x0800ee9e   Data           9  mem.o(.rodata.name)
    __fsym_list_mem_desc                     0x0800eea7   Data          30  mem.o(.rodata.name)
    __fsym_pinMode_name                      0x0800eec5   Data           8  pin.o(.rodata.name)
    __fsym_pinMode_desc                      0x0800eecd   Data          22  pin.o(.rodata.name)
    __fsym_pinWrite_name                     0x0800eee3   Data           9  pin.o(.rodata.name)
    __fsym_pinWrite_desc                     0x0800eeec   Data          28  pin.o(.rodata.name)
    __fsym_pinRead_name                      0x0800ef08   Data           8  pin.o(.rodata.name)
    __fsym_pinRead_desc                      0x0800ef10   Data          30  pin.o(.rodata.name)
    __fsym_hello_name                        0x0800ef2e   Data           6  cmd.o(.rodata.name)
    __fsym_hello_desc                        0x0800ef34   Data          16  cmd.o(.rodata.name)
    __fsym_version_name                      0x0800ef44   Data           8  cmd.o(.rodata.name)
    __fsym_version_desc                      0x0800ef4c   Data          35  cmd.o(.rodata.name)
    __fsym___cmd_version_name                0x0800ef6f   Data          14  cmd.o(.rodata.name)
    __fsym___cmd_version_desc                0x0800ef7d   Data          35  cmd.o(.rodata.name)
    __fsym_list_thread_name                  0x0800efa0   Data          12  cmd.o(.rodata.name)
    __fsym_list_thread_desc                  0x0800efac   Data          12  cmd.o(.rodata.name)
    __fsym___cmd_list_thread_name            0x0800efb8   Data          18  cmd.o(.rodata.name)
    __fsym___cmd_list_thread_desc            0x0800efca   Data          12  cmd.o(.rodata.name)
    __fsym_list_sem_name                     0x0800efd6   Data           9  cmd.o(.rodata.name)
    __fsym_list_sem_desc                     0x0800efdf   Data          25  cmd.o(.rodata.name)
    __fsym___cmd_list_sem_name               0x0800eff8   Data          15  cmd.o(.rodata.name)
    __fsym___cmd_list_sem_desc               0x0800f007   Data          25  cmd.o(.rodata.name)
    __fsym_list_event_name                   0x0800f020   Data          11  cmd.o(.rodata.name)
    __fsym_list_event_desc                   0x0800f02b   Data          21  cmd.o(.rodata.name)
    __fsym___cmd_list_event_name             0x0800f040   Data          17  cmd.o(.rodata.name)
    __fsym___cmd_list_event_desc             0x0800f051   Data          21  cmd.o(.rodata.name)
    __fsym_list_mutex_name                   0x0800f066   Data          11  cmd.o(.rodata.name)
    __fsym_list_mutex_desc                   0x0800f071   Data          21  cmd.o(.rodata.name)
    __fsym___cmd_list_mutex_name             0x0800f086   Data          17  cmd.o(.rodata.name)
    __fsym___cmd_list_mutex_desc             0x0800f097   Data          21  cmd.o(.rodata.name)
    __fsym_list_mailbox_name                 0x0800f0ac   Data          13  cmd.o(.rodata.name)
    __fsym_list_mailbox_desc                 0x0800f0b9   Data          24  cmd.o(.rodata.name)
    __fsym___cmd_list_mailbox_name           0x0800f0d1   Data          19  cmd.o(.rodata.name)
    __fsym___cmd_list_mailbox_desc           0x0800f0e4   Data          24  cmd.o(.rodata.name)
    __fsym_list_msgqueue_name                0x0800f0fc   Data          14  cmd.o(.rodata.name)
    __fsym_list_msgqueue_desc                0x0800f10a   Data          29  cmd.o(.rodata.name)
    __fsym___cmd_list_msgqueue_name          0x0800f127   Data          20  cmd.o(.rodata.name)
    __fsym___cmd_list_msgqueue_desc          0x0800f13b   Data          29  cmd.o(.rodata.name)
    __fsym_list_memheap_name                 0x0800f158   Data          13  cmd.o(.rodata.name)
    __fsym_list_memheap_desc                 0x0800f165   Data          27  cmd.o(.rodata.name)
    __fsym___cmd_list_memheap_name           0x0800f180   Data          19  cmd.o(.rodata.name)
    __fsym___cmd_list_memheap_desc           0x0800f193   Data          27  cmd.o(.rodata.name)
    __fsym_list_mempool_name                 0x0800f1ae   Data          13  cmd.o(.rodata.name)
    __fsym_list_mempool_desc                 0x0800f1bb   Data          27  cmd.o(.rodata.name)
    __fsym___cmd_list_mempool_name           0x0800f1d6   Data          19  cmd.o(.rodata.name)
    __fsym___cmd_list_mempool_desc           0x0800f1e9   Data          27  cmd.o(.rodata.name)
    __fsym_list_timer_name                   0x0800f204   Data          11  cmd.o(.rodata.name)
    __fsym_list_timer_desc                   0x0800f20f   Data          21  cmd.o(.rodata.name)
    __fsym___cmd_list_timer_name             0x0800f224   Data          17  cmd.o(.rodata.name)
    __fsym___cmd_list_timer_desc             0x0800f235   Data          21  cmd.o(.rodata.name)
    __fsym_list_device_name                  0x0800f24a   Data          12  cmd.o(.rodata.name)
    __fsym_list_device_desc                  0x0800f256   Data          22  cmd.o(.rodata.name)
    __fsym___cmd_list_device_name            0x0800f26c   Data          18  cmd.o(.rodata.name)
    __fsym___cmd_list_device_desc            0x0800f27e   Data          22  cmd.o(.rodata.name)
    __fsym_list_name                         0x0800f294   Data           5  cmd.o(.rodata.name)
    __fsym_list_desc                         0x0800f299   Data          26  cmd.o(.rodata.name)
    __fsym___cmd_help_name                   0x0800f2b3   Data          11  msh.o(.rodata.name)
    __fsym___cmd_help_desc                   0x0800f2be   Data          22  msh.o(.rodata.name)
    __fsym___cmd_ps_name                     0x0800f2d4   Data           9  msh_cmd.o(.rodata.name)
    __fsym___cmd_ps_desc                     0x0800f2dd   Data          28  msh_cmd.o(.rodata.name)
    __fsym___cmd_time_name                   0x0800f2f9   Data          11  msh_cmd.o(.rodata.name)
    __fsym___cmd_time_desc                   0x0800f304   Data          27  msh_cmd.o(.rodata.name)
    __fsym___cmd_free_name                   0x0800f31f   Data          11  msh_cmd.o(.rodata.name)
    __fsym___cmd_free_desc                   0x0800f32a   Data          37  msh_cmd.o(.rodata.name)
    __fsym___cmd_dynmem_sample_name          0x0800f34f   Data          20  dynmem_sample.o(.rodata.name)
    __fsym___cmd_dynmem_sample_desc          0x0800f363   Data          14  dynmem_sample.o(.rodata.name)
    __fsym___cmd_event_sample_name           0x0800f371   Data          19  event_sample.o(.rodata.name)
    __fsym___cmd_event_sample_desc           0x0800f384   Data          13  event_sample.o(.rodata.name)
    __fsym___cmd_idle_hook_sample_name       0x0800f391   Data          23  idlehook_sample.o(.rodata.name)
    __fsym___cmd_idle_hook_sample_desc       0x0800f3a8   Data          17  idlehook_sample.o(.rodata.name)
    __fsym___cmd_interrupt_sample_name       0x0800f3b9   Data          23  interrupt_sample.o(.rodata.name)
    __fsym___cmd_interrupt_sample_desc       0x0800f3d0   Data          17  interrupt_sample.o(.rodata.name)
    __fsym___cmd_mailbox_sample_name         0x0800f3e1   Data          21  mailbox_sample.o(.rodata.name)
    __fsym___cmd_mailbox_sample_desc         0x0800f3f6   Data          15  mailbox_sample.o(.rodata.name)
    __fsym___cmd_mempool_sample_name         0x0800f405   Data          21  memp_sample.o(.rodata.name)
    __fsym___cmd_mempool_sample_desc         0x0800f41a   Data          15  memp_sample.o(.rodata.name)
    __fsym___cmd_msgq_sample_name            0x0800f429   Data          18  msgq_sample.o(.rodata.name)
    __fsym___cmd_msgq_sample_desc            0x0800f43b   Data          12  msgq_sample.o(.rodata.name)
    __fsym___cmd_mutex_sample_name           0x0800f447   Data          19  mutex_sample.o(.rodata.name)
    __fsym___cmd_mutex_sample_desc           0x0800f45a   Data          13  mutex_sample.o(.rodata.name)
    __fsym___cmd_pri_inversion_name          0x0800f467   Data          20  priority_inversion.o(.rodata.name)
    __fsym___cmd_pri_inversion_desc          0x0800f47b   Data          21  priority_inversion.o(.rodata.name)
    __fsym___cmd_producer_consumer_name      0x0800f490   Data          24  producer_consumer.o(.rodata.name)
    __fsym___cmd_producer_consumer_desc      0x0800f4a8   Data          25  producer_consumer.o(.rodata.name)
    __fsym___cmd_scheduler_hook_name         0x0800f4c1   Data          21  scheduler_hook.o(.rodata.name)
    __fsym___cmd_scheduler_hook_desc         0x0800f4d6   Data          22  scheduler_hook.o(.rodata.name)
    __fsym___cmd_semaphore_sample_name       0x0800f4ec   Data          23  semaphore_sample.o(.rodata.name)
    __fsym___cmd_semaphore_sample_desc       0x0800f503   Data          17  semaphore_sample.o(.rodata.name)
    __fsym___cmd_signal_sample_name          0x0800f514   Data          20  signal_sample.o(.rodata.name)
    __fsym___cmd_signal_sample_desc          0x0800f528   Data          14  signal_sample.o(.rodata.name)
    __fsym___cmd_thread_sample_name          0x0800f536   Data          20  thread_sample.o(.rodata.name)
    __fsym___cmd_thread_sample_desc          0x0800f54a   Data          14  thread_sample.o(.rodata.name)
    __fsym___cmd_timer_sample_name           0x0800f558   Data          19  timer_sample.o(.rodata.name)
    __fsym___cmd_timer_sample_desc           0x0800f56b   Data          13  timer_sample.o(.rodata.name)
    __fsym___cmd_timeslice_sample_name       0x0800f578   Data          23  timeslice_sample.o(.rodata.name)
    __fsym___cmd_timeslice_sample_desc       0x0800f58f   Data          17  timeslice_sample.o(.rodata.name)
    __rt_init_rti_start                      0x0800f5a0   Data           4  components.o(.rti_fn.0)
    __rt_init_rti_board_start                0x0800f5a4   Data           4  components.o(.rti_fn.0.end)
    __rt_init_rt_hw_pin_init                 0x0800f5a8   Data           4  drv_gpio.o(.rti_fn.1)
    __rt_init_rt_hw_usart_init               0x0800f5ac   Data           4  drv_usart.o(.rti_fn.1)
    __rt_init_rti_board_end                  0x0800f5b0   Data           4  components.o(.rti_fn.1.end)
    __rt_init_finsh_system_init              0x0800f5b4   Data           4  shell.o(.rti_fn.6)
    __rt_init_rti_end                        0x0800f5b8   Data           4  components.o(.rti_fn.6.end)
    FSymTab$$Base                            0x0800f5bc   Number         0  main.o(FSymTab)
    __fsym___cmd_led                         0x0800f5bc   Data          12  main.o(FSymTab)
    __fsym_list_mem                          0x0800f5c8   Data          12  mem.o(FSymTab)
    __fsym_pinMode                           0x0800f5d4   Data          12  pin.o(FSymTab)
    __fsym_pinWrite                          0x0800f5e0   Data          12  pin.o(FSymTab)
    __fsym_pinRead                           0x0800f5ec   Data          12  pin.o(FSymTab)
    __fsym_hello                             0x0800f5f8   Data          12  cmd.o(FSymTab)
    __fsym_version                           0x0800f604   Data          12  cmd.o(FSymTab)
    __fsym___cmd_version                     0x0800f610   Data          12  cmd.o(FSymTab)
    __fsym_list_thread                       0x0800f61c   Data          12  cmd.o(FSymTab)
    __fsym___cmd_list_thread                 0x0800f628   Data          12  cmd.o(FSymTab)
    __fsym_list_sem                          0x0800f634   Data          12  cmd.o(FSymTab)
    __fsym___cmd_list_sem                    0x0800f640   Data          12  cmd.o(FSymTab)
    __fsym_list_event                        0x0800f64c   Data          12  cmd.o(FSymTab)
    __fsym___cmd_list_event                  0x0800f658   Data          12  cmd.o(FSymTab)
    __fsym_list_mutex                        0x0800f664   Data          12  cmd.o(FSymTab)
    __fsym___cmd_list_mutex                  0x0800f670   Data          12  cmd.o(FSymTab)
    __fsym_list_mailbox                      0x0800f67c   Data          12  cmd.o(FSymTab)
    __fsym___cmd_list_mailbox                0x0800f688   Data          12  cmd.o(FSymTab)
    __fsym_list_msgqueue                     0x0800f694   Data          12  cmd.o(FSymTab)
    __fsym___cmd_list_msgqueue               0x0800f6a0   Data          12  cmd.o(FSymTab)
    __fsym_list_memheap                      0x0800f6ac   Data          12  cmd.o(FSymTab)
    __fsym___cmd_list_memheap                0x0800f6b8   Data          12  cmd.o(FSymTab)
    __fsym_list_mempool                      0x0800f6c4   Data          12  cmd.o(FSymTab)
    __fsym___cmd_list_mempool                0x0800f6d0   Data          12  cmd.o(FSymTab)
    __fsym_list_timer                        0x0800f6dc   Data          12  cmd.o(FSymTab)
    __fsym___cmd_list_timer                  0x0800f6e8   Data          12  cmd.o(FSymTab)
    __fsym_list_device                       0x0800f6f4   Data          12  cmd.o(FSymTab)
    __fsym___cmd_list_device                 0x0800f700   Data          12  cmd.o(FSymTab)
    __fsym_list                              0x0800f70c   Data          12  cmd.o(FSymTab)
    __fsym___cmd_help                        0x0800f718   Data          12  msh.o(FSymTab)
    __fsym___cmd_ps                          0x0800f724   Data          12  msh_cmd.o(FSymTab)
    __fsym___cmd_time                        0x0800f730   Data          12  msh_cmd.o(FSymTab)
    __fsym___cmd_free                        0x0800f73c   Data          12  msh_cmd.o(FSymTab)
    __fsym___cmd_dynmem_sample               0x0800f748   Data          12  dynmem_sample.o(FSymTab)
    __fsym___cmd_event_sample                0x0800f754   Data          12  event_sample.o(FSymTab)
    __fsym___cmd_idle_hook_sample            0x0800f760   Data          12  idlehook_sample.o(FSymTab)
    __fsym___cmd_interrupt_sample            0x0800f76c   Data          12  interrupt_sample.o(FSymTab)
    __fsym___cmd_mailbox_sample              0x0800f778   Data          12  mailbox_sample.o(FSymTab)
    __fsym___cmd_mempool_sample              0x0800f784   Data          12  memp_sample.o(FSymTab)
    __fsym___cmd_msgq_sample                 0x0800f790   Data          12  msgq_sample.o(FSymTab)
    __fsym___cmd_mutex_sample                0x0800f79c   Data          12  mutex_sample.o(FSymTab)
    __fsym___cmd_pri_inversion               0x0800f7a8   Data          12  priority_inversion.o(FSymTab)
    __fsym___cmd_producer_consumer           0x0800f7b4   Data          12  producer_consumer.o(FSymTab)
    __fsym___cmd_scheduler_hook              0x0800f7c0   Data          12  scheduler_hook.o(FSymTab)
    __fsym___cmd_semaphore_sample            0x0800f7cc   Data          12  semaphore_sample.o(FSymTab)
    __fsym___cmd_signal_sample               0x0800f7d8   Data          12  signal_sample.o(FSymTab)
    __fsym___cmd_thread_sample               0x0800f7e4   Data          12  thread_sample.o(FSymTab)
    __fsym___cmd_timer_sample                0x0800f7f0   Data          12  timer_sample.o(FSymTab)
    __fsym___cmd_timeslice_sample            0x0800f7fc   Data          12  timeslice_sample.o(FSymTab)
    FSymTab$$Limit                           0x0800f808   Number         0  timeslice_sample.o(FSymTab)
    Region$$Table$$Base                      0x0800f808   Number         0  anon$$obj.o(Region$$Table)
    Region$$Table$$Limit                     0x0800f828   Number         0  anon$$obj.o(Region$$Table)
    pin_irq_hdr_tab                          0x20000000   Data         192  drv_gpio.o(.data)
    uart1                                    0x200000c0   Data          68  drv_usart.o(.data)
    SystemCoreClock                          0x20000104   Data           4  system_stm32f1xx.o(.data)
    uwTick                                   0x20000108   Data           4  stm32f1xx_hal.o(.data)
    rt_interrupt_nest                        0x20000118   Data           1  irq.o(.data)
    rt_assert_hook                           0x20000124   Data           4  kservice.o(.data)
    rt_object_trytake_hook                   0x200001f8   Data           4  object.o(.data)
    rt_object_take_hook                      0x200001fc   Data           4  object.o(.data)
    rt_object_put_hook                       0x20000200   Data           4  object.o(.data)
    rt_current_thread                        0x20000208   Data           4  scheduler.o(.data)
    rt_current_priority                      0x2000020c   Data           1  scheduler.o(.data)
    rt_thread_ready_priority_group           0x20000210   Data           4  scheduler.o(.data)
    rt_thread_defunct                        0x20000214   Data           8  scheduler.o(.data)
    rt_interrupt_from_thread                 0x20000240   Data           4  cpuport.o(.data)
    rt_interrupt_to_thread                   0x20000244   Data           4  cpuport.o(.data)
    rt_thread_switch_interrupt_flag          0x20000248   Data           4  cpuport.o(.data)
    shell                                    0x20000250   Data           4  shell.o(.data)
    _syscall_table_begin                     0x20000254   Data           4  symbol.o(.data)
    _syscall_table_end                       0x20000258   Data           4  symbol.o(.data)
    _sysvar_table_begin                      0x2000025c   Data           4  symbol.o(.data)
    _sysvar_table_end                        0x20000260   Data           4  symbol.o(.data)
    count                                    0x200002c8   Data           8  scheduler_hook.o(.data)
    serial1                                  0x200002fc   Data          84  drv_usart.o(.bss)
    rt_thread_priority_table                 0x20000594   Data         256  scheduler.o(.bss)
    array                                    0x20004600   Data          20  producer_consumer.o(.bss)
    sem_lock                                 0x20004614   Data          32  producer_consumer.o(.bss)
    sem_empty                                0x20004634   Data          32  producer_consumer.o(.bss)
    sem_full                                 0x20004654   Data          32  producer_consumer.o(.bss)
    Image$$RW_IRAM1$$ZI$$Limit               0x20005830   Number         0  anon$$obj.o ABSOLUTE
    __initial_sp                             0x20005830   Data           0  startup_stm32f103xe.o(STACK)



==============================================================================

Memory Map of the image

  Image Entry point : 0x08000131

  Load Region LR_IROM1 (Base: 0x08000000, Size: 0x0000fb24, Max: 0x000c0000, ABSOLUTE, COMPRESSED[0x0000f8bc])

    Execution Region ER_IROM1 (Base: 0x08000000, Size: 0x0000f828, Max: 0x000c0000, ABSOLUTE)

    Base Addr    Size         Type   Attr      Idx    E Section Name        Object

    0x08000000   0x00000130   Data   RO         1251    RESET               startup_stm32f103xe.o
    0x08000130   0x00000000   Code   RO         1975  * .ARM.Collect$$$$00000000  mc_w.l(entry.o)
    0x08000130   0x00000004   Code   RO         1996    .ARM.Collect$$$$00000001  mc_w.l(entry2.o)
    0x08000134   0x00000004   Code   RO         1999    .ARM.Collect$$$$00000004  mc_w.l(entry5.o)
    0x08000138   0x00000000   Code   RO         2001    .ARM.Collect$$$$00000008  mc_w.l(entry7b.o)
    0x08000138   0x00000000   Code   RO         2003    .ARM.Collect$$$$0000000A  mc_w.l(entry8b.o)
    0x08000138   0x00000008   Code   RO         2004    .ARM.Collect$$$$0000000B  mc_w.l(entry9a.o)
    0x08000140   0x00000000   Code   RO         2006    .ARM.Collect$$$$0000000D  mc_w.l(entry10a.o)
    0x08000140   0x00000000   Code   RO         2008    .ARM.Collect$$$$0000000F  mc_w.l(entry11a.o)
    0x08000140   0x00000004   Code   RO         1997    .ARM.Collect$$$$00002712  mc_w.l(entry2.o)
    0x08000144   0x00000070   Code   RO            1    .text               main.o
    0x080001b4   0x00000190   Code   RO          111    .text               board.o
    0x08000344   0x00000010   Code   RO          223    .text               stm32f1xx_it.o
    0x08000354   0x0000057c   Code   RO          250    .text               drv_gpio.o
    0x080008d0   0x000004cc   Code   RO          279    .text               drv_usart.o
    0x08000d9c   0x000000f4   Code   RO          316    .text               system_stm32f1xx.o
    0x08000e90   0x000004e8   Code   RO          383    .text               stm32f1xx_hal_gpio.o
    0x08001378   0x00000ee4   Code   RO          483    .text               stm32f1xx_hal_dma.o
    0x0800225c   0x000002c4   Code   RO          507    .text               stm32f1xx_hal_cortex.o
    0x08002520   0x000008a8   Code   RO          631    .text               stm32f1xx_hal_rcc.o
    0x08002dc8   0x0000120a   Code   RO          817    .text               stm32f1xx_hal_uart.o
    0x08003fd2   0x00000002   PAD
    0x08003fd4   0x0000015c   Code   RO          883    .text               stm32f1xx_hal.o
    0x08004130   0x00000024   Code   RO         1252    .text               startup_stm32f103xe.o
    0x08004154   0x0000006c   Code   RO         1256    .text               clock.o
    0x080041c0   0x000000dc   Code   RO         1270    .text               components.o
    0x0800429c   0x00000530   Code   RO         1289    .text               device.o
    0x080047cc   0x000001d4   Code   RO         1302    .text               idle.o
    0x080049a0   0x00001c08   Code   RO         1321    .text               ipc.o
    0x080065a8   0x0000007c   Code   RO         1339    .text               irq.o
    0x08006624   0x00000ab0   Code   RO         1354    .text               kservice.o
    0x080070d4   0x000008f4   Code   RO         1374    .text               mem.o
    0x080079c8   0x000004f0   Code   RO         1420    .text               mempool.o
    0x08007eb8   0x00000378   Code   RO         1438    .text               object.o
    0x08008230   0x00000308   Code   RO         1457    .text               scheduler.o
    0x08008538   0x000005c4   Code   RO         1478    .text               signal.o
    0x08008afc   0x0000059c   Code   RO         1508    .text               timer.o
    0x08009098   0x000007f8   Code   RO         1527    .text               thread.o
    0x08009890   0x000005d4   Code   RO         1547    .text               cpuport.o
    0x08009e64   0x000000f0   Code   RO         1563    .text               context_rvds.o
    0x08009f54   0x00000250   Code   RO         1567    .text               pin.o
    0x0800a1a4   0x00000530   Code   RO         1585    .text               serial.o
    0x0800a6d4   0x000008bc   Code   RO         1598    .text               shell.o
    0x0800af90   0x00000bfc   Code   RO         1639    .text               cmd.o
    0x0800bb8c   0x00000368   Code   RO         1660    .text               msh.o
    0x0800bef4   0x00000022   Code   RO         1677    .text               msh_cmd.o
    0x0800bf16   0x00000002   PAD
    0x0800bf18   0x000000d0   Code   RO         1699    .text               dynmem_sample.o
    0x0800bfe8   0x00000204   Code   RO         1715    .text               event_sample.o
    0x0800c1ec   0x00000138   Code   RO         1732    .text               idlehook_sample.o
    0x0800c324   0x000000b8   Code   RO         1749    .text               interrupt_sample.o
    0x0800c3dc   0x00000194   Code   RO         1766    .text               mailbox_sample.o
    0x0800c570   0x00000160   Code   RO         1784    .text               memp_sample.o
    0x0800c6d0   0x0000025c   Code   RO         1802    .text               msgq_sample.o
    0x0800c92c   0x000001b0   Code   RO         1819    .text               mutex_sample.o
    0x0800cadc   0x00000254   Code   RO         1837    .text               priority_inversion.o
    0x0800cd30   0x000002d8   Code   RO         1854    .text               producer_consumer.o
    0x0800d008   0x000000d8   Code   RO         1872    .text               scheduler_hook.o
    0x0800d0e0   0x000001fc   Code   RO         1889    .text               semaphore_sample.o
    0x0800d2dc   0x000000bc   Code   RO         1907    .text               signal_sample.o
    0x0800d398   0x000000e8   Code   RO         1924    .text               thread_sample.o
    0x0800d480   0x00000104   Code   RO         1942    .text               timer_sample.o
    0x0800d584   0x000000b4   Code   RO         1959    .text               timeslice_sample.o
    0x0800d638   0x00000024   Code   RO         1980    .text               mc_w.l(memcpya.o)
    0x0800d65c   0x00000024   Code   RO         1982    .text               mc_w.l(memseta.o)
    0x0800d680   0x00000018   Code   RO         1984    .text               mc_w.l(strcat.o)
    0x0800d698   0x0000000e   Code   RO         1986    .text               mc_w.l(strlen.o)
    0x0800d6a6   0x0000001a   Code   RO         1988    .text               mc_w.l(memcmp.o)
    0x0800d6c0   0x00000012   Code   RO         1990    .text               mc_w.l(strcpy.o)
    0x0800d6d2   0x0000001e   Code   RO         1992    .text               mc_w.l(strncmp.o)
    0x0800d6f0   0x00000024   Code   RO         2010    .text               mc_w.l(init.o)
    0x0800d714   0x00000056   Code   RO         2020    .text               mc_w.l(__dczerorl2.o)
    0x0800d76a   0x0000000e   Code   RO         2014    i.__scatterload_copy  mc_w.l(handlers.o)
    0x0800d778   0x00000002   Code   RO         2015    i.__scatterload_null  mc_w.l(handlers.o)
    0x0800d77a   0x0000000e   Code   RO         2016    i.__scatterload_zeroinit  mc_w.l(handlers.o)
    0x0800d788   0x00000013   Data   RO          112    .constdata          board.o
    0x0800d79b   0x00000001   PAD
    0x0800d79c   0x00000968   Data   RO          251    .constdata          drv_gpio.o
    0x0800e104   0x0000006f   Data   RO          281    .constdata          drv_usart.o
    0x0800e173   0x00000018   Data   RO          317    .constdata          system_stm32f1xx.o
    0x0800e18b   0x00000014   Data   RO         1271    .constdata          components.o
    0x0800e19f   0x000000c9   Data   RO         1290    .constdata          device.o
    0x0800e268   0x00000016   Data   RO         1304    .constdata          idle.o
    0x0800e27e   0x000001f7   Data   RO         1322    .constdata          ipc.o
    0x0800e475   0x00000122   Data   RO         1356    .constdata          kservice.o
    0x0800e597   0x00000046   Data   RO         1376    .constdata          mem.o
    0x0800e5dd   0x0000003e   Data   RO         1421    .constdata          mempool.o
    0x0800e61b   0x00000080   Data   RO         1439    .constdata          object.o
    0x0800e69b   0x0000004e   Data   RO         1459    .constdata          scheduler.o
    0x0800e6e9   0x00000048   Data   RO         1479    .constdata          signal.o
    0x0800e731   0x0000005c   Data   RO         1509    .constdata          timer.o
    0x0800e78d   0x000000b9   Data   RO         1528    .constdata          thread.o
    0x0800e846   0x00000013   Data   RO         1548    .constdata          cpuport.o
    0x0800e859   0x0000007e   Data   RO         1569    .constdata          pin.o
    0x0800e8d7   0x000000b5   Data   RO         1586    .constdata          serial.o
    0x0800e98c   0x0000005b   Data   RO         1600    .constdata          shell.o
    0x0800e9e7   0x00000001   PAD
    0x0800e9e8   0x00000050   Data   RO         1640    .constdata          cmd.o
    0x0800ea38   0x0000000e   Data   RO         1661    .constdata          msh.o
    0x0800ea46   0x00000002   PAD
    0x0800ea48   0x00000043   Data   RO          113    .conststring        board.o
    0x0800ea8b   0x00000001   PAD
    0x0800ea8c   0x0000015a   Data   RO         1323    .conststring        ipc.o
    0x0800ebe6   0x00000002   PAD
    0x0800ebe8   0x000000ed   Data   RO         1377    .conststring        mem.o
    0x0800ecd5   0x00000003   PAD
    0x0800ecd8   0x00000042   Data   RO         1529    .conststring        thread.o
    0x0800ed1a   0x00000002   PAD
    0x0800ed1c   0x0000015d   Data   RO         1641    .conststring        cmd.o
    0x0800ee79   0x00000025   Data   RO            2    .rodata.name        main.o
    0x0800ee9e   0x00000027   Data   RO         1379    .rodata.name        mem.o
    0x0800eec5   0x00000069   Data   RO         1570    .rodata.name        pin.o
    0x0800ef2e   0x00000385   Data   RO         1642    .rodata.name        cmd.o
    0x0800f2b3   0x00000021   Data   RO         1662    .rodata.name        msh.o
    0x0800f2d4   0x0000007b   Data   RO         1678    .rodata.name        msh_cmd.o
    0x0800f34f   0x00000022   Data   RO         1700    .rodata.name        dynmem_sample.o
    0x0800f371   0x00000020   Data   RO         1717    .rodata.name        event_sample.o
    0x0800f391   0x00000028   Data   RO         1734    .rodata.name        idlehook_sample.o
    0x0800f3b9   0x00000028   Data   RO         1751    .rodata.name        interrupt_sample.o
    0x0800f3e1   0x00000024   Data   RO         1769    .rodata.name        mailbox_sample.o
    0x0800f405   0x00000024   Data   RO         1787    .rodata.name        memp_sample.o
    0x0800f429   0x0000001e   Data   RO         1804    .rodata.name        msgq_sample.o
    0x0800f447   0x00000020   Data   RO         1822    .rodata.name        mutex_sample.o
    0x0800f467   0x00000029   Data   RO         1839    .rodata.name        priority_inversion.o
    0x0800f490   0x00000031   Data   RO         1857    .rodata.name        producer_consumer.o
    0x0800f4c1   0x0000002b   Data   RO         1874    .rodata.name        scheduler_hook.o
    0x0800f4ec   0x00000028   Data   RO         1892    .rodata.name        semaphore_sample.o
    0x0800f514   0x00000022   Data   RO         1909    .rodata.name        signal_sample.o
    0x0800f536   0x00000022   Data   RO         1927    .rodata.name        thread_sample.o
    0x0800f558   0x00000020   Data   RO         1944    .rodata.name        timer_sample.o
    0x0800f578   0x00000028   Data   RO         1960    .rodata.name        timeslice_sample.o
    0x0800f5a0   0x00000004   Data   RO         1272    .rti_fn.0           components.o
    0x0800f5a4   0x00000004   Data   RO         1273    .rti_fn.0.end       components.o
    0x0800f5a8   0x00000004   Data   RO          253    .rti_fn.1           drv_gpio.o
    0x0800f5ac   0x00000004   Data   RO          283    .rti_fn.1           drv_usart.o
    0x0800f5b0   0x00000004   Data   RO         1274    .rti_fn.1.end       components.o
    0x0800f5b4   0x00000004   Data   RO         1602    .rti_fn.6           shell.o
    0x0800f5b8   0x00000004   Data   RO         1275    .rti_fn.6.end       components.o
    0x0800f5bc   0x0000000c   Data   RO            3    FSymTab             main.o
    0x0800f5c8   0x0000000c   Data   RO         1380    FSymTab             mem.o
    0x0800f5d4   0x00000024   Data   RO         1571    FSymTab             pin.o
    0x0800f5f8   0x00000120   Data   RO         1643    FSymTab             cmd.o
    0x0800f718   0x0000000c   Data   RO         1663    FSymTab             msh.o
    0x0800f724   0x00000024   Data   RO         1679    FSymTab             msh_cmd.o
    0x0800f748   0x0000000c   Data   RO         1701    FSymTab             dynmem_sample.o
    0x0800f754   0x0000000c   Data   RO         1718    FSymTab             event_sample.o
    0x0800f760   0x0000000c   Data   RO         1735    FSymTab             idlehook_sample.o
    0x0800f76c   0x0000000c   Data   RO         1752    FSymTab             interrupt_sample.o
    0x0800f778   0x0000000c   Data   RO         1770    FSymTab             mailbox_sample.o
    0x0800f784   0x0000000c   Data   RO         1788    FSymTab             memp_sample.o
    0x0800f790   0x0000000c   Data   RO         1805    FSymTab             msgq_sample.o
    0x0800f79c   0x0000000c   Data   RO         1823    FSymTab             mutex_sample.o
    0x0800f7a8   0x0000000c   Data   RO         1840    FSymTab             priority_inversion.o
    0x0800f7b4   0x0000000c   Data   RO         1858    FSymTab             producer_consumer.o
    0x0800f7c0   0x0000000c   Data   RO         1875    FSymTab             scheduler_hook.o
    0x0800f7cc   0x0000000c   Data   RO         1893    FSymTab             semaphore_sample.o
    0x0800f7d8   0x0000000c   Data   RO         1910    FSymTab             signal_sample.o
    0x0800f7e4   0x0000000c   Data   RO         1928    FSymTab             thread_sample.o
    0x0800f7f0   0x0000000c   Data   RO         1945    FSymTab             timer_sample.o
    0x0800f7fc   0x0000000c   Data   RO         1961    FSymTab             timeslice_sample.o
    0x0800f808   0x00000020   Data   RO         2012    Region$$Table       anon$$obj.o


    Execution Region RW_IRAM1 (Base: 0x20000000, Size: 0x00005830, Max: 0x00018000, ABSOLUTE, COMPRESSED[0x00000094])

    Base Addr    Size         Type   Attr      Idx    E Section Name        Object

    0x20000000   0x000000c0   Data   RW          252    .data               drv_gpio.o
    0x200000c0   0x00000044   Data   RW          282    .data               drv_usart.o
    0x20000104   0x00000004   Data   RW          318    .data               system_stm32f1xx.o
    0x20000108   0x00000004   Data   RW          884    .data               stm32f1xx_hal.o
    0x2000010c   0x00000004   Data   RW         1257    .data               clock.o
    0x20000110   0x00000009   Data   RW         1340    .data               irq.o
    0x20000119   0x00000003   PAD
    0x2000011c   0x0000000c   Data   RW         1357    .data               kservice.o
    0x20000128   0x00000020   Data   RW         1378    .data               mem.o
    0x20000148   0x00000008   Data   RW         1422    .data               mempool.o
    0x20000150   0x000000b4   Data   RW         1440    .data               object.o
    0x20000204   0x0000001c   Data   RW         1460    .data               scheduler.o
    0x20000220   0x00000004   Data   RW         1480    .data               signal.o
    0x20000224   0x00000010   Data   RW         1510    .data               timer.o
    0x20000234   0x0000000c   Data   RW         1530    .data               thread.o
    0x20000240   0x00000010   Data   RW         1549    .data               cpuport.o
    0x20000250   0x00000004   Data   RW         1601    .data               shell.o
    0x20000254   0x00000010   Data   RW         1623    .data               symbol.o
    0x20000264   0x00000008   Data   RW         1733    .data               idlehook_sample.o
    0x2000026c   0x00000004   Data   RW         1750    .data               interrupt_sample.o
    0x20000270   0x00000027   Data   RW         1768    .data               mailbox_sample.o
    0x20000297   0x00000001   PAD
    0x20000298   0x00000008   Data   RW         1786    .data               memp_sample.o
    0x200002a0   0x00000006   Data   RW         1821    .data               mutex_sample.o
    0x200002a6   0x00000002   PAD
    0x200002a8   0x00000010   Data   RW         1838    .data               priority_inversion.o
    0x200002b8   0x00000010   Data   RW         1856    .data               producer_consumer.o
    0x200002c8   0x00000010   Data   RW         1873    .data               scheduler_hook.o
    0x200002d8   0x0000000d   Data   RW         1891    .data               semaphore_sample.o
    0x200002e5   0x00000003   PAD
    0x200002e8   0x00000004   Data   RW         1908    .data               signal_sample.o
    0x200002ec   0x00000004   Data   RW         1926    .data               thread_sample.o
    0x200002f0   0x0000000c   Data   RW         1943    .data               timer_sample.o
    0x200002fc   0x00000054   Zero   RW          280    .bss                drv_usart.o
    0x20000350   0x000001a4   Zero   RW         1303    .bss                idle.o
    0x200004f4   0x00000080   Zero   RW         1355    .bss                kservice.o
    0x20000574   0x00000020   Zero   RW         1375    .bss                mem.o
    0x20000594   0x00000100   Zero   RW         1458    .bss                scheduler.o
    0x20000694   0x00000044   Zero   RW         1568    .bss                pin.o
    0x200006d8   0x00000081   Zero   RW         1599    .bss                shell.o
    0x20000759   0x00000003   PAD
    0x2000075c   0x00000948   Zero   RW         1716    .bss                event_sample.o
    0x200010a4   0x000009d8   Zero   RW         1767    .bss                mailbox_sample.o
    0x20001a7c   0x00001100   Zero   RW         1785    .bss                memp_sample.o
    0x20002b7c   0x0000115c   Zero   RW         1803    .bss                msgq_sample.o
    0x20003cd8   0x00000928   Zero   RW         1820    .bss                mutex_sample.o
    0x20004600   0x00000074   Zero   RW         1855    .bss                producer_consumer.o
    0x20004674   0x00000928   Zero   RW         1890    .bss                semaphore_sample.o
    0x20004f9c   0x00000494   Zero   RW         1925    .bss                thread_sample.o
    0x20005430   0x00000400   Zero   RW         1249    STACK               startup_stm32f103xe.o


==============================================================================

Image component sizes


      Code (inc. data)   RO Data    RW Data    ZI Data      Debug   Object Name

       400         80         86          0          0     445154   board.o
       108          6          0          4          0       1316   clock.o
      3068       1334       1618          0          0      14587   cmd.o
       220         42         36          0          0       2486   components.o
       240         26          0          0          0        732   context_rvds.o
      1492        718         19         16          0       3739   cpuport.o
      1328        312        201          0          0       5278   device.o
      1404         44       2412        192          0       7170   drv_gpio.o
      1228        178        115         68         84      26083   drv_usart.o
       208         92         46          0          0       1519   dynmem_sample.o
       516        264         44          0       2376       1873   event_sample.o
       468         78         22          0        420       5148   idle.o
       312        136         52          8          0       1689   idlehook_sample.o
       184         58         52          4          0       1574   interrupt_sample.o
      7176       1040        849          0          0      21163   ipc.o
       124         14          0          9          0       1728   irq.o
      2736        228        290         12        128      11720   kservice.o
       404        174         48         39       2520       2033   mailbox_sample.o
       112         36         49          0          0      23704   main.o
      2292        644        358         32         32       5227   mem.o
       352        118         48          8       4352       1813   memp_sample.o
      1264        264         62          8          0       6698   mempool.o
       604        296         42          0       4444       1961   msgq_sample.o
       872        136         59          0          0       4000   msh.o
        34          0        159          0          0       2075   msh_cmd.o
       432        178         44          6       2344       1797   mutex_sample.o
       888        186        128        180          0       7919   object.o
       592         94        267          0         68       4651   pin.o
       596        218         53         16          0       2017   priority_inversion.o
       728        290         61         16        116       2135   producer_consumer.o
       776        148         78         28        256       6329   scheduler.o
       216         82         55         16          0       1715   scheduler_hook.o
       508        264         52         13       2344       1925   semaphore_sample.o
      1328        148        181          0          0       5485   serial.o
      2236        222         95          4        129       5633   shell.o
      1476        172         72          4          0       7896   signal.o
       188         64         46          4          0       1648   signal_sample.o
        36          8        304          0       1024        848   startup_stm32f103xe.o
       348         30          0          4          0       3955   stm32f1xx_hal.o
       708         22          0          0          0      27098   stm32f1xx_hal_cortex.o
      3812         40          0          0          0       6349   stm32f1xx_hal_dma.o
      1256         42          0          0          0       3771   stm32f1xx_hal_gpio.o
      2216         94          0          0          0       5147   stm32f1xx_hal_rcc.o
      4618         46          0          0          0      15188   stm32f1xx_hal_uart.o
        16          0          0          0          0        785   stm32f1xx_it.o
         0          0          0         16          0       4929   symbol.o
       244         32         24          4          0       1589   system_stm32f1xx.o
      2040        416        251         12          0      10114   thread.o
       232         92         46          4       1172       1677   thread_sample.o
      1436        268         92         16          0       8251   timer.o
       260        128         44         12          0       1549   timer_sample.o
       180         66         52          0          0       1537   timeslice_sample.o

    ----------------------------------------------------------------------
     54516       9668       8656        764      21812     742407   Object Totals
         0          0         32          0          0          0   (incl. Generated)
         4          0         12          9          3          0   (incl. Padding)

    ----------------------------------------------------------------------

      Code (inc. data)   RO Data    RW Data    ZI Data      Debug   Library Member Name

        86          0          0          0          0          0   __dczerorl2.o
         0          0          0          0          0          0   entry.o
         0          0          0          0          0          0   entry10a.o
         0          0          0          0          0          0   entry11a.o
         8          4          0          0          0          0   entry2.o
         4          0          0          0          0          0   entry5.o
         0          0          0          0          0          0   entry7b.o
         0          0          0          0          0          0   entry8b.o
         8          4          0          0          0          0   entry9a.o
        30          0          0          0          0          0   handlers.o
        36          8          0          0          0         68   init.o
        26          0          0          0          0         80   memcmp.o
        36          0          0          0          0         68   memcpya.o
        36          0          0          0          0        108   memseta.o
        24          0          0          0          0         68   strcat.o
        18          0          0          0          0         68   strcpy.o
        14          0          0          0          0         68   strlen.o
        30          0          0          0          0         80   strncmp.o

    ----------------------------------------------------------------------
       356         16          0          0          0        608   Library Totals
         0          0          0          0          0          0   (incl. Padding)

    ----------------------------------------------------------------------

      Code (inc. data)   RO Data    RW Data    ZI Data      Debug   Library Name

       356         16          0          0          0        608   mc_w.l

    ----------------------------------------------------------------------
       356         16          0          0          0        608   Library Totals

    ----------------------------------------------------------------------

==============================================================================


      Code (inc. data)   RO Data    RW Data    ZI Data      Debug   

     54872       9684       8656        764      21812     738619   Grand Totals
     54872       9684       8656        148      21812     738619   ELF Image Totals (compressed)
     54872       9684       8656        148          0          0   ROM Totals

==============================================================================

    Total RO  Size (Code + RO Data)                63528 (  62.04kB)
    Total RW  Size (RW Data + ZI Data)             22576 (  22.05kB)
    Total ROM Size (Code + RO Data + RW Data)      63676 (  62.18kB)

==============================================================================

